:020000040800F2
:1000000000090020D5010008893000086D30000883
:1000100085300008D50C00084533000800000000BA
:100020000000000000000000000000009130000807
:10003000750F0008000000008D30000895300008A2
:10004000EF010008EF010008EF010008EF010008D0
:10005000EF010008EF010008EF010008EF010008C0
:10006000EF010008EF010008EF010008690F000828
:10007000EF010008EF010008EF010008EF010008A0
:10008000EF010008EF010008EF010008EF01000890
:10009000EF010008EF010008EF010008EF01000880
:1000A000EF01000831310008EF010008EF010008FE
:1000B000EF010008EF01000831320008EF010008ED
:1000C000EF010008EF010008EF010008EF01000850
:1000D000EF010008EF010008EF01000815330008E8
:1000E000EF010008EF010008EF01000800F002F83E
:1000F00000F061F814A696E8000CB244B344DA4567
:1001000001D100F058F8BAE80F000FA696E83000C9
:10011000A5EB040504EB0607AAEB0704A7F101070A
:100120004FEA15154FEA3414A4F10104AC4201D38F
:1001300000F041F813F0010F18BFFB1A43F0010360
:1001400000F001F8DBE71847004100002041000003
:10015000103A24BF78C878C1FAD8520724BF30C8F3
:1001600030C144BF04680C60704700007047000055
:100170000023002400250026103A28BF78C1FBD8B0
:10018000520728BF30C148BF0B607047642900F098
:100190007380752900F07080002070471FB500F053
:1001A00007FD04000020002103F09AFE401C60605F
:1001B0001FBD10B510BD00F0BFFC1146FFF7EEFFEC
:1001C00003F03CF900F0E6FC03B4FFF7F2FF03BCD8
:1001D00000F032FD0948804709480047FEE7FEE786
:1001E000FEE7FEE7FEE7FEE7FEE7FEE7FEE7FEE7E7
:1001F00004480549054A064B704700002D310008A8
:10020000ED00000800030020000900200005002088
:10021000000500200FB41CB50C0007AA009007D001
:100220004142A14202D32044401E01E04FF0FF3082
:10023000074B7B4469460190069800F05AFA00206B
:10024000002C01D0009908701CBC5DF814FB000064
:10025000E304000009684A0501D540B27047C905AA
:10026000FCD500B2704709684A0501D5C0B2704795
:10027000C905FCD580B270472DE9F041064600243F
:1002800010687529314616A510D0FFF7E3FF002846
:1002900002DA404213A507E031688A0701D512A5AA
:1002A00002E0490704D511A5012401E0FFF7DBFFB7
:1002B00000210A2206F1240709E0B0FBF2FCB0FBA2
:1002C000F2F302FB1C00303078541846491C002819
:1002D000F3D123462A463046BDE8F04100F0ABB9E1
:1002E000000000002D0000002B0000002000000096
:1002F0002DE9F0410F460546002028622846E968AE
:10030000884770B3252805D0D5E901219047286A90
:10031000401CF2E7E9682846002688476C28044616
:100320000AD0682C08D04C2C35D06A2C31D0742CD3
:1003300031D07A2C2FD016E0E96806462846884747
:10034000B042044608D16C2E23D04FF48066284674
:10035000E9688847044606E06C2E03D04FF48076A7
:1003600001E01EE04026E4B1A4F14100192802D8C2
:10037000203446F400663A46214628462E60FFF7B0
:1003800005FF60B1012808D0FF1D27F007070837D7
:10039000B4E78026DBE70026D9E73F1DAEE720461D
:1003A000B2E7286ABDE8F0810FB400B58DB010A99E
:1003B000099000910B904FF0FF300A9000200C90B4
:1003C000064878440690064878446A4607900F9994
:1003D00009A800F0BDF90DB05DF814FBAB030000F7
:1003E000C30300002DE9FF5F1D464FF0FF3B914620
:1003F0004FF000085F46D5E90146A96901987F1CC6
:100400008847296A824688470028F6D1BAF1FF3F1B
:100410000CD0002E24F4C06419DD600614D5BAF1A6
:100420002B0F09D0BAF12D0F0ED103E0584604B0BE
:10043000BDE8F09F44F48064A96901987F1C884757
:10044000761E8246002E02DDBAF1300F03D0B9F1DC
:10045000000F26D032E0A969761E01987F1C44F473
:1004600000748847002E824605DDBAF1780F06D069
:10047000BAF1580F03D0B9F1000F10D01EE0B9F156
:10048000000F02D0B9F1100F18D1A969761E01989A
:100490007F1C24F4007488478246102002E0082064
:1004A00000E00A20814609E0A96908FB0908761ED8
:1004B00001987F1C44F4007488478246002E05DDB5
:1004C0004946504600F030F90028EDDAE969019814
:1004D0008847A00502D46FF00100A8E7E00725D106
:1004E000600613D5600502D5C8F1000000E0404663
:1004F00029680A1D2A600968220501D5087015E0DF
:10050000220701D5088011E008600FE02868011D6E
:1005100029600068210502D580F8008006E02107E7
:1005200002D5A0F8008001E0C0F8008038467EE7E0
:10053000401ECAB210F8011F8A4202D00029F9D128
:100540000020704740EA0103024630B59B0710D1F6
:100550004FF0013400E008C208C91D1B9D4315EA95
:10056000C41FF8D013F0FF0102F8011B0DD01B0AC5
:10057000F8E711F8013B002B02F8013B05D011F818
:10058000013B002B02F8013BF3D130BD10B5431CF9
:1005900002E010F8011B71B18107FAD14FF001326E
:1005A00002C88C1A8C4314EAC211F9D0C01A0A0688
:1005B00003D0C01E10BDC01A10BD0A0401D0801E99
:1005C00010BD0902FCD0401E10BD421E12F8013FB2
:1005D000002BFBD111F8013B002B02F8013BF9D1B4
:1005E00070474FF0000200B51346944696462039F6
:1005F00022BFA0E80C50A0E80C50B1F12001BFF4DC
:10060000F7AF090728BFA0E80C5048BF0CC05DF841
:1006100004EB890028BF40F8042B08BF704748BF8F
:1006200020F8022B11F0804F18BF00F8012B704703
:100630007047704770472DE9F0470D46994692463E
:10064000044600F124080168880604D5E06921F019
:100650001001216000E00120A84201DD471B00E0FD
:100660000027A1697A1902EB0900081AA061207815
:10067000C00602D42046AFF30080002608E0D4E98B
:1006800001211AF806009047206A401C761C20625F
:100690004E45F4DB2078C0060AD52046AFF3008033
:1006A00006E0D4E9012130209047206A401C2062F6
:1006B000381EA7F10107F4DC07E0D4E9012118F89E
:1006C00005009047206A401C2062281EA5F1010504
:1006D000F3DC2046AFF300802078000602D502202C
:1006E000BDE8F0870120FBE701694A1C0261087838
:1006F000704700B58FB0CDE9013100210591054962
:100700007944CDE9031011466846FFF7F1FD0FB0BB
:1007100000BD0000E5FFFFFFD1E900239A4202D2AD
:10072000531C0B60107070473A2800D2303820F00C
:100730002002412A01D3A2F13700884201D34FF0B1
:10074000FF30704702681144137801601846704703
:10075000D16005497944516104497944116200210D
:100760001161114600F02EB8EDFFFFFF53000000AD
:10077000426842B1016811F8013B23B1521EC0E941
:100780000012184670470121C160881E70474268F8
:100790005AB1C368016843B983688B4205D0491ECA
:1007A000521CC0E90012002070474FF0FF30704724
:1007B00010B5044600F0E6F90068005D00F00100A5
:1007C00010BD00002DE9F34F4FF0000A0C465646CD
:1007D0008DB001200C9001F10C000B9062690B9818
:1007E00001219047051E2DD0252D2CD0216A884748
:1007F000C0B162690B9801219047216A884700289F
:10080000F7D16269411E0B98904700E0761CA16900
:100810000D988847216A88470028F7D1E1690D982B
:100820008847DBE7A1690D988847A842074601D1B0
:10083000761CD3E7E1690D9888477F1C02D1BAF195
:10084000000F6FD06BE162690B9800273D46394677
:1008500090472A2804D162690B980121904701250D
:10086000DFF8D08262690B9801219047A0F1300136
:100870000A290AD24745E5DC07EB870100EB41076F
:10088000303FDFD445F01005ECE7E90601D46FF006
:1008900000476C280AD04C2814D0682815D06A2844
:1008A0000DD074281CD07A281AD01DE062690B98EC
:1008B000012190476C2802D045F0040514E045F072
:1008C00002050DE045F020050AE062690B98012160
:1008D0009047682802D045F0080505E045F400651A
:1008E00062690B9801219047C4E9015765283DD002
:1008F00019DC58287AD00CDC452837D004DC2528B0
:1009000026D041289ED131E046282FD0472899D1C2
:100910002CE05B2877D0612828D063287CD064281D
:1009200023D15AE0F6E06F2848D008DC66281DD0B5
:1009300067281BD0692821D06E2816D127E070289F
:1009400045D0732868D0752847D078280DD14DE060
:10095000A1690D988847252805463FF469AFE169EC
:100960000D9888476D1C3FF46AAFD8E00D99234677
:100970006A466FF00100AFF30080C5E045F040002B
:1009800023464FF000026060A80736D43EE0E80737
:100990007FF447AF2068011D21600068290501D55B
:1009A00006701BE7290701D5068017E7A90703D5BD
:1009B000F117C0E9006111E706600FE745F040005C
:1009C00023464FF008026060A80716D41EE040F6E8
:1009D0000E0125EA0100606016E045F04000234664
:1009E0004FF00A026060A80707D40FE045F040000E
:1009F0006060A80708D5234610220D996FF001000A
:100A0000AFF3008080E007E0102223460D996FF0DD
:100A10000100FFF7E7FC77E04FF0000963284F463D
:100A2000C8464B46CB4602D05B2806D038E0E806E5
:100A300001D40120A060012732E06269D4F80CB033
:100A40000B98012190475E2807D14FF001094946D4
:100A50006269D4F80CB00B989047216939B900212C
:100A60000A4603AB43F82120491C0829FADBD8B316
:100A7000216949B308F1010862690B980121904787
:100A80005D28F4D1B9F1000F09D0002003A951F875
:100A90002020D24341F82020401C0828F7DB03AB7C
:100AA0002069002820794FEA40701ED05B4622461C
:100AB000CDF80080CDE901970D9900286FF0010075
:100AC00020DAAFF300801FE0C11703AA00EBD16169
:100AD0004B1121F01F0102EB8302411A1368012020
:100AE000884003431360C7E719E00D9922460028A8
:100AF0006FF00100009702DAAFF3008004E0AFF37B
:100B0000008001E0AFF3008000280ADA401C06D123
:100B10000C9820B14FF0FF300FB0BDE8F08F504679
:100B2000FAE7E90701D10AF1010A064400200C9016
:100B300054E60000CCCCCC0C754600F035F8AE463F
:100B400005006946534620F00700854618B020B5D9
:100B5000FFF74EFBBDE820404FF000064FF00007C6
:100B60004FF000084FF0000BAC46ACE8C009ACE811
:100B7000C009ACE8C009ACE8C00921F007018D4606
:100B80007047000010B500F013F8001D10BD00BF45
:100B90005133000010B50446AFF300802046BDE895
:100BA0001040FFF711BB00000048704718000020FC
:100BB00000487047380000204FF0013C50F8042BEB
:100BC00051F8043B9A4221D1A2EB0C03934313EA60
:100BD000CC1317D150F8042B51F8043B9A4215D18D
:100BE000A2EB0C03934313EACC130BD150F8042B64
:100BF00051F8043B9A4209D1A2EB0C03934313EA48
:100C0000CC13DBD04FF00000704700BFD01A01BA00
:100C1000B1FA81F101F0180122FA01F0CB40DBB208
:100C2000C0B2C01AC1F120012CFA01F3D11A9143CC
:100C300011EAC311E6D1704701491820ABBEFEE7A7
:100C40002600020070470000B0B582B004460020C4
:100C5000019021688A68D2073AD1886840F0010083
:100C6000886040F20000C2F2000000684DF6836127
:100C7000C4F21B31A0FB0101880C00BF0190019858
:100C800010B101980138F9E700F022FE2168896867
:100C9000C9071CD1054603E020688068C00716D14B
:100CA00000F016FE401B0328F6D320688068C007BA
:100CB000F2D1A06A40F01000A062E06A40F00100AA
:100CC000E062002084F82400012002B0B0BD0020C2
:100CD00002B0B0BDFEE70000F0B583B041F20405FC
:100CE0003220CEF2000501902C6801F00DF84DF68F
:100CF0008366C4F21B36A0FB06010198890C4843A9
:100D0000019000BF28680199001B8842FAD340F681
:100D10000004C4F201042046012100F0CDFD08B119
:100D2000002519E0642002902F6800F0EDFFA0FB81
:100D300006010298890C4843029000BF2868029976
:100D4000C01B8842FAD320460121012500F0B4FDE2
:100D5000002808BF4FF0FF352046012100F0ACFD10
:100D60000028F9D1E8B203B0F0BD00002DE9F04150
:100D7000804600F089F8FFF7AFFF40F29101C2F220
:100D80000001087000F038F840F29805C2F2000542
:100D9000287000F031F840F29906C2F20006307077
:100DA00000F02AF840F29C07C2F20007387000F009
:100DB00023F840F29D04C2F20004207000F01CF8F9
:100DC00001462D78307840F29A0243193878277816
:100DD00003443B44C2F200028B42118018BFBDE8BD
:100DE000F08103F031F9C8F80000284603F02CF92F
:100DF000C8F80400BDE8F0812DE9F04F81B041F260
:100E0000040540F600044DF6836ACEF20005C4F2F4
:100E1000010400264FF001084FF03209C4F21B3ADA
:100E20002046012100F048FD0028F9D0CDF80090BF
:100E30002F6800F069FFA0FB0A010098890C484365
:100E4000009000BF28680099C01B8842FAD3204652
:100E5000012100F031FDC6F1070108FA01F14BEA6A
:100E60000107002808BF2BEA0107BB4620460121E5
:100E700000F022FD0028F9D10136082ED0D1F8B2B9
:100E800001B0BDE8F08F0000F0B585B04EF6FC5023
:100E9000CEF20000016841F2040521F0807101608A
:100EA0000168CEF2000541F08071016055F8040C34
:100EB00040F6000420F0010045F8040C55F8040C3D
:100EC000C4F2010440F0010045F8040C0020286041
:100ED00000BF00BF00BF296803900120CDE90100D9
:100EE0000220049001A9204600F0E6FB20460121E3
:100EF000002200F0E7FC44F2506001902F6800F0FF
:100F000003FF4DF68366C4F21B36A0FB0601019871
:100F1000890C4843019000BF28680199C01B884292
:100F2000FAD320460121012200F0CCFC1E200190C2
:100F30002F6800F0E9FEA0FB06010198890C4843E8
:100F4000019000BF28680199C01B8842FAD3002095
:100F50000490CDE902000120019001A9204600F093
:100F6000ABFB05B0F0BD000040F22810C2F200005B
:100F700000F0AABA70470000EFF3108072B600BF0D
:100F8000FEE70000B0B581B00022009290F8242066
:100F9000012A01D1022179E04A680123062A02EBE5
:100FA000820C80F8243005D8026802F1340E6FF00C
:100FB00004020AE003680C2A87BF03F12C0E6FF0CD
:100FC000400203F1300E6FF022026244DEF800C0EE
:100FD0001F230C6893402CEA030304FA02F21A431D
:100FE000CEF80020D1F800E002680EEB4E0410238A
:100FF000BEF1090F88BF1E3C88BF0C2352F803C006
:1010000007258968A5402CEA0505A1402943D15050
:101010002EF001014FF0000C10294FF0000133D1E8
:10102000016842F20042C4F20102914205D0816A95
:1010300041F020018162012126E09268120222D44F
:101040008A68BEF1100F42F400028A601BD140F2A0
:101050000001C2F2000109684DF68362C4F21B323E
:10106000A1FB0212910C01EB810149000091009952
:1010700049B100BF009901390091009900294FF052
:101080000001F7D100E0002180F824C0084601B03B
:10109000B0BD00000068C06C70470000002804BFAD
:1010A00001207047B0B50446806A30B90020E06284
:1010B00084F82400204600F0A1F820688168C90760
:1010C00009D0816821F00101816000F001FC2168F4
:1010D0008968C90730D100200121A36AA26A31B30F
:1010E00013F0100123D141F2021122EA0101023171
:1010F000A162E169D4E9013241EA030C531EB3FA5B
:1011000083F35D091346B2F5807F18BF2B02217D62
:10111000257B01294CEA450E31D13DB3A56A45F046
:101120002005A562E56A45F00105E56227E042F089
:101130001000A0620120B0BD054603E02068806871
:10114000C007C8D000F0C4FB401B0328F6D32068BA
:101150008068C007F2D0A06A002140F01000A062B1
:10116000E06A40F00100E0620120B6E7D4F818C060
:101170004EF60005CFF6FF7505EB4C352B43256881
:10118000B2F5807F696821F4694141EA0301696031
:10119000A9684FF2FD73CFF6E17301EA030141EA5A
:1011A0000E01A96001D0012A06D121690022CFF6E3
:1011B000F07202EB015200E00022E96A21F47001B2
:1011C0001143E962A96840F6FE62CFF61F72114032
:1011D000714507D10021E162A16A012262F3010198
:1011E000A162B0BDA06A40F0100020F00200A06231
:1011F000E06A40F00100E0620120B0BDB0B586B009
:101200000446006842F60001C4F2010188424FF032
:101210000001CDE90411CDE9021147D042F20041AD
:10122000C4F20101884262D141F21800C4F2020006
:10123000016841F400710160016801F400710191DD
:101240000199016841F008010160006802A900F0FD
:10125000080001900198022002900320039040F6BC
:101260000040C4F2010000F027FA40F228150820DF
:10127000C2F20005C4F202000021C5E9000105F137
:10128000080080224FF480734FF4806C4FF0200EE2
:1012900080E80E502846E96100F0CAF9002818BF1E
:1012A000FFF76AFE25626C6206B0B0BD41F218001D
:1012B000C4F20200016841F480610160016801F438
:1012C000806101910199016841F0080101600068A5
:1012D00002A900F00800019001980120029003206B
:1012E000039040F60040C4F2010000F0E5F906B0BA
:1012F000B0BD0000B0B5044690F82400012804BF3A
:101300000220B0BD012084F824002046FFF79CFC99
:1013100018B1002184F82410B0BD42F2044C2168B9
:10132000A26AC4F2010C40F201339A430CF57F75B6
:1013300002F58072A942A26207D0A26A22F480124A
:10134000A2624A6852051AD41EE0DCF8002012F4AA
:10135000702FF2D0A26A42F4801E42F60002C4F25C
:1013600001029142C4F828E005D042F20042C4F2E2
:101370000102914208D1DCF80020520504D5A26A8E
:10138000012363F30D32A262A26A4FF0000ED20471
:101390004FF0000244BFE26A22F00602E2626FF000
:1013A000020284F824E00A608A6802F46022B2F53E
:1013B000602F0BD1A94204D08A6842F4A0028A604F
:1013C000B0BDDCF8002012F4702FF5D08A6842F42A
:1013D00080128A60B0BD0000014690F8210002280A
:1013E00013D10868D1E90FC3026822F00E0202602F
:1013F000026822F001020260012000FA03F2CCF838
:10140000042081F82100002002E0042088630120EC
:10141000002281F82020704790F82110022923D162
:101420000268116821F00E0111602F211368C4F2C7
:1014300002018A4240F20401C4F2020123F00103D6
:10144000136015DD3023C4F202039A421CD04423FA
:10145000C4F202039A421AD05823C4F202039A42F9
:101460001AD14FF480331FE00421816301207047BB
:101470000823C4F202039A420CD01C23C4F20203D4
:101480009A4209D110230FE04FF480730CE04FF41F
:10149000805309E0012307E001F1680C4FF08073ED
:1014A000624508BF4FF480130B60012180F82110C2
:1014B000426B002180F8201022B180B590470021B6
:1014C000BDE880400846704710B5D0E90FCE0168EE
:1014D000DCF800300A6823FA0EF35C0724D512F01A
:1014E000040421D00A68920603D40A6822F0040298
:1014F0000A602F22C4F20202914240F20402C4F2B6
:1015000002024FDD3023C4F20203994262D0442329
:10151000C4F20203994260D05823C4F202039942F4
:1015200060D14FF4802365E09C0727D512F00204B8
:1015300024D00A68920606D40A6822F00A020A60D9
:10154000012280F821202F22C4F20202914240F2AF
:101550000402C4F2020231DD3023C4F202039942D4
:101560004ED04423C4F2020399424CD05823C4F213
:10157000020399424CD14FF4003351E01B0756D57A
:1015800012F0080208BF10BD0A6822F00E020A60BD
:10159000012101FA0EF2CCF80420816380F82110B9
:1015A000016B3FE00823C4F20203994218D01C23C8
:1015B000C4F20203994215D140231BE00823C4F270
:1015C0000203994222D01C23C4F2020399421FD184
:1015D000202325E04FF480630CE04FF4804309E0C2
:1015E000042307E002F168044FF08063A14208BFC2
:1015F0004FF480031360C16AC9B1BDE810400847C9
:101600004FF400730CE04FF4005309E0022307E0AD
:1016100002F168044FF00073A14208BF4FF40013B9
:101620001360816A0022002980F82020E5D110BDD6
:10163000014600284FF0010008BF70472DE9F04730
:101640000A684FF6F873CBF6FD7302EB030C4CF609
:10165000CD43CCF6CC43ACFB033C6FF00307002634
:1016600007EA9C07C4F2020601F10C0AC1E90F6700
:101670000227D1E9013E9AE83004D1E9069881F8C1
:101680002170176843F6F076B7433B4343EA0E03F5
:1016900023432B4343EA0A0343EA090343EA0803CB
:1016A000136000228A6381F8210081F82020002045
:1016B000BDE8F047704700002DE9F04F82B00E689A
:1016C000002E00F0F68041F20042C4F20102042331
:1016D00040F2004E904208BF03234FF6FF7CC4F255
:1016E000010E009300240123C1F2100C4FF0000AF8
:1016F0004FF0000943E0012704F00C030F229A4049
:101700002BEA020207FA03F34FEA9A051A4346F856
:1017100025204E6840F20C45F202DEF8082054BF46
:1017200022EA080242EA0802C4F20105CEF80820C3
:101730002A68B30254BF22EA080242EA08022A6079
:10174000B303DEF8042054BF22EA080242EA08028A
:10175000F303CEF80420DEF800204FF0010354BF5D
:1017600022EA080242EA0802CEF800200E680AF1D6
:10177000010A36FA0AF204F1040400F09A8003FA2E
:101780000AFB16EA0B08F1D04E68664510DC122EF3
:1017900050D8DFE806F0330A41454F4F4F4F4F4FC7
:1017A0004F4F4F4F4F4F4F484C00D1F80C9041E0F6
:1017B0004FF6FF72C1F2210296420FDC0022C1F205
:1017C000110296421AD00022C1F21202964215D09E
:1017D0000022C1F22102964210D02BE00022C1F279
:1017E000220296420AD00022C1F23102964205D06E
:1017F0000022C1F2320296421CD100BF8A6842B177
:10180000012A14BFC0F814B0C0F810B04FF0080996
:1018100010E04FF004090DE0CA6802F1080909E080
:101820004FF0000906E0CA6802F1040902E0CA6844
:1018300002F10C0922460646B8F5807F24BF203A03
:10184000043637680F25954027EA050509FA02F2A4
:101850002A433260CA79D2067FF588AF41F2180375
:10186000C4F202031A68AEF57E7642F001021A60F5
:101870001A6802F001020192019A2AF0030256F856
:1018800002B040F60002C4F2010290420FD040F6CE
:101890000042C4F2010290423FF42DAF41F2000237
:1018A000C4F20102009F904208BF022724E70027EC
:1018B00022E702B0BDE8F08F8068084018BF012021
:1018C00070470000002A08BF09040161704700004A
:1018D00040F2F420C2F200000068704740F21100AC
:1018E00040F2F421C2F20000C2F2000100780A685E
:1018F000104408607047000080B542F20000C4F256
:101900000200016841F010010160032000F08EF830
:101910000F2000F005F800F02BF8002080BD00003B
:10192000B0B540F21102C2F2000240F2000112789A
:10193000C2F200014FF47A730968B3FBF2F2044675
:10194000B1FBF2F1084600F0ADFB0F2C4FF00105A2
:101950000CD858B94FF0FF3021460022002500F086
:1019600039F840F21400C2F2000004602846B0BD0D
:1019700082B041F21800C4F202000168022241F074
:1019800001010160016801F00101019101994168C3
:1019900041F080514160406800F080500090009814
:1019A0000420C4F20100016862F31A61016002B010
:1019B00070470000002848BF704700F01F01012257
:1019C00002FA01F14EF200124009CEF2000242F892
:1019D0002010704710B54EF60C5CCEF2000CDCF80F
:1019E0000030C3F3022E8EF00704042C28BF042419
:1019F000BEF103034FF0FF3E0EFA04F438BF00239C
:101A0000A14399400EFA03F39A43114300F1604257
:101A100000F00F03090102F56442043B634400280F
:101A200048BF03F10C02117010BD00004EF60C51BE
:101A3000CEF200010A684FF6FF031A4060F30A2253
:101A400042F0806040F0FD70086070472DE9F04181
:101A500082B00446007841F21C06C007C4F20206B8
:101A60004AD030685FEAC00808D4306840F080503F
:101A70003060306800F080500190019847F2000714
:101A8000C4F200073868C00512D4386840F480708A
:101A90003860FFF71DFF05463868C00508D4FFF71A
:101AA00017FF401B6428F7D9032002B0BDE8F0817E
:101AB000706810F4407012D0616801F4407188427F
:101AC0000DD0706840F24042C4F24222012320F45B
:101AD000407113600023C0071360716025D17068E6
:101AE000616820F440700843B8F1000F706003D4BF
:101AF000306820F0805030602068810707D556F8A4
:101B0000181CA26821F44041114346F8181CC00675
:101B100007D556F8180CE16820F48000084346F811
:101B2000180C002002B0BDE8F081FFF7D1FE054699
:101B300041F2883770688007D1D4FFF7C9FE401B97
:101B4000B8424FF00300F5D9ECE70000002804BFCD
:101B5000012070472DE9F04381B042F20008C4F241
:101B600002080446D8F800000D4600F0070088423D
:101B70000CD2D8F8000020F007002843C8F8000075
:101B8000D8F8000000F00700A8426BD1206841F2AD
:101B900004098107C4F2020917D5410705D5D9F810
:101BA000001041F4E061C9F80010010705D5D9F82B
:101BB000001041F46051C9F80010D9F80010A26873
:101BC00021F0F0011143C9F80010C00741D1D8F845
:101BD000000000F00700A8420CD9D8F8000020F05F
:101BE00007002843C8F80000D8F8000000F00700FC
:101BF000A84237D12068410707D5D9F80010E2681C
:101C000021F4E0611143C9F80010000708D5D9F8A4
:101C10000000216920F4605040EAC100C9F80000CA
:101C2000D9F8002002F00C00082841F20020C0F290
:101C30007A004DD144F2E613C2F38341C0F60003AB
:101C4000595CD20338D440F60010C0F23D0048433E
:101C50003EE06068022809D0012828D159F8041C08
:101C6000890307D4012001B0BDE8F08359F8041CB2
:101C70008901F7D5D9F8001021F003010843C9F80C
:101C80000000FFF725FE064641F28837D9F800002C
:101C9000616800F00C00B0EB810F98D0FFF718FEE0
:101CA000801BB842F2D9032001B0BDE8F08359F897
:101CB000041C8907D6D5DDE7D9F8002044F2E413E7
:101CC000C2F34042C0F600039A5C4843B0FBF2F016
:101CD000D9F8001044F2CC12C1F30311C0F600028F
:101CE000515C40F2000220FA01F140F21400C2F20D
:101CF00000000068C2F200021160FFF711FE002030
:101D000001B0BDE8F083000040F20000C2F2000024
:101D10000068704740F2000041F20401C2F2000086
:101D2000C4F202010068096844F2DC12C1F3022126
:101D3000C0F60002515CC8407047000040F200004D
:101D400041F20401C2F20000C4F202010068096815
:101D500044F2DC12C1F3C221C0F60002515CC8405B
:101D600070470000002804BF012070472DE9F041B2
:101D700082B00446007841F20006C007C4F20206B1
:101D800049D0706800F00C00042809D13068800345
:101D900041D5606800283ED1012002B0BDE8F08145
:101DA000706800F00C00082802D17068C003EDD400
:101DB00065682DB1B5F5A02F0AD0B5F5803F0BD0E1
:101DC000306820F480303060306820F4802006E0F5
:101DD000306840F480203060306840F480303060FB
:101DE000FFF776FD002D054612D000BF3068800356
:101DF00011D4FFF76DFD401B6428F7D918E100BF2F
:101E0000FFF766FD401B64284FF0030000F2D88006
:101E100030688003F4D42078800719D5706810F0FA
:101E20000C0F07D0706800F00C00082827D17068EC
:101E3000C00324D43068800703D52069012840F00E
:101E4000A6803068616920F0F80040EAC100306087
:101E5000207800074ED5A06938B30020C4F2422094
:101E60000121C0F88014FFF733FD0546706A800732
:101E70002DD4FFF72DFD401B0228F7D9D8E02069AB
:101E8000002840F20000C4F2422000F0A8800121A6
:101E90000160FFF71DFD054630688007D1D4FFF7CC
:101EA00017FD401B0228F7D9C2E00020C4F24220EF
:101EB0000021C0F88014FFF70BFD0546706A80070B
:101EC00018D5FFF705FD401B0228F7D9B0E040F216
:101ED0000000C2F20000006844F6D351C1F2620172
:101EE000A0FB0101480A019000BF0198411E002893
:101EF0000191F9D12078400717D4E5698DB1706858
:101F000000F00C00082846D1012D40D07068216AED
:101F100000F480328A423AD1616A00F4701088423B
:101F200035D1002002B0BDE8F081F0695FEAC00859
:101F300008D4F06940F08050F061F06900F0805002
:101F40000090009847F20007C4F200073868C00507
:101F50000FD4386840F480703860FFF7B9FC05464C
:101F60003868C00505D4FFF7B3FC401B6428F7D9D7
:101F70005EE0E5681DB1052D42D0012D44D0306AE8
:101F800020F001003062306A20F004003FE00120C0
:101F900002B0BDE8F0810027C4F242270020386675
:101FA000FFF796FC022D05460ED100BF3068800178
:101FB00055D5FFF78DFC401B02284FF00300F5D9E3
:101FC00002B0BDE8F08100BF30688001A9D5FFF7FD
:101FD0007FFC401B02284FF00300F5D9F0E70021F9
:101FE0000160FFF775FC0546306880077FF530AF6C
:101FF000FFF76EFC401B02284FF00300F4D9DFE727
:10200000306A40F004003062306A40F00100306213
:10201000FFF75EFC002D054641F2883713D000BF64
:10202000306A800712D4FFF753FC401BB842F7D93F
:10203000032002B0BDE8F081FFF74AFC401BB84224
:102040004FF00300BCD8306A8007F5D4B8F1000F18
:102050003FF553AFF06920F08050F0614DE7206A02
:10206000B0F5803F05D17168A26821F400311143B9
:1020700071607168626A21F47411114308437060E1
:1020800001203866FFF724FC044600BF3068800159
:102090003FF547AFFFF71CFC001B02284FF0030081
:1020A000F4D98DE7411E0020B0EB116F1CBF012059
:1020B00070474EF21002CEF2000251604EF62351EC
:1020C000CEF20001F0230B70072190601160704781
:1020D000704700007047000090F83C20012A4FF044
:1020E000020234D010B5012380F83C3080F83D2046
:1020F0000268D2F804E0D2F808C00C682EF0700331
:10210000234340F2FF74C4F20004A242536005DC92
:10211000B2F1804F0ED040F2004307E042F6004398
:10212000C4F201039A4205D040F60003C4F2000352
:102130009A4204D149682CF080031943916001212F
:10214000002280F83D1080F83C20BDE81040104689
:1021500070470000002804BF0120704710B50446F6
:1021600090F83D0028B9002084F83C00204600F09B
:102170005DF8022084F83D00206840F2FF73026899
:10218000C4F2000342F6004C9842C4F2010C05DC94
:10219000B0F1804F0AD040F2004103E0604505D025
:1021A00040F60001C4F20001884203D1A16822F088
:1021B00070020A43984205DCB0F1804F0AD040F229
:1021C000004103E0604505D040F60001C4F2000183
:1021D000884203D1216922F440720A43A36922F0A4
:1021E0008001D4F804E0E268194360450160C262EE
:1021F000C0F828E002D16169CCF8301001214161BA
:10220000002084F8461084F83E1084F83F1084F8CB
:10221000401084F8411084F8421084F8431084F888
:10222000441084F8451084F83D1010BD80B584B08A
:10223000006840F20041C4F20001884222D040F61A
:102240000001C4F2000188422BD042F60041C4F2E2
:102250000101884223D141F21C00C4F2020050F86F
:10226000041C002241F4006140F8041C50F8040CE6
:10227000002100F40060039003981920FFF7AAFBE7
:10228000192021E041F21C00C4F20200016841F073
:1022900002010160006800F002000290029804B0A0
:1022A00080BD41F21C00C4F202000168002241F02E
:1022B000040101600068002100F004000190019811
:1022C0001E20FFF787FB1E2004B0BDE88040FFF70B
:1022D00071BB000090F83D1001291CBF0120704720
:1022E000022180F83D10006840F2FF71C4F2000145
:1022F000884205DCB0F1804F0ED040F2004107E08B
:1023000042F60041C4F20101884205D040F60001C6
:10231000C4F20001884206D1816801F00701062954
:1023200004BF00207047016841F0010101600020F6
:102330007047000090F83D1001291CBF0120704734
:10234000022180F83D10006840F2FF72C168C4F2BB
:102350000002904241F00101C16005DCB0F1804F04
:102360000ED040F2004107E042F60041C4F2010104
:10237000884205D040F60001C4F20001884206D12F
:10238000816801F00701062904BF00207047016839
:1023900041F00101016000207047000090F83C20EE
:1023A000012A4FF0020200F0C68080B5012380F8B8
:1023B0003C3080F83D20D0F800C04FF67772DCF852
:1023C000083023EA0202CCF808200B684F2B28DCE7
:1023D0001F2B44DD202B45D0302B43D0402B40F029
:1023E000AC80D1F804E0C968DCF82030DCF82020AB
:1023F00022F00102CCF82020DCF8182022F0F002B4
:1024000042EA011123F00A0242EA0E02CCF8181047
:10241000CCF82020DCF8081041F0470121F0300111
:102420007EE06F2B26DDB3F5005F47D0B3F5805F0C
:1024300078D0702B40F08180D1E901E3C968DCF8E5
:10244000082043EA0E0322F47F4243EA01211143AC
:10245000CCF80810DCF8081041F0770160E00BB10F
:10246000102B6AD1DCF8081021F07001194341F0FB
:10247000070155E0502B34D0602B5ED1D1F804E039
:10248000C968DCF82030DCF8202022F01002CCF8FB
:102490002020DCF8182022F4704242EA013123F0B7
:1024A000A00242EA0E12CCF81810CCF82020DCF87A
:1024B000081041F0670121F0100131E0D1E901E39A
:1024C000C968DCF8082043EA0E0322F47F4243EA9D
:1024D00001211143CCF80810DCF8081041F48041C8
:1024E0001EE0D1F804E0C968DCF82030DCF82020D8
:1024F00022F00102CCF82020DCF8182022F0F002B3
:1025000042EA011123F00A0242EA0E02CCF8181046
:10251000CCF82020DCF8081041F0570121F0200110
:10252000CCF808100022012180F83D10002180F82D
:102530003C10BDE88040104670470122F3E70000E0
:102540007047000010B5044600680169890744BF60
:10255000C1685FEA81713FD420680169490744BFBF
:10256000C1685FEA417143D420680169090744BF2B
:10257000C1685FEA017148D420680169C90644BF97
:10258000C1685FEAC1614CD420680169C9071CBFFA
:10259000C1685FEAC17151D120680169090644BF71
:1025A000C1685FEA016150D420680169490644BFEF
:1025B000C1685FEA41614FD421680869800646BF5F
:1025C000C8685FEA806010BD6FF0200220460A6193
:1025D000BDE81040FFF77EBD6FF0020101610121EF
:1025E0002177806980073ED02046FFF7A9FF40E0B1
:1025F0006FF00401016102212177806910F4407FAE
:102600003AD02046FFF79CFF3CE06FF008010161E3
:1026100004212177C069800737D02046FFF790FF5B
:1026200039E06FF01001016108212177C06910F4D1
:10263000407F33D02046FFF783FF35E06FF0010184
:102640000161204600F086FAA6E76FF08001016183
:102650002046FFF73DFDA7E76FF0400101612046EE
:1026600000F07AFAA8E7204600F08EF8204600F045
:102670000FFA002020776FE7204600F085F820460B
:1026800000F006FA002020776EE7204600F07CF884
:10269000204600F0FDF9002020776DE7204600F08D
:1026A00073F8204600F0F4F9002020776CE7000072
:1026B00070B586B0006840F20041C4F20001884263
:1026C0004FF00001CDE90411CDE9021140D0B0F185
:1026D000804F56D141F21800C4F20200016840F662
:1026E000000441F0040101600168C4F2010401F03A
:1026F000040101910199016802AD41F008010160F6
:102700000068022600F008000190019848F20C00D1
:1027100002902046294603960596FEF7CDFF082035
:10272000CDE9020604F5806029460596FEF7C4FF50
:102730000420C4F2010001684FF6FF42CFF6FF0209
:10274000114041F0E06141F48071016006B070BD5C
:1027500041F21800C4F20200016841F00401016076
:10276000006802A900F0040001900198C0200290C6
:1027700002200390059040F60000C4F20100FEF72D
:102780009BFF06B070BD00007047000090F83C3021
:10279000012B04BF022070474FEAB2020123032A33
:1027A00080F83C3000F2EC802DE9F041DFE802F0E7
:1027B000023B77B2036842F600451C6A1A6AC4F20B
:1027C000010522F001021A621A46D3F804C052F839
:1027D00018EF8E6824F00204AB4244EA060405D1E7
:1027E000CE6824F00C0426F0040634430E68AB4295
:1027F00006D1D1E905582CF440772F4347EA080C5D
:102800002EF073073743C3F804C09F614F6809690E
:102810005F631C629F6947F008079F619F6927F00B
:1028200004079F61A6E0036842F600451C6A1A6A25
:10283000C4F2010522F010021A621A46D3F804C04D
:1028400052F818EF8E6824F02004AB4244EA0614D4
:1028500007D1CE686FF0400724F0C00407EA0616DF
:1028600034430E68AB4206D1D1E905572CF4406CD5
:102870003D434CEA850C2EF4E64747EA0627C3F8A9
:1028800004C09F614F6809699F631C629F6947F498
:1028900000679F619F6927F480679F6169E0036813
:1028A00042F600451C6A1A6AC4F2010522F48072DD
:1028B0001A621A46D3F804C052F81CEF8E6824F44A
:1028C0000074AB4244EA062407D1CE6840F2FF47C9
:1028D000360224F44064BE4334430E68AB4206D152
:1028E000D1E905572CF4405C3D434CEA051C2EF021
:1028F00073073743C3F804C0DF614F680969DF63BA
:102900001C62DF6947F00807DF61DF6927F0040711
:10291000DF612FE0036842F60047D3F820C01A6A4F
:10292000C4F2010722F480521A621A465C6852F817
:102930001C5FD1F800E08E68BB4204D14F6924F4DB
:10294000804444EA87142CF4005747EA063725F4FC
:10295000E64646EA0E265C60DE614E6809691E6442
:102960001F62DF6947F40067DF61DF6927F4806772
:10297000DF6109021368194300231160BDE8F041CB
:10298000002180F83C10184670470000002804BF62
:102990000120704710B5044690F83D0028B900208A
:1029A00084F83C00204600F05DF8022084F83D00E9
:1029B000206840F2FF730268C4F2000342F6004C44
:1029C0009842C4F2010C05DCB0F1804F0AD040F20D
:1029D000004103E0604505D040F60001C4F200016B
:1029E000884203D1A16822F070020A43984205DCB4
:1029F000B0F1804F0AD040F2004103E0604505D0BD
:102A000040F60001C4F20001884203D1216922F49A
:102A100040720A43A36922F08001D4F804E0E2681E
:102A2000194360450160C262C0F828E002D16169C3
:102A3000CCF8301001214161002084F8461084F860
:102A40003E1084F83F1084F8401084F8411084F858
:102A5000421084F8431084F8441084F8451084F838
:102A60003D1010BD0068B0F1804F18BF704781B0B5
:102A700041F21C00C4F20200016841F00101016052
:102A8000006800F001000090009801B0704700005D
:102A90007047000041B1082909D0042914BF00F192
:102AA000410200F13F0204E000F13E0201E000F1CA
:102AB00040021278012A1CBF01207047022241B156
:102AC000082909D0042914BF80F8412080F83F204C
:102AD00004E080F83E2001E080F84020006801F02A
:102AE0001F010122036A8A4023EA02010162036A8C
:102AF00042F64441C4F201011A43A1F14403984251
:102B0000026203D10A6842F400420A6040F2FF7197
:102B1000C4F20001884205DCB0F1804F0ED040F2D3
:102B2000004107E042F60041C4F20101884205D0AD
:102B300040F60001C4F20001884204D1816801F02E
:102B40000701062903D0016841F00101016000205E
:102B50007047000070470000704700007047000099
:102B600070470000B0B582B0044600680168C368D1
:102B7000426901F02F05202D03F0200506D12DB16B
:102B8000204602B0BDE8B04000F064BB5FEA017CC3
:102B90001EBF02F0010E03F4907212EB0E0240D140
:102BA000226BCD0618D5012A16D113F0100213D0CE
:102BB00000210191016801914168019101994069E9
:102BC000400636D4A08DE18DE28D002A18BF8842E0
:102BD00040F00C8102B0B0BD0A0670D513F080023F
:102BE0006DD094F841102129F4D1A168B1F5805F2E
:102BF00003D12169002900F02E81216A4A1C22623A
:102C000009784160E18C01390A04E184E2D1C168AC
:102C100021F08001C160C16841F04001C16002B093
:102C2000B0BDC80718BF13F480705CD1480760D4EA
:102C300066E0E06B016849688AB2002ACAD0A38DB9
:102C40009A42C7D2E1858069202830D0206850E8B8
:102C5000030F216820F4807041E80302002AF5D1B7
:102C6000206850E8050F216820F0010041E80502C6
:102C7000002AF5D1206850E8050F216820F04000B7
:102C800041E80502002AF5D1202084F84200002006
:102C9000206300BF206850E8030F216820F0100077
:102CA00041E80302002AF5D1E06BFEF795FB022014
:102CB0006063A08DE18D401A81B22046C0E04906D4
:102CC0007FF588AF13F040013FF484AFC16821F075
:102CD0004001C1602021204684F8411002B0BDE8C7
:102CE000B04000F0C1B9606C40F00100606448077A
:102CF00006D5BEF1000F03D0606C40F002006064A6
:102D0000880706D5BEF1000F03D0606C40F00400C8
:102D10006064BCF1000F06D55EEA050003D0606C6C
:102D200040F008006064606C00283FF453AF8806F0
:102D300003D515B1204600F08DFA20684069616C1A
:102D400000F0400001F00801401848D0206850E829
:102D5000030F216820F4907041E80302002AF5D1A6
:102D6000206850E8050F216820F0010041E80502C5
:102D7000002AF5D1206B01280AD100BF206850E855
:102D8000030F216820F0100041E80302002AF5D16A
:102D9000202084F84200002020632068406940061B
:102DA00053D500BF206850E8050F216820F040008F
:102DB00041E80502002AF5D1E06B002845D043F236
:102DC0004921C0F600014163FEF726FB00283FF4CD
:102DD00001AFE06B416B02B0BDE8B0400847204650
:102DE000FFF7BEFE0020606402B0B0BD401A00BF15
:102DF000216851E8031F226821F4907142E803130F
:102E0000002BF5D1216851E8051F226821F001014E
:102E100042E80513002BF5D1202184F8421000214F
:102E2000216300BF216851E8031F226821F01001CF
:102E300042E80313002BF5D1022281B220466263DF
:102E400002B0BDE8B040FFF789BE204602B0BDE841
:102E5000B040FFF785BE216A31F8022B6FF35F2285
:102E600042602162CEE60000002804BF01207047C6
:102E700010B5044690F8410028B9002084F84000BD
:102E8000204600F061F8242084F841002068D4E94D
:102E90000212C36823F40053C360036923F4405350
:102EA0001A430261D4E904231143C268194341F271
:102EB0000C639A431143C1604169A26921F44071D6
:102EC000114343F60002C4F201029042416102D074
:102ED000FEF720FF01E0FEF731FFD4E900231921BE
:102EE00048439900B0FBF1F048F21F5CC5F2EB1CBF
:102EF000A0FB0C314FF69C734909C0F6FF7301FB30
:102F00000300322303EB0010A0FB0C03F02000EAC7
:102F1000531000EB0110C3F3431108449060106993
:102F2000202120F490401061506920F02A00506167
:102F3000D06840F40050D0600020606484F84110F4
:102F400084F84210606310BD70B586B040F600444E
:102F5000C4F201040068A4F54441002688420596A5
:102F6000CDE90366029601D006B070BD41F21800AB
:102F7000C4F20200416802AD41F480214160416821
:102F800001F4802101910199016841F0080101607B
:102F90000068294600F00800019001984FF4806015
:102FA000029002200390032005902046FEF784FB48
:102FB0004FF40060CDE90206204629460496FEF74C
:102FC0007BFB272000210022FEF704FD2720FEF7CF
:102FD000F1FC06B070BD000090F84230202B07D104
:102FE00000294FF0010318BF002A04D1184670478A
:102FF00002231846704700230363816222218285E1
:10300000C285436480F84210016921B10168CA6831
:1030100042F48072CA600068416941F00101416177
:10302000C16841F02001C160184670477047000038
:10303000034690F84100202806D100294FF00100F6
:1030400018BF002A02D17047022070471962002081
:1030500021219A84DA84586483F841101968CA6877
:1030600042F08002CA607047704700001EF0040FF3
:103070000CBFEFF30880EFF3098000F065B900BFE3
:10308000FEE70000FEE70000FEE7000070470000DA
:1030900070470000FEF722BC70B594B00AAC204621
:1030A0002821FDF79EFA01200A900E904FF4E010BF
:1030B00000254FF480310226139020460995CDE972
:1030C0000755CDE90555CDE90355CDE90155CDE9C4
:1030D0000B15CDE91161FEF745FE20B1EFF310802D
:1030E00072B600BFFEE70F20CDE905064FF4806001
:1030F000CDE9080505A802210795FEF727FD20B1B7
:10310000EFF3108072B600BFFEE7022001904FF48B
:103110000040039001A8FEF799FC20B1EFF3108066
:1031200072B600BFFEE714B070BD0000704700002B
:1031300010B540F27800C2F20000007801280FD1EB
:1031400040F27A04C2F200042088132817D840F60F
:103150000000C4F2010002210122FEF7B3FB1FE0D0
:1031600040F27A00C2F200000021018040F6000027
:10317000C4F2010002210022FEF7A4FB13E0142890
:103180000AD0272808D840F60000C4F20100022126
:103190000022FEF797FB03E0292824BF00202080AF
:1031A00020880130208040F2E020C2F20000007848
:1031B0000021012840F28C00C2F200001AD1342212
:1031C000C4F200025160916011600188332903D874
:1031D00001EB810111600BE0652907D843F234331C
:1031E000C3F23333A1FB0313136001E0002101801C
:1031F0000188013140F2F024C2F20004226801800B
:10320000B2F5967F09D940F2A400C2F20000012174
:1032100001700020206000F0EFFD2068411C40F2AA
:103220007010C2F200002160BDE81040FFF78AB9BB
:1032300040F2E42140F24820C2F200010122C2F231
:1032400000000A60FFF77EB9406A0021C185C18491
:10325000FFF786BC90F84210222918BF7047826899
:10326000B2F5805F01D1016991B1816AB2F5805FE9
:1032700007D00AB9026922B10268526802F07F02DF
:1032800001E0026852680A70816A0131816207E0D8
:103290000168826A49686FF35F2122F8021B82622B
:1032A000C18D01390A04C18500D070470168CA6820
:1032B00022F02002CA60CA6822F48072CA604A6999
:1032C00022F001024A61202180F84210002141636E
:1032D000026B012A18BFFFF7A9BE81B0016300BFCE
:1032E000016851E8031F026821F0100142E803134E
:1032F000002BF5D101680A68D20606D5002200929B
:103300000A680092496800910099818D01B0FFF729
:1033100025BC000010B540F29024C2F2000440F237
:10332000A801C2F2000120462022FFF755FE40F21C
:10333000E121C2F20001012220460A70BDE81040DE
:10334000FFF710BCFEE70000FEE7000080B5FEF7C7
:10335000BFFA40F2D822C2F2000240F2080113681C
:10336000C2F20001096840F2A00CC31AC2F2000CBC
:103370008B42CCF8000027D340F28601C2F2000154
:103380000B78106073B1012B1ED140F23440C4F2AF
:103390000000416840F2465291420FD84168053121
:1033A000416011E040F23440C4F200004168B1F5E0
:1033B000967F03D341680539416005E040F28400FF
:1033C000C2F200000021018040F2DC21C2F20001C3
:1033D00040F20C03DCF800000A68C2F200031B682C
:1033E000821A9A4228D340F29002C2F20002127866
:1033F00008607AB1012A18BF80BD40F23440C4F29F
:103400000000016840F62E1291420FD80168053184
:10341000016080BD40F23440C4F200000168B1F5A3
:10342000AF7F03D301680539016080BD40F28E0093
:10343000C2F200000021018080BD00008EB041F288
:10344000000AC4F2010AFEF757FAFFF725FE00242E
:1034500041F21805CDE90344CDE90144C4F2020567
:1034600028684FF4604140F010002860286800226E
:1034700000F010000A900A98286840F020002860A8
:10348000286800F020000A900A98286840F004009C
:103490002860286800F004000A900A98286840F024
:1034A00008002860286800F008000A900A98504632
:1034B000FEF708FAAAF50066304613210022FEF74F
:1034C00001FAAAF5806840464FF4C0410022FEF799
:1034D000F9F94FF4005001AF01904FF001094FF09E
:1034E000020B50463946CDF80890CDE903BBFEF7F4
:1034F000E3F84FF44040CDE9010950463946CDE9A3
:10350000034BFEF7D9F81120CDE9010930463946C1
:10351000CDE9034BFEF7D0F830463946CDE901B985
:10352000CDE903BBFEF7C8F84FF4C040CDE901096F
:1035300040463946CDE9034BFEF7BEF855F8040C7A
:10354000002140F0010045F8040C55F8040C00225D
:1035500000F00100019001980B20FEF73BFA0B20D0
:10356000FEF728FA40F2C8000AF5A051C2F20000A6
:103570004FF460220394CDE9014404730475C261E1
:10358000C0E900148460C0F81090FDF787FD20B1F9
:10359000EFF3108072B600BFFEE70920CDE9010904
:1035A00040F2C800C2F2000001A90394FDF7EAFC52
:1035B00018B1EFF3108072B6FEE740F2B8100024A5
:1035C000C2F200004FF08041FE23CDE90A44079487
:1035D000CDE90544CDE90344CDE90144472280E823
:1035E0001600C0E903348461FFF7D0F918B1EFF396
:1035F000108072B6FEE740F2B810C2F200000AA9CD
:10360000CDE90A44FEF768FD18B1EFF3108072B6F9
:10361000FEE7602001900020CDE90200059040F215
:10362000B810C2F2000001A90022FFF7AFF820B1E4
:10363000EFF3108072B600BFFEE740F2B810C2F29E
:10364000000001A90422FFF7A1F820B1EFF31080D8
:1036500072B600BFFEE740F2B810C2F2000001A946
:103660000822FFF793F820B1EFF3108072B600BF85
:10367000FEE740F2B810C2F2000001A90C22FFF7E9
:1036800085F820B1EFF3108072B600BFFEE740F27C
:10369000B8103426C2F20000C4F20006FFF708F8A2
:1036A00040F20020002106F57372C2F200004723A9
:1036B00044F61F670D91CDE90B11CDE90911CDE954
:1036C0000711CDE90511CDE90311CDE90111C0E9DB
:1036D0000023C0E9021701618161FEF73BFD20B1C3
:1036E000EFF3108072B600BFFEE74FF480500A90EF
:1036F00040F20020C2F200000AA9FEF74FFE20B1FE
:10370000EFF3108072B600BFFEE740F20020C2F275
:1037100000005746FFF73AF918B1EFF3108072B680
:10372000FEE740F200200024C2F2000008A9CDE923
:103730000844FEF7D1FC18B1EFF3108072B6FEE733
:103740006020CDE9010440F20020C2F2000001A98E
:10375000002203940594FFF719F818B1EFF31080D5
:1037600072B6FEE740F20020C2F2000001A9042276
:10377000FFF70CF818B1EFF3108072B6FEE740F2D5
:103780000020C2F20000FEF793FF40F2F800002490
:1037900007F5C051C2F200004FF4602201250394E6
:1037A000CDE9014404730475C261C0E9001484606A
:1037B0000561FDF773FC18B1EFF3108072B6FEE7F8
:1037C0000820CDE9010540F2F800C2F2000001A98D
:1037D0000394FDF7D7FB18B1EFF3108072B6FEE744
:1037E00040F27010002107F5E052C2F200000A23F7
:1037F0004FF6E855CDE90311CDE90111CDE90A11E4
:10380000C0E90023C0E90215C0E904118161FEF797
:10381000A1FC18B1EFF3108072B6FEE74FF48050B0
:10382000019040F27010C2F2000001A9FEF7B6FD4F
:1038300018B1EFF3108072B6FEE740F27010002569
:10384000C2F200000AA9CDE90A55FEF745FC18B1FD
:10385000EFF3108072B6FEE740F23849C4F2000977
:1038600040F2482009F57271C2F2000049F63F4368
:10387000CDE90355CDE90155CDE90A5548F69F42FA
:1038800080E82600C0E903358561FEF763FC18B1C6
:10389000EFF3108072B6FEE74FF48050019040F2D3
:1038A0004820C2F2000001A9FEF778FD18B1EFF33D
:1038B000108072B6FEE740F248200025C2F20000F8
:1038C0000AA9CDE90A55FEF707FC18B1EFF31080FD
:1038D00072B6FEE740F29020A7F54843C2F200001E
:1038E0004FF416510C22C0E90031C0E90255C0E97D
:1038F0000452C0E90655FFF7B7FA18B1EFF310808C
:1039000072B6FEE740F29020C2F20000006840F27A
:103910000028C168C2F2000841F02001C1604046A1
:10392000FEF7D8FC40F2B815C2F20005284608217F
:10393000FFF7B0F828460421FFF7ACF8284600212D
:103940000024FFF7A7F840460021FFF7A3F8404600
:103950000421FFF79FF840F27010C2F20000FEF75A
:10396000E9FC40F24820C2F20000FEF7E3FC40F21E
:103970007C00C2F20000FDF7F9F94EF22540CEF2CC
:103980000000102101704FF4AF70C9F8000040F240
:10399000E02940F2C80A40F2F80540F2A60B4FF0C9
:1039A0000108C2F20009C2F2000AC2F20005C2F226
:1039B000000BC6F8000440F2E420C2F200000068E8
:1039C00030B100F095F940F2E420C2F2000004604A
:1039D00040F2E220C2F200000078A8B140F2780084
:1039E000C2F20000047040F2FC20C2F20000047039
:1039F00040F2A500C2F20000047040F2E220C2F2E0
:103A0000000089F80040047040F2F820C2F2000083
:103A1000006840F6B93188420DD340F27800C2F216
:103A2000000080F8008040F2FC20C2F2000089F81B
:103A3000008080F8008040F27C00C2F2000003C8E1
:103A400040F2EC22C2F20002106040F28800C2F2A2
:103A5000000001605046FDF74DFC2846FDF74AFC8A
:103A6000FFF774FC5046FDF715FBABF80000284645
:103A7000FDF710FB40F28701C2F20001097840F225
:103A8000F822C2F200021060481EB0FA80F042092B
:103A900038464FF40051FDF715FF99F80000012852
:103AA0002AD040F2960040F29301C2F20000C2F226
:103AB00000010088097845F629424843C0F28F2268
:103AC000A0FB0202D0B2306040F29400C2F20000CB
:103AD000007841F27B42484380085043C0F347409E
:103AE000706040F29200C2F2000000784843800803
:103AF0005043C0F34740B060BBF8000040F6B93116
:103B0000884213D340F28600C2F2000080F80080A1
:103B100040F2A500C2F2000080F8008040F2780078
:103B2000C2F2000089F8008080F8008040F2E120B5
:103B3000C2F20000007878B100F022F840F2E120F3
:103B4000C2F20000047040F29020C2F2000000684F
:103B5000C16841F02001C16040F2A400C2F200003F
:103B6000007800283FF427AF40F27C00C2F200004A
:103B7000FDF7FCF840F2A400C2F2000004701AE75E
:103B8000B0B58AB040F2A805C2F2000528463C2133
:103B9000FCF7CEFC044628463E21FCF7C9FC002C6D
:103BA00018BF002801D10AB0B0BD0134002505704E
:103BB0002046FCF7EBFC40B1002500BF615D3C29CD
:103BC00003D00135A842F9D100256DB185420BD251
:103BD000611902AD2846FCF7B5FC2146FCF7F5FC5F
:103BE00020462946FCF7AEFC207841381528DAD863
:103BF000DFE800F00C120B180B0B1E0B0B0B0B0B62
:103C00000B0B0B240B2A0B420B48CCE740F2E222B1
:103C100021A1C2F200023AE040F2780226A1C2F2EB
:103C2000000234E040F2860227A1C2F200022EE038
:103C300040F287021EA1C2F2000228E040F2900288
:103C40001FA1C2F2000222E040F2930C40F2920562
:103C500040F2960240F29403C2F2000CC2F2000558
:103C60001BA1C2F20002C2F200032046CDE9005CB3
:103C7000FCF79AFB0AB0B0BD40F2E82208A1C2F2FC
:103C8000000204E040F2E42207A1C2F20002204652
:103C9000FCF78AFB0AB0B0BD412C256868750000AE
:103CA000542C256868750000562C2568687500003E
:103CB000472C256868750000422C2568687500004F
:103CC000502C256868750000442C25686875000034
:103CD000522C723D256868752C673D256868752CE7
:103CE000623D256868752C423D25686875000000B6
:103CF00040F21000C2F200000078002808BF7047B0
:103D00002DE9F04FCDB040F2EC20C2F20000006887
:103D100000F066F940F28801C2F2000109688046AD
:103D2000084600F05DF940F29004C2F200042678E3
:103D300040F27804C2F2000440F29601277840F283
:103D40008704C2F2000140F29202C2F20004B1F80C
:103D500000E0C2F2000240F2860594F800C040F292
:103D60006C1440F29E0192F8009040F29303C2F26C
:103D70000005C2F20004C2F2000140F2E822C2F2E1
:103D8000000395F800B024780978C2F2000240F2EE
:103D9000FC2593F800A0127840F2A503C2F20005BA
:103DA000C2F200032D78CDE908410AA91B782CC185
:103DB000CDE9000E02A844F2F6120DAD80E8000E27
:103DC000C0F6000228464FF480714346CDE90567EE
:103DD000CDF81CC0FCF71EFA2846FCF7D7FB82B2D0
:103DE00040F29020C2F200002946FFF721F94DB0C1
:103DF000BDE8F04F70470000F0B581B040F2E82117
:103E0000C2F200010E7840F20401C2F2000140F259
:103E1000EC200F68C2F2000040F600440568F01B79
:103E2000C4F2010400F0F8F80146284600F083F8D7
:103E3000C8B920464FF4804101220125FDF742FD1B
:103E400020464FF4005100220024FDF73BFD40F2D4
:103E50006C10C2F20000057040F29E00C2F2000039
:103E6000047001B0F0BDB81900F0D6F8014628463C
:103E700000F068F8D0B940F26C10C2F200000021E6
:103E8000017040F29E00C2F2000001210170204644
:103E90004FF480410022FDF715FD20464FF40051FC
:103EA000012201B0BDE8F040FDF70CBD20464FF403
:103EB000804100220025FDF705FD20464FF400510A
:103EC0000022FDF7FFFC40F26C10C2F2000005700A
:103ED00040F29E00C2F20000057001B0F0BD00008B
:103EE00010B500290AD00878002807D00548784482
:103EF000FCF762FE002801D0002010BD0248784483
:103F000010BD00007A0300007203000010B500F03D
:103F100033F80CBF0120002010BD10B500F02CF8C4
:103F200014BF0120002010BD10B500F0A1F88CBF17
:103F30000120002010BD10B500F09AF82CBF012020
:103F4000002010BD10B500F0C7F894BF012000207C
:103F500010BD10B500F0C0F834BF0120002010BD26
:103F6000401058BFC0F14040491058BFC1F1404116
:103F70008142EFF30080704750EA010C00F113809A
:103F80001CF5000F58BFBCF5000F01D488427047E4
:103F900007D710F5000F58BF11F5000F15D4884250
:103FA0007047894270471CF5000F04D5BCF5000F1F
:103FB000F7D5814270474FF0807C1CEB400F38BF33
:103FC0001CEB410F01D28142704710B500F0B8F8E8
:103FD000922449004FF000504FF08051FFF7C0BFCE
:103FE00041000B0ED3F19E0208D950F400034FEAB2
:103FF000032323FA02F048BF4042704710B500F097
:104000009FF800BF49922480002070476FF0004263
:1040100082EA20007047000010F0004148BF404293
:10402000B0FA80F310FA03F2C3F19D030BD051EA0A
:10403000C35101EB1220530638BF704700F1010055
:1040400008BF20F001007047B0FA80F310FA03F2C5
:10405000C3F19D030AD0D90501EB1220530638BFE6
:10406000704700F1010008BF20F001007047000018
:1040700050EA010C00F113801CF5000F58BFBCF58D
:10408000000F01D48842704707D710F5000F58BFC2
:1040900011F5000F15D488427047894270471CF50E
:1040A000000F04D5BCF5000FF7D5814270474FF0E3
:1040B000807C1CEB400F38BF1CEB410F01D28142CA
:1040C000704710B500F03CF8922449004FF0805042
:1040D0004FF00051FFF744BF50EA010C00F113808C
:1040E0001CF5000F58BFBCF5000F01D48842704783
:1040F00007D710F5000F58BF11F5000F15D48842EF
:104100007047894270471CF5000F04D5BCF5000FBD
:10411000F7D5814270474FF0807C1CEB400F38BFD1
:104120001CEB410F01D28142704710B500F008F836
:10413000922449004FF000504FF08051FFF710BF1C
:104140000EF1020E2EF0030E5EF8044B244204D44E
:104150004FEA4102B2F17F4F11D84FEA4003B3F169
:104160007F4F0CD80ED14FEAD07C0CEB4C0C0CF1ED
:10417000020CB2F17F4F08BF4CEBD17C04E04FF052
:10418000080C01E04FEAD17C0CEB4C0324FA03F459
:1041900004F00704B4F1040C06D20EEB840CBDE865
:1041A00010404CF0010C6047DFE80CF007080202F9
:1041B0004FF00040A0F5800010BD0846420018BF37
:1041C000D2F1807288BF00F0004010BD00000000F6
:1041D00000000000010203040607080900000000B7
:1041E00001020304010202030405060708090A0B81
:1041F0000C0D0E0F10104325642C4E25642C7225D7
:1042000068752C622568752C42256868752C4425D4
:104210006868752C50256868752C41256868752C70
:1042200047256868752C48256868752C4925686895
:10423000752C54256868752C5A256868752C572587
:104240006868752A0000000078430008000000201C
:1042500018000000500100089043000818000020DA
:10426000E808000070010008100100004300000091
:10427000F8FFFFFF00404040404040404040414187
:10428000414141404040404040404040404040402B
:1042900040404040400502020202020202020202C5
:1042A00002020202022020202020202020202002C2
:1042B0000202020202029090909090901010101052
:1042C00010101010101010101010101010101010EE
:1042D0000202020202028888888888880808080882
:1042E000080808080808080808080808080808084E
:1042F0000202020240000000000000000000000076
:1043000000000000000000000000000000000000AD
:10431000000000000000000000000000000000009D
:10432000000000000000000000000000000000008D
:10433000000000000000000000000000000000007D
:10434000000000000000000000000000000000006D
:10435000000000000000000000000000000000005D
:10436000000000000000000000000000000000004D
:1043700000000000000000000024F4000100000024
:104380000500000014000000010100001000000002
:04000005080000ED02
:00000001FF
