:020000040800F2
:10000000A0080020E1010008612D0008592D00081A
:100010005D2D000849150008512E00080000000061
:10002000000000000000000000000000692D000832
:100030004D15000800000000652D00086D2D00081A
:10004000FB010008FB010008FB010008FB010008A0
:10005000FB010008FB010008FB010008FB01000890
:10006000FB010008FB010008FB010008FB01000880
:10007000FB010008FB010008FB010008FB01000870
:10008000FB010008FB010008FB010008FB01000860
:10009000FB010008FB010008FB010008FB01000850
:1000A000FB010008FB010008FB010008FB01000840
:1000B000FB010008FB010008FB010008FB01000830
:1000C000FB010008FB010008FB010008FB01000820
:1000D000FB010008752D0008FB010008FB0100086A
:1000E000FB010008FB010008FB01000800F002F81A
:1000F00000F066F814A696E8000CB244B344DA4562
:1001000001D100F05DF8BAE80F000FA696E83000C4
:10011000A5EB040504EB0607AAEB0704A7F101070A
:100120004FEA15154FEA3414A4F10104AC4201D38F
:1001300000F046F813F0010F18BFFB1A43F001035B
:1001400000F001F8DBE718471833000038330000EF
:10015000103A24BF78C878C1FAD8520724BF30C8F3
:1001600030C144BF04680C60704700007047000055
:100170000023002400250026103A28BF78C1FBD8B0
:10018000520728BF30C148BF0B607047642900F098
:100190008780002070471FB59DE8030001F06EF8CE
:1001A00001F050F804000020002103F0B5F8401CD5
:1001B000606000F095FD1FBD10B500F0FAFD10BDA8
:1001C00000F05DFE1146FFF7E6FF02F043FE01F08E
:1001D0001FF803B4FFF7F0FF03BC01F021F90000A2
:1001E0000948804709480047FEE7FEE7FEE7FEE7CB
:1001F000FEE7FEE7FEE7FEE7FEE7FEE70448054907
:10020000054A064B70470000712D0008ED000008FC
:10021000A0020020A0080020A0040020A0040020CC
:100220000FB4044910B503AA029800F031FA10BCCB
:100230005DF814FB6C0000202DE9F0410E460446E9
:10024000002020622046E168884730B3252805D089
:10025000D4E901219047206A401CF2E7E16820467A
:1002600000278847050018D0A5F14100192802D8B9
:1002700020354FF400673246294620462760FFF7B5
:1002800085FF40B1012804D0F61D26F00706083688
:10029000D8E7361DD6E72846DAE7206ABDE8F081C0
:1002A0002DE9F0410646002410687529314616A54F
:1002B00010D0AFF30080002802DA404213A507E017
:1002C00031688A0701D512A502E0490704D511A5B6
:1002D000012401E0AFF3008000210A2206F1240787
:1002E00009E0B0FBF2FCB0FBF2F302FB1C00303083
:1002F00078541846491C0028F3D123462A46304634
:10030000BDE8F04100F06BB9000000002D000000D6
:100310002B000000200000000FB400B58DB010A924
:10032000099000910B904FF0FF300A9000200C9044
:10033000064878440690064878446A4607900F9924
:1003400009A800F0CBF90DB05DF814FBC70300005D
:10035000DF0300002DE9FF5F1D464FF0FF3B914694
:100360004FF000085F46D5E90146A96901987F1C56
:100370008847296A824688470028F6D1BAF1FF3FAC
:100380000CD0002E24F4C06419DD600614D5BAF137
:100390002B0F09D0BAF12D0F0ED103E0584604B04F
:1003A000BDE8F09F44F48064A96901987F1C8847E8
:1003B000761E8246002E02DDBAF1300F03D0B9F16D
:1003C000000F26D032E0A969761E01987F1C44F404
:1003D00000748847002E824605DDBAF1780F06D0FA
:1003E000BAF1580F03D0B9F1000F10D01EE0B9F1E7
:1003F000000F02D0B9F1100F18D1A969761E01982B
:100400007F1C24F4007488478246102002E00820F4
:1004100000E00A20814609E0A96908FB0908761E68
:1004200001987F1C44F4007488478246002E05DD45
:100430004946504600F03EF90028EDDAE969019896
:100440008847A00502D46FF00100A8E7E00725D196
:10045000600613D5600502D5C8F1000000E04046F3
:1004600029680A1D2A600968220501D5087015E06F
:10047000220701D5088011E008600FE02868011DFF
:1004800029600068210502D580F8008006E0210778
:1004900002D5A0F8008001E0C0F8008038467EE771
:1004A00010B5044603E002F028FF401C09D014F800
:1004B000010B05490028F6D1BDE810400A2002F0E2
:1004C0001CBF4FF0FF3010BD6C00002010B5431C66
:1004D00002E010F8011B71B18107FAD14FF001322F
:1004E00002C88C1A8C4314EAC211F9D0C01A0A0649
:1004F00003D0C01E10BDC01A10BD0A0401D0801E5A
:1005000010BD0902FCD0401E10BD4FF0000200B526
:10051000134694469646203922BFA0E80C50A0E826
:100520000C50B1F12001BFF4F7AF090728BFA0E8D4
:100530000C5048BF0CC05DF804EB890028BF40F8A0
:10054000042B08BF704748BF20F8022B11F0804FE2
:1005500018BF00F8012B70474FF0013C50F8042BF6
:1005600051F8043B9A4221D1A2EB0C03934313EAC6
:10057000CC1317D150F8042B51F8043B9A4215D1F3
:10058000A2EB0C03934313EACC130BD150F8042BCA
:1005900051F8043B9A4209D1A2EB0C03934313EAAE
:1005A000CC13DBD04FF00000704700BFD01A01BA67
:1005B000B1FA81F101F0180122FA01F0CB40DBB26F
:1005C000C0B2C01AC1F120012CFA01F3D11A914333
:1005D00011EAC311E6D170477047704770472DE9A3
:1005E000F0470D4699469246044600F124080168FA
:1005F000880604D5E06921F01001216000E00120A7
:10060000A84201DD471B00E00027A1697A1902EB2F
:100610000900081AA0612078C00602D42046AFF372
:100620000080002608E0D4E901211AF8060090476E
:10063000206A401C761C20624E45F4DB2078C00600
:100640000AD52046AFF3008006E0D4E9012130202E
:100650009047206A401C2062381EA7F10107F4DC95
:1006600007E0D4E9012118F805009047206A401CF2
:100670002062281EA5F10105F3DC2046AFF30080BF
:100680002078000602D50220BDE8F0870120FBE7B4
:10069000074B70B50D467B4400F05FF804462846D2
:1006A00000F028FA10B14FF0FF3070BD204670BD49
:1006B000612C00003A2800D2303820F02002412A74
:1006C00001D3A2F13700884201D34FF0FF307047C9
:1006D000026811441378016018467047D1600549DB
:1006E0007944516104497944116200211161114634
:1006F00000F046B8EDFFFFFF53000000426842B132
:10070000016811F8013B23B1521EC0E900121846DE
:1007100070470121C160881E704742685AB1C368A2
:10072000016843B983688B4205D0491E521CC0E959
:100730000012002070474FF0FF30704710B504469C
:1007400000F0C2FB0068005D00F0010010BD000079
:1007500001694A1C02610878704700B58FB0CDE985
:1007600001310021059105497944CDE90310114675
:100770006846FFF761FD0FB000BD0000E5FFFFFF19
:100780002DE9F34F4FF0000A0C4656468DB001207C
:100790000C9001F10C000B9062690B9801219047BD
:1007A000051E2DD0252D2CD0216A8847C0B1626945
:1007B0000B9801219047216A88470028F7D1626988
:1007C000411E0B98904700E0761CA1690D98884760
:1007D000216A88470028F7D1E1690D988847DBE74F
:1007E000A1690D988847A842074601D1761CD3E736
:1007F000E1690D9888477F1C02D1BAF1000F6FD0D4
:100800006BE162690B9800273D46394690472A28DC
:1008100004D162690B98012190470125DFF8D0824D
:1008200062690B9801219047A0F130010A290AD290
:100830004745E5DC07EB870100EB4107303FDFD49C
:1008400045F01005ECE7E90601D46FF000476C288D
:100850000AD04C2814D0682815D06A280DD07428E6
:100860001CD07A281AD01DE062690B9801219047AC
:100870006C2802D045F0040514E045F002050DE0B7
:1008800045F020050AE062690B980121904768282D
:1008900002D045F0080505E045F4006562690B9853
:1008A00001219047C4E9015765283DD019DC58283B
:1008B0007AD00CDC452837D004DC252826D0412806
:1008C0009ED131E046282FD0472899D12CE05B28D3
:1008D00077D0612828D063287CD0642823D15AE0BF
:1008E000F6E06F2848D008DC66281DD067281BD0AA
:1008F000692821D06E2816D127E0702845D07328AA
:1009000068D0752847D078280DD14DE0A1690D98A1
:100910008847252805463FF469AFE1690D98884767
:100920006D1C3FF46AAFD8E00D9923466A466FF01C
:100930000100AFF30080C5E045F0400023464FF0D2
:1009400000026060A80736D43EE0E8077FF447AFB6
:100950002068011D21600068290501D506701BE78C
:10096000290701D5068017E7A90703D5F117C0E9C4
:10097000006111E706600FE745F0400023464FF0A5
:1009800008026060A80716D41EE040F60E0125EAB2
:100990000100606016E045F0400023464FF00A0277
:1009A0006060A80707D40FE045F040006060A8072A
:1009B00008D5234610220D996FF00100AFF3008097
:1009C00080E007E0102223460D996FF00100FFF749
:1009D000C1FC77E04FF0000963284F46C8464B46FC
:1009E000CB4602D05B2806D038E0E80601D40120CF
:1009F000A060012732E06269D4F80CB00B980121A5
:100A000090475E2807D14FF0010949466269D4F842
:100A10000CB00B989047216939B900210A4603AB05
:100A200043F82120491C0829FADBD8B3216949B3CE
:100A300008F1010862690B98012190475D28F4D103
:100A4000B9F1000F09D0002003A951F82020D243AA
:100A500041F82020401C0828F7DB03AB2069002860
:100A600020794FEA40701ED05B462246CDF80080C8
:100A7000CDE901970D9900286FF0010020DAAFF35E
:100A800000801FE0C11703AA00EBD1614B1121F0D8
:100A90001F0102EB8302411A1368012088400343BF
:100AA0001360C7E719E00D99224600286FF0010096
:100AB000009702DAAFF3008004E0AFF3008001E0BA
:100AC000AFF3008000280ADA401C06D10C9820B150
:100AD0004FF0FF300FB0BDE8F08F5046FAE7E9075E
:100AE00001D10AF1010A064400200C9054E60000EE
:100AF000CCCCCC0C007B00F0800070472DE9F05F7F
:100B0000054617460C46C86820F4201040F48000C3
:100B1000C860800602D5084600F0BBFAE06841F2E2
:100B200082014FF0FF3A0140022903D0204600F035
:100B30004DFAB9E000F42041B1F5004F0FD1C003E8
:100B400006D56168E06A884200D80846606006E021
:100B50002069E0626060606900F08BF9A061A068C4
:100B60000022EEB200280DDAE1688B050AD4C043FA
:100B7000A06041F490302260E0606068411C6160D8
:100B80000670AAE0E0689146226040F40050E06000
:100B9000206978BB606900F05EF904F124054FF02C
:100BA0000108A8B1A08910F4407F08D0E06900F0E6
:100BB00093F9206118B1E06840F4006017E0C4F8D0
:100BC0001C802561E06820F4407040F480600EE0F5
:100BD000E06900F081F900282061F0D0E06840F47D
:100BE000006010F4407FE06002D140F48070E0606B
:100BF00020696060E06825696FF0010BC1051ED5B2
:100C00006168E06A884200D80846411B04D0224649
:100C1000284600F0E5F9E8BB1FB1E562C4E90159D7
:100C200059E0681CE0626060E069401EA060E06816
:100C300040F48030E06030462E70BDE8F09F17B180
:100C400000F480320AE06068411C61600670E06870
:100C50000A2E40F48030E06006D00022E16A60682D
:100C6000814203D90B4602E00122F7E70346B4F8BC
:100C70000CC05B1B5FEA4C5C04D4D4F81CC09C45E0
:100C800000DD02B3814200D80146002BA1EB000831
:100C9000E56200E008E0C4E9015907DD2246194693
:100CA000284600F09DF908B15046C6E7B8F1000F9C
:100CB00009D0A169E5626560A1EB0800A061E06868
:100CC00040F01000E06047B16168A069E562491B2F
:100CD00008446560A0615846AFE73046ADE70000C4
:100CE00010B542485421FFF710FC41485421FFF74A
:100CF0000CFC40485421FFF708FC3F493B483C4A64
:100D00003F4B08603D490A603A491960531C03652E
:100D1000481C1065012008653B48344A39A17844D5
:100D200000F0D8F920B9384878440A3800F079FA48
:100D300037482F4A35A1784400F0CCF920B934481F
:100D400078440A3800F06DFA32482A4A2FA17844D4
:100D500000F0C0F920B92F4878440A3800F061FA51
:100D600040232248DC000021224600F00BF920B18C
:100D700025487844543800F054FA1D482246402350
:100D8000002100F0FFF820B121487844543800F0E9
:100D900048FA184822461023002100F0F3F80028F2
:100DA00006D01C487844BDE81040563800F039BAE7
:100DB00010BD104870B5006D20F001040B4800F024
:100DC00001FA0B4800F0FEF90A4800F0FBF909E0CF
:100DD000206D20F00105204600F0F4F9204600F0D7
:100DE000AAF82C46002CF3D170BD0000180000209A
:100DF0006C000020C0000020000000200400002043
:100E00000800002072000000222600007700000089
:100E10000E260000FA2500000EB5CDE90001FFF70F
:100E200055FB029069460120ABBE0EBD08B5694670
:100E300000900220ABBE08BD1FB58DE807006946D3
:100E40000520ABBE04B010BD1FB58DE80F0069468C
:100E50000620ABBEF6E708B5694600900920ABBE98
:100E600008BD1CB5CDE9000169460A20ABBE1CBD1A
:100E7000704708B5694600900C20ABBE08BD7546AA
:100E800000F0D6F9AE4605006946534620F007004B
:100E9000854618B020B5FFF7B1F9BDE820404FF006
:100EA00000064FF000074FF000084FF0000BAC4673
:100EB000ACE8C009ACE8C009ACE8C009ACE8C009BE
:100EC00021F007018D46704710B500F0BBF9001DF9
:100ED00010BD00BF4524000070B5064600F0AEF915
:100EE000056806F10B0020F00704B4429CBF002007
:100EF00070BD2B466A68BAB11068A04210D304F1E5
:100F0000080188423CBF5068586007D351681019E7
:100F100041601168091B016058601460101D70BDAC
:100F200013465268002AE7D12146284600F092F97C
:100F30000028DED170BD70B50446051F00F07EF9B3
:100F40000068002C14BF446870BD002C18BFAC4270
:100F50003CBF20466468F8D301680A18AA4218BF4B
:100F6000456003D12A68054611440160286841198B
:100F7000A1421CBF6C6070BD616869602168084453
:100F8000286070BD70B5C468A50713D0650211D480
:100F9000B2F5807F09D0B2F5007F06D0B2F5806F40
:100FA00008D1012300F1240106E05D1E6FF07F46A9
:100FB000B54201D3012070BD0161C361416024F4D9
:100FC00070611143C160002070BD0000C16821F450
:100FD000001141F08001C160002181600160704713
:100FE0002DE9F74F15460C464FF0FF3B3848D768C0
:100FF000D2F814A0074209D05046A969FFF731FF83
:10100000002819DB3248C0430740EF604FF0004929
:101010006FF000484C4501D3464600E02646009953
:101020003B4650463246FFF707FFA96920F00042D1
:10103000B21A1144A96128B12846FFF7C7FF5846E4
:10104000BDE8FE8FA41BE5D10020F9E770B504468A
:101050000569C06A6168884200D80846E16821F4E1
:101060002011E160C90312D5A84208D02246411BD5
:101070002846FFF7B5FF10B14FF0FF3070BD0020DC
:10108000E562C4E90150E06820F48030E0600020AF
:1010900070BD10B50446C06820F02000E060A16A71
:1010A000A06988420DD02046FFF7D0FFE06820F409
:1010B000405040F01000E060A06AA0612069E0624A
:1010C000606044F24001E0688843E06010BD0000C9
:1010D000100002002DE9F0410C461646070047D0EB
:1010E000104600F06FF82078611C61280AD0722841
:1010F00002D077283CD102E00125002405E002253A
:10110000042402E0082448F2020511F8010B2B2800
:1011100006D0622809D011F8010C74280AD00BE01F
:1011200045F0030544F00204EFE745F0040544F000
:101130000104EAE744F0100438462146FFF76CFE4C
:10114000411C15D00021316171604FF40071F560D0
:10115000F1617061200704D530460222002100F0C1
:10116000C3F8306D40F0010030653046BDE8F081D5
:101170000020FBE72DE9F0410D460646104C206D9E
:10118000C10704D0410804D020F00104F7E722464B
:101190000EE05420FFF7A0FE07000ED0206D47F0B0
:1011A00001010843542120653846FFF7AEF93A465D
:1011B00029463046BDE8F0418CE70020D6E7000024
:1011C000180000202DE9F04704464FF0FF380026B4
:1011D000C568D4E90497A80718D02046FFF736FF62
:1011E0003846FFF723FE002800DA4646280502D5D8
:1011F0004846FFF7A0FE4C212046FFF786F9206DF8
:1012000020F0010020653046BDE8F0874046FBE74E
:1012100010B50446AFF300802046BDE81040FEF74D
:10122000D8BF10B500F0E2F8BDE8104000F0D8B823
:1012300000487047140100207047000000487047C4
:101240001C0100200048704734010020704770479F
:101250007047704738B504460A4600206946AFF328
:101260000080002808BF38BD02460099204600F0E3
:10127000DDF8012038BD012000F02CB9F8B5AFF33E
:101280000080054600200C460C2000BF0646A81929
:10129000A0420DD9324669460020AFF30080070016
:1012A00008BF00F017F90098A04218BF0546C419FE
:1012B000FFF7C4FF05600746F01D20F00700461940
:1012C000284600F00AF8B44208BFF8BDA21B314618
:1012D0003868BDE8F84000F0A9B80021016041601D
:1012E00070470C20704700002DE9F0410446164677
:1012F0000D464769007B80072ED03846FFF7ABFDCF
:1013000050BB3EB3012E02D0022E25D104E0204670
:1013100000F0A6F805441DE03846FFF7AAFDE16895
:10132000002841F01001E16005DA2046FFF74EFE8B
:101330000120BDE8F081C9030BD56268E16A9142E2
:1013400000D81146A26911442269891A814200DD40
:1013500008460544002D01DA0220EAE7E16A6068E8
:10136000E268814206D29103E06203D522F40031A3
:1013700041F01002A6690027AE4213DCE16A814207
:1013800001D90B4600E0034603EB060C2369ACEBE6
:10139000030CAC4506DD814201D98C4600E0844651
:1013A0009C4505D1A760276042F02000A5620DE0B2
:1013B000AD1BE669AE1B8142A66000D90846C01A83
:1013C000281A20605819606022F020000349084064
:1013D000E060002084F84870ABE70000BFCFD7FF83
:1013E000002801D000F01CB87047000010B501467D
:1013F00002A000F056F8012010BD000053494752EA
:10140000545245443A2052656469726563743A20C7
:1014100063616E2774206F70656E3A2000000000D3
:1014200001491820ABBEFEE72600020003464068D3
:101430008C46002818BF88423CBF03464068F8D35A
:1014400018681844884207D00CF1030020F0070008
:10145000001D411A521A0146081D0A60FFF76BBDB4
:1014600010B50146C268900703D0900607D5886A78
:101470000AE000F03DF801210160881E10BD8B6973
:10148000486818440B69C01A91F848301BB191F8AC
:101490004910401A10BD1103FCD50028FADD401E8A
:1014A00010BD70B505460C460A2000E06D1C00F02A
:1014B00018F835B128780028F8D102E0641C00F053
:1014C00010F814B120780028F8D1BDE870400A2047
:1014D00000F007B810B500F00FF8BDE81040FFF7B6
:1014E0007FBF08B569468DF800000320ABBE08BD7C
:1014F000004870471401002010B5012805D00021D4
:1015000003A0FFF7CEFF012010BD09A1F8E70000FE
:1015100053494752544D454D3A204F7574206F66DC
:101520002068656170206D656D6F72790000000044
:101530003A2048656170206D656D6F727920636F28
:101540007272757074656400FEE7000070470000F9
:1015500010B581B00022009290F82420012A03D116
:101560000221084601B010BD4B680122062B80F80D
:10157000242033D8D0F800C003EB83035A1F1F2365
:10158000DCF834E003FA02F40B682EEA040403FAF0
:1015900002F22243CCF83420092B03EB430249D951
:1015A000DCF80CE01E3A0724896894402EEA040413
:1015B000914023F001022143102ACCF80C1043D1B2
:1015C00042F20841C4F20101A1F10802944543D05E
:1015D000816A41F020018162012136E0D0F800C02B
:1015E0000C2B03EB830213D8233A1F23DCF830E0E3
:1015F00003FA02F40B682EEA040403FA02F222430F
:10160000CCF83020092B03EB4302C9D812E000BF0D
:10161000413A1F23DCF82CE003FA02F40B682EEAAF
:10162000040403FA02F22243CCF82C20092B03EB2A
:101630004302B5D8DCF81030072489689440A343EE
:1016400091401943CCF810100021002280F824208A
:10165000084601B010BD00BF0A681202F4D40A683F
:10166000102B42F400020A60EED140F21401C2F2E3
:10167000000109684DF68362C4F21B32A1FB02121D
:10168000910C01EB81014900009100990029DBD008
:1016900000990139009100990029D5D000990139AC
:1016A000009100990029CFD000990139009100994B
:1016B0000029C9D0009901390091009900294FF003
:1016C0000001E5D1C1E70000002804BF01207047F8
:1016D000B0B50446806A28B121688868C0070CD17B
:1016E00015E000BF0020E06284F82400204600F0EE
:1016F0009BF821688868C00709D0886820F001003D
:10170000886000F02BFA21688A68D20726D1A06A87
:10171000C0063AD4A06A41F2021290430230A0629D
:10172000E069D4E9013240EA030C531EB3FA83F3B3
:101730005D091346B2F5807F18BF2B02207D257B03
:1017400001284CEA450030D135B3A56A45F02005A3
:10175000A562E56A45F00105E56226E0054602E07E
:101760008868C007D3D000F0F9F9401B216803282E
:10177000F6D38868C007F3D0A06A40F01000A062DA
:10178000E06A40F00100E062A06AA06A40F0100048
:10179000A0620120B0BD00BFD4F818C04EF600050D
:1017A000CFF6FF7505EB4C352B434D68B2F5807FC6
:1017B00025F4694543EA05034B608B684FF2FD75DC
:1017C000CFF6E17503EA050343EA00038B6001D01D
:1017D000012A07D122690023CFF6F07303EB0252EE
:1017E00001E000BF0022CB6A23F470031A43CA62EF
:1017F000896840F6FE62CFF61F721140814207D120
:101800000020E062A16A012262F30101A162B0BD81
:10181000A06A40F0100020F00200A062E06A40F0F0
:101820000100E0620120B0BD80B586B0014640F6FF
:101830000040C4F20100096800F5C05291424FF027
:101840000001CDE9041101D006B080BD41F21801BC
:10185000C4F202010A6842F400720A600A6802F4E3
:1018600000720192019A0A6842F008020A6009684F
:1018700001F00801019101990221029103210391D4
:1018800002A900F05DF806B080BD000090F82110BC
:10189000022923D10268116821F00E0111602F2165
:1018A0001368C4F202018A4240F20401C4F2020148
:1018B00023F00103136015DD3023C4F202039A42C2
:1018C0001CD04423C4F202039A421BD05823C4F212
:1018D00002039A421CD14FF4803321E0042181633A
:1018E000012070470823C4F202039A420ED01C2341
:1018F000C4F202039A420BD1102311E04FF480731B
:101900000EE000BF4FF480530AE000BF012307E060
:1019100001F1680C4FF08073624508BF4FF48013EB
:101920000B60012180F82110426B002180F820100B
:1019300022B180B590470021BDE88040084670473D
:101940002DE9F04F82B00E68002E00F0FD8041F2CC
:101950000042C4F20102042340F2004E904208BF4C
:1019600003234FF6FF7CC4F2010E009300240123F1
:10197000C1F2100C4FF0000A4FF0000944E000BF24
:10198000012704F00C030F229A402BEA020207FA07
:1019900003F34FEA9A051A4346F825204E6840F2B1
:1019A0000C45F202DEF8082054BF22EA080242EA9F
:1019B0000802C4F20105CEF808202A68B30254BF19
:1019C00022EA080242EA08022A60B303DEF8042091
:1019D00054BF22EA080242EA0802F303CEF80420C8
:1019E000DEF800204FF0010354BF22EA080242EA69
:1019F0000802CEF800200E680AF1010A36FA0AF24F
:101A000004F1040400F0A08003FA0AFB16EA0B08B4
:101A1000F1D04E68664511DC122E55D8DFE806F08D
:101A2000340A4448545454545454545454545454FC
:101A3000544C5000D1F80C9046E000BF4FF6FF72B6
:101A4000C1F2210296420FDC0022C1F2110296423D
:101A50001AD00022C1F21202964215D00022C1F221
:101A60002102964210D02FE00022C1F222029642BB
:101A70000AD00022C1F23102964205D00022C1F202
:101A80003202964220D100BF8A684AB1012A14BFAF
:101A9000C0F814B0C0F810B04FF0080914E000BF4F
:101AA0004FF0040910E000BFCA6802F108090BE01A
:101AB0004FF0000908E000BFCA6802F1040903E022
:101AC000CA6802F10C0900BF22460646B8F5807FBD
:101AD00024BF203A043637680F25954027EA0505CC
:101AE00009FA02F22A433260CA79D2067FF583AF3F
:101AF00041F21803C4F202031A68AEF57E7642F092
:101B000001021A601A6802F001020192019A2AF099
:101B1000030256F802B040F60002C4F201029042FD
:101B200010D040F60042C4F2010290423FF428AFC8
:101B300041F20002C4F20102009F904208BF022756
:101B40001FE700BF00271CE702B0BDE8F08F0000D0
:101B5000002A08BF090401617047000040F2982084
:101B6000C2F200000068704740F20C0040F2982179
:101B7000C2F20000C2F2000100780A681044086056
:101B80007047000080B542F20000C4F20200016814
:101B900041F010010160032000F08CF80F2000F0EC
:101BA00005F800F027F8002080BD000070B540F275
:101BB0000C06C2F2000640F214013278C2F20001B3
:101BC0004FF47A730968B3FBF2F20446B1FBF2F109
:101BD000084600F00BFC0F2C4FF0010508D838B96F
:101BE0004FF0FF3021460022002500F037F87460E6
:101BF000284670BD82B041F21800C4F202000168AC
:101C0000022241F001010160016801F0010101912E
:101C10000199416841F080514160406800F0805076
:101C2000009000980420C4F20100016862F31A6178
:101C3000016002B070470000002848BF704700F004
:101C40001F01012202FA01F11C2202EAD0004EF229
:101C50000012CEF2000281507047000010B54EF61F
:101C60000C5CCEF2000CDCF80030C3F3022E8EF0D8
:101C70000704042C28BF0424BEF103034FF0FF3EE9
:101C80000EFA04F438BF0023A14399400EFA03F37F
:101C90009A43114300F00F0200F160430901043A36
:101CA00003F564436244002848BF02F10C03197035
:101CB00010BD00004EF60C51CEF200010A684FF63E
:101CC000FF031A4060F30A2242F0806040F0FD708A
:101CD000086070472DE9F04182B00446007841F277
:101CE0001C06C007C4F202064AD030685FEAC0088A
:101CF00008D4306840F080503060306800F0805088
:101D00000190019847F20007C4F200073868C00547
:101D100012D4386840F480703860FFF71FFF054622
:101D20003868C00508D4FFF719FF401B6428F7D9AD
:101D3000032002B0BDE8F081706810F4407012D04A
:101D4000616801F4407188420DD0706840F24042F1
:101D5000C4F24222012320F4407113600023C00723
:101D60001360716026D17068616820F44070084388
:101D7000B8F1000F706003D4306820F080503060FC
:101D80002068810707D556F8181CA26821F4404145
:101D9000114346F8181CC00607D556F8180CE16820
:101DA00020F48000084346F8180C002002B0BDE87B
:101DB000F08100BFFFF7D2FE054641F2883700BF31
:101DC00070688007CFD4FFF7C9FE401BB8424FF0C0
:101DD0000300F5D9EAE70000002804BF012070479E
:101DE0002DE9F04381B042F20008C4F20208044633
:101DF000D8F800000D4600F0070088420CD2D8F851
:101E0000000020F007002843C8F80000D8F80000C0
:101E100000F00700A8426CD1206841F20409810754
:101E2000C4F2020917D5410705D5D9F8001041F4CD
:101E3000E061C9F80010010705D5D9F8001041F498
:101E40006051C9F80010D9F80010A26821F0F00123
:101E50001143C9F80010C00742D1D8F8000000F0C3
:101E60000700A8420CD9D8F8000020F0070028434A
:101E7000C8F80000D8F8000000F00700A84238D1E8
:101E80002068410707D5D9F80010E26821F4E06125
:101E90001143C9F80010000708D5D9F800002169DE
:101EA00020F4605040EAC100C9F80000D9F80020D1
:101EB00002F00C00082841F20020C0F27A0051D153
:101EC00043F26A33C2F38341C0F60003595CD20384
:101ED0003CD440F60010C0F23D00484342E000BF51
:101EE000606802280AD001282AD159F8041C890305
:101EF00008D4012001B0BDE8F08300BF59F8041CEC
:101F00008901F6D5D9F8001021F003010843C9F87A
:101F10000000FFF723FE064641F28837D9F800009B
:101F2000616800F00C00B0EB810F96D0FFF716FE51
:101F3000801BB842F2D9032001B0BDE8F08300BF96
:101F400059F8041C8907D4D5DCE700BFD9F8002074
:101F500043F26833C2F34042C0F600039A5C484340
:101F6000B0FBF2F0D9F8001043F25032C1F3031184
:101F7000C0F60002515C40F2140220FA01F140F276
:101F80001000C2F200000068C2F200021160FFF708
:101F90000DFE002001B0BDE8F083000040F2140007
:101FA00041F20401C2F20000C4F2020100680968B3
:101FB00043F26032C1F30221C0F60002515CC84016
:101FC0007047000040F2140041F20401C2F2000028
:101FD000C4F202010068096843F26032C1F3C22111
:101FE000C0F60002515CC84070470000002804BFE2
:101FF000012070472DE9F04182B00446007841F29B
:102000000006C007C4F202060CD0706800F00C0095
:10201000042840F081803068800303D56068002880
:1020200000F04E81207880071BD5706810F00C0FEF
:1020300009D0706800F00C00082840F08B807068B0
:10204000C00300F187803068800703D5206901282C
:1020500040F036813068616920F0F80040EAC10044
:1020600030602078000713D4207840072CD4E5692D
:10207000002D00F02081706800F00C00082840F06E
:10208000AF80012D40F00C81012002B0BDE8F0814D
:10209000A069002800F08C800020C4F242200121B9
:1020A000C0F88014FFF75AFD054600BF706A80072C
:1020B00000F1BA80FFF752FD401B0228F6D9032039
:1020C00002B0BDE8F08100BFF0695FEAC00808D443
:1020D000F06940F08050F061F06900F080500090AD
:1020E000009847F20007C4F200073868C0054DD4D5
:1020F000386840F480703860FFF730FD054600BF57
:102100003868C00542D4FFF729FD401B6428F7D981
:10211000032002B0BDE8F081706800F00C000828D0
:1021200003D17068C0033FF576AF6068002800F007
:102130000981B0F5A02F00F01D81B0F5803F00F0BF
:102140001D81306820F480303060306820F48020B9
:1021500017E100BF2069002840F20000C4F24220CD
:1021600000F08C8001210160FFF7F8FC054600BFFC
:10217000306880073FF56EAFFFF7F0FC401B022888
:10218000F6D9032002B0BDE8F08100BFE068002866
:1021900000F09A80052800F0B180012800F0B2809C
:1021A000306A20F001003062306A20F00400ACE0B8
:1021B0000020C4F242200021C0F88014FFF7CEFCBA
:1021C000054600BF706A80077FF54EAFFFF7C6FC7B
:1021D000401B0228F6D9032002B0BDE8F08100BF01
:1021E0000027C4F2422700203866FFF7B7FC022D13
:1021F00005460DD13068800140F1D680FFF7AEFC76
:10220000401B02284FF00300F4D902B0BDE8F08172
:10221000306880014FD5FFF7A1FC401B02284FF02A
:102220000300F5D9F1E700BF40F21400C2F200004C
:10223000006844F6D351C1F26201A0FB0101480AD3
:10224000019000BF00BF0198411E002801913FF49A
:102250000BAF00BF0198411E002801913FF404AF6D
:1022600000BF0198411E002801913FF4FDAE00BF60
:102270000198411E00280191E4D1F5E6002101609A
:10228000FFF76CFC054600BF306880077FF5E9AEBC
:10229000FFF764FC401B02284FF00300F4D9B4E7B9
:1022A0007068216A00F480328A4209D1616A00F4C0
:1022B0007010884204D1002002B0BDE8F08100BF58
:1022C000012002B0BDE8F081306A20F001003062E8
:1022D000306A20F004003062FFF740FC054641F20E
:1022E000883700BF306A800722D5FFF737FC401BD4
:1022F000B8424FF00300F5D987E700BF306A40F0DD
:1023000004003062306A40F001003062FFF726FCC2
:10231000054641F2883700BF306A800708D4FFF7CE
:102320001DFC401BB842F7D9032002B0BDE8F08184
:10233000B8F1000F3FF59BAEF06920F08050F061DE
:1023400095E600BF306820F480303060306820F4BB
:1023500080203060FFF702FC054600BF3068800334
:102360007FF560AEFFF7FAFB401B64284FF00300D7
:10237000F4D94AE7306840F480203060306840F497
:1023800080303060FFF7EAFB054600BF306880030D
:102390003FF548AEFFF7E2FB401B6428F6D9032067
:1023A00002B0BDE8F08100BF206AB0F5803F05D1E2
:1023B0007168A26821F40031114371607168626A2A
:1023C00021F4741111430843706001203866FFF74F
:1023D000C5FB0446306880013FF56DAFFFF7BEFBDB
:1023E000001B02284FF00300F4D90EE7411E002025
:1023F000B0EB116F1CBF012070474EF21002CEF2FD
:10240000000251604EF62351CEF20001F0230B7012
:10241000072190601160704790F83C20012A4FF02E
:10242000020236D010B580F83D200268D2F804E0F0
:10243000D2F808C00C682EF07003234340F2FF74FA
:10244000C4F20004A24253600ADCB2F1804F13D000
:1024500040F20043C4F200039A420DD011E000BFE5
:1024600042F60043C4F201039A4205D040F600034D
:10247000C4F200039A4204D149682CF08003194346
:1024800091600121002280F83D1080F83C20BDE8D9
:10249000104010467047000070B586B0006840F2EA
:1024A0000041C4F2000188424FF00001CDE904115F
:1024B000CDE9021140D0B0F1804F56D141F2180061
:1024C000C4F20200016840F6000441F0040101601A
:1024D0000168C4F2010401F004010191019901684D
:1024E00002AD41F0080101600068022600F008001A
:1024F0000190019848F20C0002902046294603966C
:102500000596FFF71DFA0820CDE9020604F5806064
:1025100029460596FFF714FA0420C4F20100016869
:102520004FF6FF42CFF6FF02114041F0E06141F467
:102530008071016006B070BD41F21800C4F2020063
:10254000016841F004010160006802A900F0040084
:1025500001900198C020029002200390059040F65F
:102560000000C4F20100FFF7EBF906B070BD0000F7
:1025700090F83C30012B04BF022070474FEAB202B2
:10258000032A3DD82DE9F043DFE802F002407CB693
:10259000036842F600461D6A1A6AC4F2010622F078
:1025A00001021A621A465C6852F818CFB3428E686C
:1025B000D1F800E025F0020545EA06050CD1CE6809
:1025C000D1E9057824F4407425F00C0526F00406C2
:1025D0003C43354344EA08042CF0730747EA0E07EE
:1025E0005C609F614F6809695F631D629F6947F086
:1025F00008079F619F6927F004079F61ACE000BF57
:102600000121002280F83C2008467047036842F60A
:1026100000461D6A1A6AC4F2010622F010021A620C
:102620001A46D3F804C052F8184FB3428E68D1F856
:1026300000E025F0200545EA06150FD1CE68D1E966
:1026400005986FF0400725F0C00507EA06163543E8
:102650002CF4406748EA090647EA860C24F4E6446D
:1026600044EA0E27C3F804C09F614F6809699F635D
:102670001D629F6947F400679F619F6927F4806727
:102680009F6168E0036842F600461D6A1A6AC4F258
:10269000010622F480721A621A46D3F804C052F876
:1026A0001CEFB3428E680C6825F4007545EA0625D8
:1026B0000FD1CE68D1E90598360240F2FF4725F4E4
:1026C0004065BE4335432CF4405748EA090647EAC3
:1026D000061C2EF073072743C3F804C0DF614F6860
:1026E0000969DF631D62DF6947F00807DF61DF69A1
:1026F00027F00407DF612FE0036842F60047D3F8B4
:1027000020C01A6AC4F2010722F480521A621A46E3
:102710005C6852F81C5FD1F800E08E68BB4204D1BF
:102720004F6924F4804444EA87142CF4005747EAA4
:10273000063725F4E64646EA0E265C60DE614E6802
:1027400009691E641F62DF6947F40067DF61DF69A2
:1027500027F48067DF6109021368194311600021C3
:10276000BDE8F043002280F83C2008467047000096
:10277000002804BF0120704710B5044690F83D00C2
:1027800028B9002084F83C00204600F067F80220B9
:1027900084F83D00206840F2FF730268C4F2000331
:1027A00042F6004C9842C4F2010C15DCB0F1804FA7
:1027B0001AD040F20041C4F20001884214D098427D
:1027C00018DCB0F1804F1DD040F20041C4F200018E
:1027D000884217D01AE000BF604505D040F60001DE
:1027E000C4F200018842EAD1A16822F070020A43D3
:1027F0009842E6DD604505D040F60001C4F20001D4
:10280000884203D1216922F440720A43A36922F06D
:102810008001D4F804E0E268194360450160C262B7
:10282000C0F828E002D16169CCF830100121416183
:10283000002084F8461084F83E1084F83F1084F895
:10284000401084F8411084F8421084F8431084F852
:10285000441084F8451084F83D1010BD82B0006823
:1028600040F20041C4F20001884211D0B0F1804F23
:102870001BD141F21C00C4F20200016841F00101C9
:102880000160006800F001000190019802B07047FB
:1028900041F21C00C4F20200016841F00201016033
:1028A000006800F002000090009802B0704700003D
:1028B00070470000B0B5054600680168C368446908
:1028C00001F02F02202A03F0200217D1B2B195F8AF
:1028D0003D10222946D195F83D10222940F0418132
:1028E000AB682946B3F5805F62D151F82C2F51F8BF
:1028F0001C3C002B00F0C880406862E05FEA017C6D
:102900001EBF04F0010E03F4907414EB0E0447D1C3
:102910000A062DD513F080022AD095F83D10122911
:1029200020D195F83D10122940F01B81A968B1F51E
:10293000805F03D12969002900F0B280696A4A1CCE
:102940006A6209784160698D01390A04698540F03D
:102950000881C16821F08001C160C16841F0400177
:10296000C160B0BD2846BDE8B04000F00FBA00BF5E
:10297000490640F1F68013F0400108BFB0BDC168C0
:1029800021F04001C160416921F001014161012153
:10299000284685F83D10BDE8B04000F0D9B900BF29
:1029A000CC0718BF13F480732CD14B0730D436E01A
:1029B00051F82C2F13B92B69002B9DD0406800F0E3
:1029C0007F001070086801300860688E01386886E2
:1029D000698E286811B1FF214160B0BDC16821F046
:1029E0002001C160C16821F48071C160416921F09A
:1029F000010141610121284685F83D10BDE8B04044
:102A000000F0A4B92B6C43F001032B644B0706D5EF
:102A1000BEF1000F03D02B6C43F002032B648B0735
:102A200006D5BEF1000F03D02B6C43F004032B64DA
:102A3000BCF1000F06D55EEA020303D02B6C43F015
:102A400008032B642B6C002B00F08B80890659D572
:102A5000002A57D095F83D1022291DD195F83D1038
:102A600022294FD1AB682946B3F5805F20D151F8B8
:102A70002C2F51F81C3C2BBB40686FF35F2022F8D1
:102A8000020B0A6023E000BF40686FF35F2022F86A
:102A9000020B0A6099E700BF284600F077F931E0A1
:102AA000696A31F8022B6FF35F22426069624AE77C
:102AB00051F82C2F0BB92B6923B1406800F07F002F
:102AC00001E000BF40681070086801300860688E3F
:102AD00001386886698E286811B1FF21416011E0D4
:102AE000C16821F02001C160C16821F48071C1601A
:102AF000416921F001014161012085F83D0028462E
:102B000000F024F9286841692A6C01F0400102F0C4
:102B10000802891820D0C16821F49071C160416910
:102B200021F001014161012185F83D10416949060B
:102B300018D5416921F040014161A86B90B142F67E
:102B40008151C0F600014163FEF7A0FE48B1A86BB9
:102B5000416BBDE8B04008472846FFF7A9FE0020BA
:102B60002864B0BD2846BDE8B040FFF7A1BE000014
:102B7000002804BF0120704770B5044690F83D005E
:102B800028B9002084F83C00204600F069F80220B3
:102B900084F83D002068D4E902C2D4F810E0C1688E
:102BA00004F1180621F00C01C160016968CE21F41E
:102BB0007C51194329433143114341F400610161C0
:102BC000C16841F20C629143626941EA0C0141EA39
:102BD0000E011143C160416943F60002C4F20102D3
:102BE00021F440719042416102D0FFF7D7F901E032
:102BF000FFF7E8F9D4E90023192148439900B0FB15
:102C0000F1F048F21F51C5F2EB11A0FB0136730938
:102C10004FF69C76C0F6FF7603FB0600322606EBE5
:102C20000010A0FB01014FF4F07000EA111000EB5E
:102C30000310C1F34311084490601069012120F48E
:102C400080401061506920F02A005061D06840F443
:102C50000050D0600020206484F83D1070BD00005A
:102C600070B586B040F60004C4F20104006804F5B3
:102C7000405100268842049602D006B070BD00BFC5
:102C800041F21800C4F20200016802AD41F4804133
:102C90000160016801F4804101910199016841F0EE
:102CA000040101600068294600F0040001900198C9
:102CB0004FF44070029002200390032005902046BC
:102CC000FEF73EFE4FF48060CDE90206204629461D
:102CD0000496FEF735FE252000210022FEF7BEFFF8
:102CE0002520FEF7A9FF06B070BD0000034690F84E
:102CF0003D0001280AD100294FF0010018BF002A29
:102D000000D1704793F83C00012801D102207047A0
:102D1000D962002022211A865A86186483F83D1051
:102D2000196883F83C001A69D1F80CC04FF490730D
:102D3000002A08BF20234CEA0302CA604A6942F015
:102D400001024A6140F2FF124A607047704700007A
:102D50007047000070470000FEE70000FEE700003B
:102D6000FEE700007047000070470000FEF7FCBE61
:102D70007047000040F25420C2F20000FFF79ABDF5
:102D8000406A002141864185FFF792BD90F83D10D1
:102D9000322918BF7047418DC1B101680A68120617
:102DA00014D58268B2F5805F02D10269002A47D04B
:102DB000426A531C436212784A60428D013A42854E
:102DC000428D1AB9CA6822F08002CA60418E11B3DE
:102DD00001680A6892061ED582686AB1B2F5805F02
:102DE0000CD1026972B9C26A49686FF35F2122F897
:102DF000021BC2620CE000BF02691AB1496801F00F
:102E00007F0100E04968C26A1170C16A0131C16284
:102E1000418E01394186418E01B170470168CA680F
:102E200022F02002CA60CA6822F48072CA604A692D
:102E300022F001024A61012180F83D10FFF78ABFAC
:102E4000426A32F8023B6FF35F234B604262B4E7A1
:102E5000FEE7000094B0FEF795FE0AAC201D242189
:102E6000FDF753FB02200A9001200E901020002550
:102E70000F9020460395CDE901551195FFF7B6F85F
:102E800020B1EFF3108072B6FEE700BF0F20CDE94E
:102E9000040504A80021CDE906550895FEF79CFF1E
:102EA00020B1EFF3108072B6FEE700BF02240027C6
:102EB000684600940297FEF70DFF28B1EFF31080EB
:102EC00072B600BFFEE700BF41F21800C4F2020074
:102ED000016840F6000841F0100101600168C4F289
:102EE000010801F010010A910A99016808F50065CE
:102EF00041F0200101600168002201F020010A91E7
:102F00000A9901684FF4604641F0040101600168CC
:102F100001F004010A910A99016841F00801016079
:102F200000684FF4604100F008000A900A982846B3
:102F3000FEF70EFE4046132100224FF0130AFEF763
:102F400007FE0A960AAE4FF0010928463146CDE940
:102F50000B970D94FEF7F4FC40463146CDE90AA9E3
:102F6000CDE90C74FEF7ECFC40F27415C2F20005DA
:102F700008F5E051284640F8201F4FF46021077300
:102F80000775C161C0E90177C0F81090FEF79CFB9E
:102F900020B1EFF3108072B6FEE700BF0920CDE943
:102FA0000A09002405F120000AA90C94FEF7D0FAC2
:102FB00020B1EFF3108072B6FEE700BF40F2C410FC
:102FC000C2F200004FF080414FF6FF72CDE9044499
:102FD000CDE90F44CDE90D44C0E90014C0E9024237
:102FE00004618461FFF7C4FB20B1EFF3108072B677
:102FF000FEE700BF40F2C410C2F2000004A9FFF7D0
:103000000BFA28B1EFF3108072B600BFFEE700BFE5
:1030100060200A900020CDE90B000E9040F2C41011
:10302000C2F200000AA90022FFF7A2FA20B1EFF3D2
:10303000108072B6FEE700BF40F2C410C2F200007A
:103040000AA90422FFF794FA20B1EFF3108072B6B8
:10305000FEE700BF40F2C410C2F200000AA9082235
:10306000FFF786FA20B1EFF3108072B6FEE700BFDB
:1030700040F2C410C2F200000AA90C22FFF778FA4D
:1030800020B1EFF3108072B6FEE700BF40F2C4102B
:10309000C2F20000FFF700FA40F20C200021A8F570
:1030A0008232C2F200004FF6FF73CDE90411CDE980
:1030B0000F11CDE90D11C0E90021C0E90213016132
:1030C0008161FFF755FB18B1EFF3108072B6FEE790
:1030D00040F20C20C2F2000004A9FFF79DF918B1DC
:1030E000EFF3108072B6FEE760200A900020CDE971
:1030F0000B000E9040F20C20C2F200000AA9002240
:10310000FFF736FA20B1EFF3108072B6FEE700BF8A
:1031100040F20C20C2F200000AA90422FFF728FAAC
:1031200020B1EFF3108072B6FEE700BF40F20C2032
:10313000C2F20000FFF7B0F940F2542008F5405108
:10314000C2F2000000230C274FF4165280E80E0054
:10315000C0E90333C0E90573C0E90733FFF708FD91
:1031600020B1EFF3108072B6FEE700BF40F25420AA
:10317000691CC2F200000122FFF7B8FD02A420463C
:1031800000F00CF8FBE700BF522C3235352C472CF1
:103190003132372C422C36330A00000010B584B08F
:1031A00004460078423810281DD8DFE800F0091CDA
:1031B0001C1C1C1C1C1C1C1F291C1C1C451C6100ED
:1031C00043F2A731C0F600012046FDF7C5F90028FB
:1031D0006CD043F29B31C0F600012046FDF7BCF9EC
:1031E000002800F0818004B010BD00BF43F2EF3032
:1031F000C0F6000004B0BDE81040FDF751B900BFB3
:1032000043F2AC31C0F600012046FDF7A5F90028D5
:1032100056D043F2A131C0F600012046FDF79CF9DB
:103220000028E0D143F20340C0F6000004B0BDE83E
:103230001040FDF735B900BF43F2B131C0F60001CF
:103240002046FDF789F9002844D043F2B831C0F692
:1032500000012046FDF780F90028C4D143F229403F
:10326000C0F6000004B0BDE81040FDF719B900BF7A
:103270002046FDF72BF90628B5D343F2C0310DF1F6
:10328000040CC0F6000103AA02AB2046CDF800C032
:10329000FDF742F80399DDE9013243F27A30C0F6D6
:1032A0000000FCF7BDFF04B010BD00BF43F2E130E9
:1032B000C0F6000004B0BDE81040FDF7F1B800BF53
:1032C00043F2CF30C0F6000004B0BDE81040FDF777
:1032D000E7B800BF43F24440C0F6000004B0BDE8C8
:1032E0001040FDF7DDB800BF43F21840C0F6000003
:1032F00004B0BDE81040FDF7D3B88A68002A02DCAC
:103300000022FDF7FBBB521E8A604A68C0B2531C04
:103310004B6010707047000010B500290AD0087883
:10332000002807D005487844FDF716F9002801D099
:10333000002010BD0248784410BD00005A01000072
:10334000520100003A7474003A7474003A747400C4
:103350000000000000000000010203040607080945
:103360000000000001020304010202030405060735
:1033700008090A0B0C0D0E0F1010524742204C4545
:10338000442052656E67693A20523D25642C2047DF
:103390003D25642C20423D25640A00422C4F4646C0
:1033A000004C2C4F464600422C4F4E004C2C4F4EAA
:1033B00000502C4C45465400502C5249474854006C
:1033C000522C25642C472C25642C422C2564004E5D
:1033D0006F726D616C204C4544204163696C646977
:1033E0000042757A7A6572204163696C6469004BAA
:1033F000617069204B6F6E74726F6C204564696CEC
:103400006469004E6F726D616C204C4544204B61C5
:10341000706174696C64690042757A7A6572204BD8
:1034200061706174696C6469005061726B205365EE
:1034300072766F205361676120446F6E6475727598
:103440006C6475005061726B20536572766F205307
:103450006F6C6120446F6E647572756C64750000EA
:1034600090350008000000201800000050010008FE
:10347000A835000818000020880800007001000826
:103480001001000043000000F8FFFFFF0040404033
:103490004040404040404141414141404040404027
:1034A00040404040404040404040404040050202D3
:1034B0000202020202020202020202020220202092
:1034C00020202020202020020202020202029090EE
:1034D00090909090101010101010101010101010EC
:1034E0001010101010101010020202020202888840
:1034F000888888880808080808080808080808084C
:103500000808080808080808020202024000000033
:1035100000000000000000000000000000000000AB
:10352000000000000000000000000000000000009B
:10353000000000000000000000000000000000008B
:10354000000000000000000000000000000000007B
:10355000000000000000000000000000000000006B
:10356000000000000000000000000000000000005B
:10357000000000000000000000000000000000004B
:10358000000000000000000000000000000000003B
:10359000000000000000000000000000010000002A
:0835A000100000000024F400FB
:04000005080000ED02
:00000001FF
