:020000040800F2
:10000000A8070020C5010008E9230008E123000833
:10001000E5230008B50800083525000800000000A9
:10002000000000000000000000000000F1230008B4
:10003000B908000800000000ED230008F5230008BF
:10004000DF010008DF010008DF010008DF01000810
:10005000DF010008DF010008DF010008DF01000800
:10006000DF010008DF010008DF010008DF010008F0
:10007000DF010008DF010008DF010008DF010008E0
:10008000DF010008DF010008DF010008DF010008D0
:10009000DF010008DF010008DF010008DF010008C0
:1000A000DF010008DF010008DF010008DF010008B0
:1000B000DF010008DF010008DF010008DF010008A0
:1000C000DF010008DF010008DF010008DF01000890
:1000D000DF01000809250008DF010008DF01000832
:1000E000DF010008DF010008DF01000800F002F86E
:1000F00000F059F814A696E8000CB244B344DA456F
:1001000001D100F050F8BAE80F000FA696E83000D1
:10011000A5EB040504EB0607AAEB0704A7F101070A
:100120004FEA15154FEA3414A4F10104AC4201D38F
:1001300000F039F813F0010F18BFFB1A43F0010368
:1001400000F001F8DBE71847502900007029000093
:10015000103A24BF78C878C1FAD8520724BF30C8F3
:1001600030C144BF04680C60704700007047000055
:100170000023002400250026103A28BF78C1FBD8B0
:10018000520728BF30C148BF0B6070471FB500F051
:1001900045FB04000020002102F052FC401C60607E
:1001A0001FBD10B510BD00F0FDFA1146FFF7EEFFC0
:1001B00002F0C2F900F024FB03B4FFF7F2FF03BC26
:1001C00000F070FB0948804709480047FEE7FEE75A
:1001D000FEE7FEE7FEE7FEE7FEE7FEE7FEE7FEE7F7
:1001E00004480549054A064B70470000F9230008FA
:1001F000ED000008A8010020A8070020A8030020A7
:10020000A80300200FB400B58DB010A9099000918B
:100210000B904FF0FF300A9000200C900648784475
:100220000690064878446A4607900F9909A800F09E
:10023000C5F80DB05DF814FBBB010000D301000050
:100240002DE9FF5F1D464FF0FF3B91464FF0000840
:100250005F46D5E90146A96901987F1C8847296A4C
:10026000824688470028F6D1BAF1FF3F0CD0002E15
:1002700024F4C06419DD600614D5BAF12B0F09D03F
:10028000BAF12D0F0ED103E0584604B0BDE8F09F3F
:1002900044F48064A96901987F1C8847761E8246D1
:1002A000002E02DDBAF1300F03D0B9F1000F26D0D5
:1002B00032E0A969761E01987F1C44F400748847D7
:1002C000002E824605DDBAF1780F06D0BAF1580F3C
:1002D00003D0B9F1000F10D01EE0B9F1000F02D029
:1002E000B9F1100F18D1A969761E01987F1C24F46A
:1002F000007488478246102002E0082000E00A20AF
:10030000814609E0A96908FB0908761E01987F1C4F
:1003100044F4007488478246002E05DD4946504665
:1003200000F037F80028EDDAE96901988847A00560
:1003300002D46FF00100A8E7E00725D1600613D5CD
:10034000600502D5C8F1000000E0404629680A1D9A
:100350002A600968220501D5087015E0220701D539
:10036000088011E008600FE02868011D296000681E
:10037000210502D580F8008006E0210702D5A0F80B
:10038000008001E0C0F8008038467EE77047704783
:1003900070473A2800D2303820F02002412A01D399
:1003A000A2F13700884201D34FF0FF3070470000C0
:1003B000026811441378016018467047D1600549FE
:1003C0007944516104497944116200211161114657
:1003D00000F02EB8EDFFFFFF53000000426842B16D
:1003E000016811F8013B23B1521EC0E90012184602
:1003F00070470121C160881E704742685AB1C368C6
:10040000016843B983688B4205D0491E521CC0E97C
:100410000012002070474FF0FF30704710B50446BF
:1004200000F0E6F90068005D00F0010010BD00007A
:100430002DE9F34F4FF0000A0C4656468DB00120CF
:100440000C9001F10C000B9062690B980121904710
:10045000051E2DD0252D2CD0216A8847C0B1626998
:100460000B9801219047216A88470028F7D16269DB
:10047000411E0B98904700E0761CA1690D988847B3
:10048000216A88470028F7D1E1690D988847DBE7A2
:10049000A1690D988847A842074601D1761CD3E789
:1004A000E1690D9888477F1C02D1BAF1000F6FD027
:1004B0006BE162690B9800273D46394690472A2830
:1004C00004D162690B98012190470125DFF8D082A1
:1004D00062690B9801219047A0F130010A290AD2E4
:1004E0004745E5DC07EB870100EB4107303FDFD4F0
:1004F00045F01005ECE7E90601D46FF000476C28E1
:100500000AD04C2814D0682815D06A280DD0742839
:100510001CD07A281AD01DE062690B9801219047FF
:100520006C2802D045F0040514E045F002050DE00A
:1005300045F020050AE062690B9801219047682880
:1005400002D045F0080505E045F4006562690B98A6
:1005500001219047C4E9015765283DD019DC58288E
:100560007AD00CDC452837D004DC252826D0412859
:100570009ED131E046282FD0472899D12CE05B2826
:1005800077D0612828D063287CD0642823D15AE012
:10059000F6E06F2848D008DC66281DD067281BD0FD
:1005A000692821D06E2816D127E0702845D07328FD
:1005B00068D0752847D078280DD14DE0A1690D98F5
:1005C0008847252805463FF469AFE1690D988847BB
:1005D0006D1C3FF46AAFD8E00D9923466A466FF070
:1005E0000100AFF30080C5E045F0400023464FF026
:1005F00000026060A80736D43EE0E8077FF447AF0A
:100600002068011D21600068290501D506701BE7DF
:10061000290701D5068017E7A90703D5F117C0E917
:10062000006111E706600FE745F0400023464FF0F8
:1006300008026060A80716D41EE040F60E0125EA05
:100640000100606016E045F0400023464FF00A02CA
:100650006060A80707D40FE045F040006060A8077D
:1006600008D5234610220D996FF00100AFF30080EA
:1006700080E007E0102223460D996FF00100FFF79C
:10068000DFFD77E04FF0000963284F46C8464B4630
:10069000CB4602D05B2806D038E0E80601D4012022
:1006A000A060012732E06269D4F80CB00B980121F8
:1006B00090475E2807D14FF0010949466269D4F896
:1006C0000CB00B989047216939B900210A4603AB59
:1006D00043F82120491C0829FADBD8B3216949B322
:1006E00008F1010862690B98012190475D28F4D157
:1006F000B9F1000F09D0002003A951F82020D243FE
:1007000041F82020401C0828F7DB03AB20690028B3
:1007100020794FEA40701ED05B462246CDF800801B
:10072000CDE901970D9900286FF0010020DAAFF3B1
:1007300000801FE0C11703AA00EBD1614B1121F02B
:100740001F0102EB8302411A136801208840034312
:100750001360C7E719E00D99224600286FF00100E9
:10076000009702DAAFF3008004E0AFF3008001E00D
:10077000AFF3008000280ADA401C06D10C9820B1A3
:100780004FF0FF300FB0BDE8F08F5046FAE7E907B1
:1007900001D10AF1010A064400200C9054E6000041
:1007A000CCCCCC0C754600F035F8AE460500694659
:1007B000534620F00700854618B020B5FFF710FD1E
:1007C000BDE820404FF000064FF000074FF0000852
:1007D0004FF0000BAC46ACE8C009ACE8C009ACE88F
:1007E000C009ACE8C00921F007018D467047000040
:1007F00010B500F013F8001D10BD00BF4522000029
:1008000010B50446AFF300802046BDE81040FFF766
:10081000D3BC00000048704710000020004870471B
:10082000300000204FF0013C50F8042B51F8043BFD
:100830009A4221D1A2EB0C03934313EACC1317D1B4
:1008400050F8042B51F8043B9A4215D1A2EB0C034B
:10085000934313EACC130BD150F8042B51F8043B0B
:100860009A4209D1A2EB0C03934313EACC13DBD0D9
:100870004FF00000704700BFD01A01BAB1FA81F101
:1008800001F0180122FA01F0CB40DBB2C0B2C01A6D
:10089000C1F120012CFA01F3D11A914311EAC311DD
:1008A000E6D1704701491820ABBEFEE726000200E2
:1008B00070470000FEE700007047000010B581B0EF
:1008C0000022009290F82420012A03D10221084638
:1008D00001B010BD4B680122062B80F8242033D8CC
:1008E000D0F800C003EB83035A1F1F23DCF834E069
:1008F00003FA02F40B682EEA040403FA02F222431C
:10090000CCF83420092B03EB430249D9DCF80CE086
:100910001E3A0724896894402EEA0404914023F08B
:1009200001022143102ACCF80C1043D142F20841B5
:10093000C4F20101A1F10802944543D0816A41F05B
:1009400020018162012136E0D0F800C00C2B03EBBE
:10095000830213D8233A1F23DCF830E003FA02F4B1
:100960000B682EEA040403FA02F22243CCF830208A
:10097000092B03EB4302C9D812E000BF413A1F2301
:10098000DCF82CE003FA02F40B682EEA040403FA04
:1009900002F22243CCF82C20092B03EB4302B5D8FA
:1009A000DCF81030072489689440A3439140194330
:1009B000CCF810100021002280F82420084601B055
:1009C00010BD00BF0A681202F4D40A68102B42F46A
:1009D00000020A60EED140F20801C2F2000109688B
:1009E0004DF68362C4F21B32A1FB0212910C01EBA3
:1009F00081014900009100990029DBD0009901395B
:100A0000009100990029D5D00099013900910099F1
:100A10000029CFD000990139009100990029C9D04F
:100A2000009901390091009900294FF00001E5D1AA
:100A3000C1E70000002804BF01207047B0B504469C
:100A4000806A28B121688868C0070CD115E000BF12
:100A50000020E06284F82400204600F09BF8216822
:100A60008868C00709D0886820F00100886000F01D
:100A70006BFA21688A68D20726D1A06AC0063AD4E8
:100A8000A06A41F2021290430230A062E069D4E908
:100A9000013240EA030C531EB3FA83F35D09134697
:100AA000B2F5807F18BF2B02207D257B01284CEA00
:100AB000450030D135B3A56A45F02005A562E56A49
:100AC00045F00105E56226E0054602E08868C007BA
:100AD000D3D000F039FA401B21680328F6D3886888
:100AE000C007F3D0A06A40F01000A062E06A40F0B6
:100AF0000100E062A06AA06A40F01000A06201203C
:100B0000B0BD00BFD4F818C04EF60005CFF6FF7593
:100B100005EB4C352B434D68B2F5807F25F46945D4
:100B200043EA05034B608B684FF2FD75CFF6E17524
:100B300003EA050343EA00038B6001D0012A07D1D1
:100B400022690023CFF6F07303EB025201E000BFED
:100B50000022CB6A23F470031A43CA62896840F604
:100B6000FE62CFF61F721140814207D10020E06281
:100B7000A16A012262F30101A162B0BDA06A40F046
:100B8000100020F00200A062E06A40F00100E06284
:100B90000120B0BD80B586B0014640F60040C4F2E9
:100BA0000100096800F5C05291424FF00001CDE903
:100BB000041101D006B080BD41F21801C4F2020157
:100BC0000A6842F400720A600A6802F40072019234
:100BD000019A0A6842F008020A60096801F00801F7
:100BE00001910199022102910321039102A900F0D0
:100BF00095F806B080BD0000014690F8210002285B
:100C000016D10868D1E90FC3026822F00E02026013
:100C1000026822F001020260012000FA03F2CCF81F
:100C2000042081F821000020002281F82020704754
:100C3000042088630120002281F8202070470000F2
:100C400090F82110022923D10268116821F00E01C9
:100C500011602F211368C4F202018A4240F204019C
:100C6000C4F2020123F00103136015DD3023C4F246
:100C700002039A421CD04423C4F202039A421BD0BE
:100C80005823C4F202039A421CD14FF4803321E06E
:100C900004218163012070470823C4F202039A42B1
:100CA0000ED01C23C4F202039A420BD1102311E090
:100CB0004FF480730EE000BF4FF480530AE000BF92
:100CC000012307E001F1680C4FF08073624508BF13
:100CD0004FF480130B60012180F82110426B00213A
:100CE00080F8201022B180B590470021BDE88040F7
:100CF00008467047B0B5044600F026F9054640F2B4
:100D00000000C2F200000078611C18BF044400BF5C
:100D100000F01AF9401BA042FAD3B0BD2DE9F04F04
:100D200082B00E68002E00F0FD8041F20042C4F255
:100D30000102042340F2004E904208BF03234FF605
:100D4000FF7CC4F2010E009300240123C1F2100CB9
:100D50004FF0000A4FF0000944E000BF012704F003
:100D60000C030F229A402BEA020207FA03F34FEA20
:100D70009A051A4346F825204E6840F20C45F202C7
:100D8000DEF8082054BF22EA080242EA0802C4F250
:100D90000105CEF808202A68B30254BF22EA0802EF
:100DA00042EA08022A60B303DEF8042054BF22EAB4
:100DB000080242EA0802F303CEF80420DEF800201D
:100DC0004FF0010354BF22EA080242EA0802CEF8BB
:100DD00000200E680AF1010A36FA0AF204F104044E
:100DE00000F0A08003FA0AFB16EA0B08F1D04E6867
:100DF000664511DC122E55D8DFE806F0340A444867
:100E0000545454545454545454545454544C500002
:100E1000D1F80C9046E000BF4FF6FF72C1F22102FC
:100E200096420FDC0022C1F2110296421AD0002233
:100E3000C1F21202964215D00022C1F2210296425E
:100E400010D02FE00022C1F2220296420AD00022E6
:100E5000C1F23102964205D00022C1F2320296421E
:100E600020D100BF8A684AB1012A14BFC0F814B06B
:100E7000C0F810B04FF0080914E000BF4FF00409AB
:100E800010E000BFCA6802F108090BE04FF000094A
:100E900008E000BFCA6802F1040903E0CA6802F171
:100EA0000C0900BF22460646B8F5807F24BF203AD1
:100EB000043637680F25954027EA050509FA02F23E
:100EC0002A433260CA79D2067FF583AF41F2180314
:100ED000C4F202031A68AEF57E7642F001021A608F
:100EE0001A6802F001020192019A2AF0030256F8F0
:100EF00002B040F60002C4F20102904210D040F667
:100F00000042C4F2010290423FF428AF41F20002D5
:100F1000C4F20102009F904208BF02271FE700BFF2
:100F200000271CE702B0BDE8F08F0000C26802EAAB
:100F30000103914341EA034101617047002A08BF60
:100F4000090401617047000040F2A410C2F20000E1
:100F50000068704740F2000040F2A411C2F20000A5
:100F6000C2F2000100780A6810440860704700006F
:100F700080B542F20000C4F20200016841F01001A5
:100F80000160032000F08CF80F2000F005F800F05D
:100F900027F8002080BD000070B540F20006C2F2C4
:100FA000000640F208013278C2F200014FF47A7371
:100FB0000968B3FBF2F20446B1FBF2F1084600F017
:100FC0000BFC0F2C4FF0010508D838B94FF0FF305B
:100FD00021460022002500F037F87460284670BDD5
:100FE00082B041F21800C4F202000168022241F00E
:100FF00001010160016801F001010191019941685D
:1010000041F080514160406800F0805000900098AD
:101010000420C4F20100016862F31A61016002B0A9
:1010200070470000002848BF704700F01F010122F0
:1010300002FA01F11C2202EAD0004EF20012CEF2B6
:10104000000281507047000010B54EF60C5CCEF2E5
:10105000000CDCF80030C3F3022E8EF00704042CE1
:1010600028BF0424BEF103034FF0FF3E0EFA04F440
:1010700038BF0023A14399400EFA03F39A4311436A
:1010800000F00F0200F160430901043A03F56443E4
:101090006244002848BF02F10C03197010BD000023
:1010A0004EF60C51CEF200010A684FF6FF031A40CB
:1010B00060F30A2242F0806040F0FD7008607047E3
:1010C0002DE9F04182B00446007841F21C06C007C9
:1010D000C4F202064AD030685FEAC00808D430681B
:1010E00040F080503060306800F0805001900198EE
:1010F00047F20007C4F200073868C00512D4386808
:1011000040F480703860FFF71FFF05463868C0055F
:1011100008D4FFF719FF401B6428F7D9032002B059
:10112000BDE8F081706810F4407012D0616801F47D
:10113000407188420DD0706840F24042C4F24222B1
:10114000012320F4407113600023C0071360716015
:1011500026D17068616820F440700843B8F1000F30
:10116000706003D4306820F08050306020688107C0
:1011700007D556F8181CA26821F44041114346F8DF
:10118000181CC00607D556F8180CE16820F480003A
:10119000084346F8180C002002B0BDE8F08100BFFB
:1011A000FFF7D2FE054641F2883700BF706880071E
:1011B000CFD4FFF7C9FE401BB8424FF00300F5D96A
:1011C000EAE70000002804BF012070472DE9F04342
:1011D00081B042F20008C4F202080446D8F80000C8
:1011E0000D4600F0070088420CD2D8F8000020F02D
:1011F00007002843C8F80000D8F8000000F00700F6
:10120000A8426CD1206841F204098107C4F20209A6
:1012100017D5410705D5D9F8001041F4E061C9F8A8
:101220000010010705D5D9F8001041F46051C9F844
:101230000010D9F80010A26821F0F0011143C9F89C
:101240000010C00742D1D8F8000000F00700A84203
:101250000CD9D8F8000020F007002843C8F8000097
:10126000D8F8000000F00700A84238D120684107F4
:1012700007D5D9F80010E26821F4E0611143C9F8FC
:101280000010000708D5D9F80000216920F460504B
:1012900040EAC100C9F80000D9F8002002F00C00B3
:1012A000082841F20020C0F27A0051D142F686238C
:1012B000C2F38341C0F60003595CD2033CD440F62C
:1012C0000010C0F23D00484342E000BF60680228C1
:1012D0000AD001282AD159F8041C890308D4012016
:1012E00001B0BDE8F08300BF59F8041C8901F6D5B0
:1012F000D9F8001021F003010843C9F80000FFF7F6
:1013000023FE064641F28837D9F80000616800F0F4
:101310000C00B0EB810F96D0FFF716FE801BB84291
:10132000F2D9032001B0BDE8F08300BF59F8041CD6
:101330008907D4D5DCE700BFD9F8002042F6842322
:10134000C2F34042C0F600039A5C4843B0FBF2F09F
:10135000D9F8001042F66C22C1F30311C0F6000266
:10136000515C40F2080220FA01F140F20400C2F29E
:1013700000000068C2F200021160FFF70DFE0020BD
:1013800001B0BDE8F083000040F2080041F2040122
:10139000C2F20000C4F202010068096842F67C2231
:1013A000C1F30221C0F60002515CC8407047000042
:1013B00040F2080041F20401C2F20000C4F202014E
:1013C0000068096842F67C22C1F3C221C0F600021F
:1013D000515CC84070470000002804BF01207047DE
:1013E0002DE9F04182B00446007841F20006C007C2
:1013F000C4F202060CD0706800F00C00042840F023
:1014000081803068800303D56068002800F04E8139
:10141000207880071BD5706810F00C0F09D0706819
:1014200000F00C00082840F08B807068C00300F1C9
:1014300087803068800703D52069012840F0368115
:101440003068616920F0F80040EAC100306020781F
:10145000000713D4207840072CD4E569002D00F054
:101460002081706800F00C00082840F0AF80012D4A
:1014700040F00C81012002B0BDE8F081A069002895
:1014800000F08C800020C4F242200121C0F88014BA
:10149000FFF75AFD054600BF706A800700F1BA8069
:1014A000FFF752FD401B0228F6D9032002B0BDE829
:1014B000F08100BFF0695FEAC00808D4F06940F02D
:1014C0008050F061F06900F080500090009847F281
:1014D0000007C4F200073868C0054DD4386840F4EE
:1014E00080703860FFF730FD054600BF3868C005E2
:1014F00042D4FFF729FD401B6428F7D9032002B02E
:10150000BDE8F081706800F00C00082803D1706815
:10151000C0033FF576AF6068002800F00981B0F5A0
:10152000A02F00F01D81B0F5803F00F01D813068D4
:1015300020F480303060306820F4802017E100BF54
:101540002069002840F20000C4F2422000F08C80A4
:1015500001210160FFF7F8FC054600BF30688007F5
:101560003FF56EAFFFF7F0FC401B0228F6D90320D1
:1015700002B0BDE8F08100BFE068002800F09A806A
:10158000052800F0B180012800F0B280306A20F018
:1015900001003062306A20F00400ACE00020C4F2A8
:1015A00042200021C0F88014FFF7CEFC054600BFA2
:1015B000706A80077FF54EAFFFF7C6FC401B02281C
:1015C000F6D9032002B0BDE8F08100BF0027C4F2C5
:1015D000422700203866FFF7B7FC022D05460DD1E3
:1015E0003068800140F1D680FFF7AEFC401B022836
:1015F0004FF00300F4D902B0BDE8F08130688001FB
:101600004FD5FFF7A1FC401B02284FF00300F5D98E
:10161000F1E700BF40F20800C2F20000006844F6A3
:10162000D351C1F26201A0FB0101480A019000BF41
:1016300000BF0198411E002801913FF40BAF00BF8D
:101640000198411E002801913FF404AF00BF0198AA
:10165000411E002801913FF4FDAE00BF0198411EDC
:1016600000280191E4D1F5E600210160FFF76CFC50
:10167000054600BF306880077FF5E9AEFFF764FCE0
:10168000401B02284FF00300F4D9B4E77068216AC8
:1016900000F480328A4209D1616A00F470108842F5
:1016A00004D1002002B0BDE8F08100BF012002B0EB
:1016B000BDE8F081306A20F001003062306A20F02D
:1016C00004003062FFF740FC054641F2883700BF56
:1016D000306A800722D5FFF737FC401BB8424FF035
:1016E0000300F5D987E700BF306A40F0040030629C
:1016F000306A40F001003062FFF726FC054641F2F7
:10170000883700BF306A800708D4FFF71DFC401BF4
:10171000B842F7D9032002B0BDE8F081B8F1000F5C
:101720003FF59BAEF06920F08050F06195E600BF78
:10173000306820F480303060306820F480203060E1
:10174000FFF702FC054600BF306880037FF560AEFE
:10175000FFF7FAFB401B64284FF00300F4D94AE777
:10176000306840F480203060306840F48030306071
:10177000FFF7EAFB054600BF306880033FF548AE3F
:10178000FFF7E2FB401B6428F6D9032002B0BDE856
:10179000F08100BF206AB0F5803F05D17168A26872
:1017A00021F40031114371607168626A21F474118F
:1017B00011430843706001203866FFF7C5FB0446FB
:1017C000306880013FF56DAFFFF7BEFB001B0228BC
:1017D0004FF00300F4D90EE7411E0020B0EB116F6B
:1017E0001CBF012070474EF21002CEF20002516081
:1017F0004EF62351CEF20001F0230B7007219060CA
:101800001160704790F83C20012A4FF0020236D058
:1018100010B580F83D200268D2F804E0D2F808C084
:101820000C682EF07003234340F2FF74C4F20004EE
:10183000A24253600ADCB2F1804F13D040F2004361
:10184000C4F200039A420DD011E000BF42F60043FB
:10185000C4F201039A4205D040F60003C4F200032B
:101860009A4204D149682CF0800319439160012108
:10187000002280F83D1080F83C20BDE81040104662
:101880007047000070B586B0006840F20041C4F2B5
:10189000000188424FF00001CDE90411CDE90211A9
:1018A00040D0B0F1804F56D141F21800C4F202008E
:1018B000016840F6000441F0040101600168C4F2CF
:1018C000010401F0040101910199016802AD41F0A8
:1018D000080101600068022600F0080001900198EC
:1018E00048F20C0002902046294603960596FFF721
:1018F00015FA0820CDE9020604F580602946059610
:10190000FFF70CFA0420C4F2010001684FF6FF4211
:10191000CFF6FF02114041F0E06141F480710160B7
:1019200006B070BD41F21800C4F20200016841F037
:1019300004010160006802A900F004000190019810
:10194000C020029002200390059040F60000C4F2EF
:101950000100FFF7E3F906B070BD000090F83C30DD
:10196000012B04BF022070474FEAB202032A3DD880
:101970002DE9F043DFE802F002407CB6036842F64E
:1019800000461D6A1A6AC4F2010622F001021A62B8
:101990001A465C6852F818CFB3428E68D1F800E05E
:1019A00025F0020545EA06050CD1CE68D1E9057897
:1019B00024F4407425F00C0526F004063C4335431E
:1019C00044EA08042CF0730747EA0E075C609F6145
:1019D0004F6809695F631D629F6947F008079F614F
:1019E0009F6927F004079F61ACE000BF012100223E
:1019F00080F83C2008467047036842F600461D6A9E
:101A00001A6AC4F2010622F010021A621A46D3F8CA
:101A100004C052F8184FB3428E68D1F800E025F0A8
:101A2000200545EA06150FD1CE68D1E905986FF07B
:101A3000400725F0C00507EA061635432CF4406739
:101A400048EA090647EA860C24F4E64444EA0E27ED
:101A5000C3F804C09F614F6809699F631D629F6955
:101A600047F400679F619F6927F480679F6168E082
:101A7000036842F600461D6A1A6AC4F2010622F49F
:101A800080721A621A46D3F804C052F81CEFB342AF
:101A90008E680C6825F4007545EA06250FD1CE68DE
:101AA000D1E90598360240F2FF4725F44065BE4370
:101AB00035432CF4405748EA090647EA061C2EF045
:101AC00073072743C3F804C0DF614F680969DF6308
:101AD0001D62DF6947F00807DF61DF6927F004074F
:101AE000DF612FE0036842F60047D3F820C01A6A8E
:101AF000C4F2010722F480521A621A465C6852F856
:101B00001C5FD1F800E08E68BB4204D14F6924F419
:101B1000804444EA87142CF4005747EA063725F43A
:101B2000E64646EA0E265C60DE614E6809691E6480
:101B30001F62DF6947F40067DF61DF6927F48067B0
:101B4000DF6109021368194311600021BDE8F04309
:101B5000002280F83C20084670470000002804BF9F
:101B60000120704710B5044690F83D0028B90020C8
:101B700084F83C00204600F067F8022084F83D001D
:101B8000206840F2FF730268C4F2000342F6004C82
:101B90009842C4F2010C15DCB0F1804F1AD040F22B
:101BA0000041C4F20001884214D0984218DCB0F120
:101BB000804F1DD040F20041C4F20001884217D08E
:101BC0001AE000BF604505D040F60001C4F20001F4
:101BD0008842EAD1A16822F070020A439842E6DD09
:101BE000604505D040F60001C4F20001884203D1EF
:101BF000216922F440720A43A36922F08001D4F8DB
:101C000004E0E268194360450160C262C0F828E060
:101C100002D16169CCF8301001214161002084F8C3
:101C2000461084F83E1084F83F1084F8401084F881
:101C3000411084F8421084F8431084F8441084F86A
:101C4000451084F83D1010BD82B0006840F200419C
:101C5000C4F20001884211D0B0F1804F1BD141F293
:101C60001C00C4F20200016841F00101016000683B
:101C700000F001000190019802B0704741F21C0091
:101C8000C4F20200016841F002010160006800F046
:101C900002000090009802B07047000070470000FA
:101CA00070470000B0B582B0044600680168C368A0
:101CB000426901F02F05202D03F0200506D12DB13A
:101CC000204602B0BDE8B04000F09EBB5FEA017C58
:101CD0001EBF02F0010E03F4907212EB0E0243D10C
:101CE000226BCD0618D5012A16D113F0100213D09D
:101CF00000210191016801914168019101994069B8
:101D000040063BD4A08DE18DE28D002A18BF8842A9
:101D100040F0F28102B0B0BD0A0640F1E78013F056
:101D2000800200F0E38094F841102129F2D1A168EB
:101D3000B1F5805F03D12169002900F06382216A37
:101D40004A1C226209784160E18C01390A04E1846D
:101D5000E0D1C16821F08001C160C16841F040015B
:101D6000C16002B0B0BD00BFCA0718BF13F48072D3
:101D700040F0D0804A0700F1D380D8E0E06B0168E2
:101D800049688AB2002AC5D0A38D9A42C2D2E185A1
:101D90008069202800F09E80206850E8030F2168A9
:101DA00020F4807041E80302DAB1206850E8030FA4
:101DB000216820F4807041E8030292B1206850E865
:101DC000030F216820F4807041E803024AB12068C3
:101DD00050E8030F216820F4807041E80302002AD4
:101DE000DAD1206850E8050F216820F0010041E8B1
:101DF0000502C2B3206850E8050F216820F00100F9
:101E000041E805027AB3206850E8050F216820F008
:101E1000010041E8050232B3206850E8050F21684F
:101E200020F0010041E80502002ADAD11BE000BFE2
:101E3000206850E8050F216820F0400041E80502C5
:101E4000DAB1206850E8050F216820F0400041E831
:101E5000050292B1206850E8050F216820F040008B
:101E600041E805024AB1206850E8050F216820F0DA
:101E7000400041E80502002ADAD1202084F842001F
:101E800000202063206850E8030F216820F0100034
:101E900041E80302DAB1206850E8030F216820F01E
:101EA000100041E8030292B1206850E8030F216856
:101EB00020F0100041E803024AB1206850E8030F07
:101EC000216820F0100041E80302002ADAD1E06B1B
:101ED000FEF792FE02206063A08DE18D401A81B270
:101EE000204602B0BDE8B040FFF7D8BE49067FF5F6
:101EF00011AF13F040013FF40DAFC16821F0400174
:101F0000C1602021204684F8411002B0BDE8B040F5
:101F100000F064BA626C42F0010262644A0706D5BE
:101F2000BEF1000F03D0626C42F0020262648A07C5
:101F300006D5BEF1000F03D0626C42F00402626469
:101F4000BCF1000F06D55EEA050203D0626C42F0D8
:101F500008026264626C002A3FF4DCAE890604D594
:101F60001DB1204600F050FA20684069616C00F015
:101F7000400001F00801401800F0B680206850E8E9
:101F8000030F216820F4907041E80302BAB320687F
:101F900050E8030F216820F4907041E8030272B307
:101FA000206850E8030F216820F4907041E8030294
:101FB0002AB3206850E8030F216820F4907041E8AC
:101FC0000302002ADAD11AE0206850E8050F2168E0
:101FD00020F0010041E80502DAB1206850E8050F61
:101FE000216820F0010041E8050292B1206850E824
:101FF000050F216820F0010041E805024AB1206880
:1020000050E8050F216820F0010041E80502002A90
:10201000DAD1206B012824D1206850E8030F216811
:1020200020F0100041E80302DAB1206850E8030F05
:10203000216820F0100041E8030292B1206850E8C6
:10204000030F216820F0100041E803024AB1206824
:1020500050E8030F216820F0100041E80302002A35
:10206000DAD1202084F842000020206320684069F3
:10207000400640F1C180206850E8050F216820F03B
:10208000400041E80502DAB1206850E8050F2168F8
:1020900020F0400041E8050292B1206850E8050FA9
:1020A000216820F0400041E805024AB1206850E86C
:1020B000050F216820F0400041E80502002ADAD12E
:1020C000E06B002800F0988042F2FD31C0F600017C
:1020D0004163FEF7B5FD00283FF41CAEE06B416B99
:1020E00002B0BDE8B04008472046FFF7D9FD002008
:1020F000606402B0B0BD00BF401A00BF216851E863
:10210000031F226821F4907142E80313BBB32168D6
:1021100051E8031F226821F4907142E8031373B35E
:10212000216851E8031F226821F4907142E80313EB
:102130002BB3216851E8031F226821F4907142E813
:102140000313002BDAD11AE0216851E8051F226839
:1021500021F0010142E80513DBB1216851E8051FB8
:10216000226821F0010142E8051393B1216851E88A
:10217000051F226821F0010142E805134BB12168D7
:1021800051E8051F226821F0010142E80513002BE8
:10219000DAD1202184F8421000212163216851E81E
:1021A000031F226821F0100142E80313DBB121680C
:1021B00051E8031F226821F0100142E8031393B194
:1021C000216851E8031F226821F0100142E803133F
:1021D0004BB1216851E8031F226821F0100142E849
:1021E0000313002BDAD1022281B22046626302B0CF
:1021F000BDE8B040FFF752BD204602B0BDE8B04098
:10220000FFF74EBD216A31F8022B6FF35F22426067
:10221000216299E5002804BF0120704710B50446EB
:1022200090F8410028B9002084F84000204600F0D2
:1022300063F8242084F841002068D4E90212C368BE
:1022400023F40053C360036923F440531A4302612B
:10225000D4E904231143C268194341F20C639A4341
:102260001143C1604169A26921F44071114343F6F1
:102270000002C4F201029042416103D0FFF784F8EA
:1022800002E000BFFFF794F8D4E900231921484386
:102290009900B0FBF1F048F21F5CC5F2EB1CA0FB0B
:1022A0000C314FF69C734909C0F6FF7301FB030024
:1022B000322303EB0010A0FB0C03F02000EA5310C4
:1022C00000EB0110C3F34311084490601069202112
:1022D00020F490401061506920F02A005061D068CD
:1022E00040F40050D0600020606484F8411084F80D
:1022F0004210606310BD000070B586B040F6000467
:10230000C4F20104006804F5405100268842049696
:1023100002D006B070BD00BF41F21800C4F2020046
:10232000016802AD41F480410160016801F480411F
:1023300001910199016841F004010160006829469A
:1023400000F00400019001984FF400700290022008
:102350000390032005902046FEF7E0FC4FF48060D8
:10236000CDE90206204629460496FEF7D7FC252033
:1023700000210022FEF768FE2520FEF753FE06B07E
:1023800070BD000090F84230202B07D100294FF09B
:10239000010318BF002A05D11846704702231846CA
:1023A000704700BF00230363816222218285C285BA
:1023B000436480F842100169006819B1C16841F4B2
:1023C0008071C160416941F001014161C16841F022
:1023D0002001C16018467047704700007047000038
:1023E000FEE70000FEE70000FEE700007047000087
:1023F00070470000FEF7AEBD70470000406A002144
:10240000C185C184FFF74CBC81B090F842102229ED
:1024100021D183680246B3F5805F09D152F8281FA5
:1024200052F8183C002B63D003685B680AE000BFD9
:1024300052F8281F13B90369002BF5D003685B68B5
:1024400003F07F030B70116801311160C18D0139F8
:102450000A04C18502D001B0704700BF0168CA6894
:1024600022F02002CA60CA6822F48072CA604A69F7
:1024700022F001024A61202180F8421000214163CC
:10248000026B012A3CD10163016851E8031F026815
:1024900021F0100142E80313DBB1016851E8031F8A
:1024A000026821F0100142E8031393B1016851E87A
:1024B000031F026821F0100142E803134BB10168C9
:1024C00051E8031F026821F0100142E80313002BBA
:1024D000DAD101680A68D20606D5002200920A689D
:1024E0000092496800910099818D01B0FFF7D6BB39
:1024F000026852686FF35F2221F8022B8162A5E720
:1025000001B0FFF769BF000010B540F25C14C2F2E1
:10251000000440F27001C2F2000120461E22FFF7C3
:1025200031FF2046FFF7BEFB2046BDE81040FFF715
:10253000B9BB0000FEE7000094B0FEF719FD0024CF
:102540000120CDE90F44CDE90D440A900E904FF4DF
:10255000E0104FF48031022513900AA80394CDE9CE
:102560000144CDE90B14CDE91151FEF735FF28B137
:10257000EFF3108072B600BFFEE700BF0F20CDE979
:1025800004054FF48060CDE9070404A802210694F5
:10259000FEF718FE20B1EFF3108072B6FEE700BF21
:1025A0004FF400400227029068460097FEF788FD2E
:1025B00020B1EFF3108072B6FEE700BF41F21800C1
:1025C000C4F20200016841F2000841F0100101600C
:1025D0000168C4F2010801F010010A910A9901682A
:1025E000002241F02001016001684FF4604601F0D3
:1025F00020010A910A990168002441F00401016058
:10260000016801F004010A910A99016841F008018A
:10261000016000684FF4604100F008000A900A98D9
:102620004046FEF78BFCA8F50065284613210022E2
:102630004FF0130AFEF782FC0A960AAE4FF001092A
:1026400040463146CDE90B940D97FEF767FB2846CF
:102650003146CDE90AA9CDE90C47FEF75FFB40F210
:102660007006C2F2000608F5A051304640F8201F5F
:102670004FF4602104730475C161C0E90144C0F8DE
:102680001090FEF7D7F928B1EFF3108072B600BFB3
:10269000FEE700BF0920CDE90A0906F120000AA9DA
:1026A0000C94FEF70BF928B1EFF3108072B600BF5F
:1026B000FEE700BF40F2CC000021C2F200004FF064
:1026C00080424FF6FF73CDE90411CDE90F11CDE93A
:1026D0000D11C0E90021C0E9021301618161FFF71A
:1026E0003DFA28B1EFF3108072B600BFFEE700BFDD
:1026F00040F2CC00C2F2000004A9FFF783F828B131
:10270000EFF3108072B600BFFEE700BF60200A90B2
:102710000020CDE90B000E9040F2CC00C2F2000088
:102720000AA90022FFF71AF920B1EFF3108072B660
:10273000FEE700BF40F2CC00C2F200000AA904226A
:10274000FFF70CF920B1EFF3108072B6FEE700BF7F
:1027500040F2CC00C2F200000AA90822FFF7FEF8FE
:1027600020B1EFF3108072B6FEE700BF40F2CC005C
:10277000C2F200000AA90C22FFF7F0F820B1EFF333
:10278000108072B6FEE700BF40F2CC00C2F200003B
:10279000FFF778F840F214100021A8F58632C2F253
:1027A00000004FF6FF73CDE90411CDE90F11CDE91B
:1027B0000D11C0E90021C0E9021301618161FFF739
:1027C000CDF918B1EFF3108072B6FEE740F21410A5
:1027D000C2F2000004A9FFF715F818B1EFF310805A
:1027E00072B6FEE760200A900020CDE90B000E9043
:1027F00040F21410C2F200000AA90022FFF7AEF85E
:1028000020B1EFF3108072B6FEE700BF40F2141063
:10281000C2F200000AA90422FFF7A0F820B1EFF3EA
:10282000108072B6FEE700BF40F21410C2F2000042
:10283000FFF728F840F25C1508F52050C2F20005B9
:102840004FF4165100220C2385E807002846C5E9FD
:102850000322C5E90532EA61FFF7DCFC20B1EFF3A2
:10286000108072B6FEE700BF2868DFF84CC0C16870
:1028700041F02001C16010A188690F1D8CCFD1E902
:102880000454B061888B897FC6E900C2C6E902376B
:10289000C6E90454B083B1774FF4FA70FEF72AFA10
:1028A00040464FF40051FEF741FB4FF4FA70FEF73B
:1028B00021FA00F011F8EFE7522C723D3133382C39
:1028C000673D3131322C623D32332C423D3535216A
:1028D0002121212121210000F0B583B040F27000B8
:1028E000C2F2000000784238102850D8DFE800F02B
:1028F0000A4F184F4F264F4F4F4F4F4F4F4F344FA8
:10290000520000BF40F2700040F2C002C2F200006C
:102910003BA1C2F2000203B0BDE8F040FDF772BC7B
:1029200040F2700040F2C102C2F2000038A1C2F2CF
:10293000000203B0BDE8F040FDF764BC40F2700057
:1029400040F2C202C2F200003BA1C2F2000203B098
:10295000BDE8F040FDF756BC40F2C30440F2700001
:10296000C2F20004C2F2000027A12246FDF74AFC91
:1029700001280CD120784FF47A71012840F2CC0064
:10298000C2F20000006808BF4FF4FA61816303B02F
:10299000F0BD00BF40F2C80540F2C60440F2C507D2
:1029A00040F2C40640F27000C2F20005C2F2000418
:1029B000C2F20007C2F20006C2F2000016A12A46C7
:1029C0002346CDE90067FDF71DFC0428DFD12878F8
:1029D000397823783778484348F281024B4379436A
:1029E00050435343514340F21412C2F200021268A2
:1029F000C00DDB0DC90D50639363D16303B0F0BD0F
:102A0000422C256868750000502C25686875000008
:102A1000442C256868750000522C723D2568687545
:102A20002C673D256868752C623D256868752C42C9
:102A30003D25686875000000472C25686875000012
:102A400010B500290AD00878002807D00548784436
:102A5000FDF7E8FE002801D0002010BD02487844B0
:102A600010BD00006A0000006200000000000000CD
:102A7000000000000102030406070809000000002E
:102A800001020304010202030405060708090A0BF8
:102A90000C0D0E0F10100000C82B000800000020C5
:102AA0001000000050010008D82B00081000002082
:102AB00098070000700100081001000043000000AA
:102AC000F8FFFFFF0040404040404040404041414F
:102AD00041414140404040404040404040404040F3
:102AE000404040404005020202020202020202028D
:102AF000020202020220202020202020202020028A
:102B00000202020202029090909090901010101019
:102B100010101010101010101010101010101010B5
:102B20000202020202028888888888880808080849
:102B30000808080808080808080808080808080815
:102B4000020202024000000000000000000000003D
:102B50000000000000000000000000000000000075
:102B60000000000000000000000000000000000065
:102B70000000000000000000000000000000000055
:102B80000000000000000000000000000000000045
:102B90000000000000000000000000000000000035
:102BA0000000000000000000000000000000000025
:102BB0000000000000000000000000000000000015
:102BC00000000000000000000100000010000000F4
:082BD0000024F40000000000E5
:04000005080000ED02
:00000001FF
