:020000040800F2
:1000000058090020C5010008513200084932000893
:100010004D320008150A00083135000800000000C4
:10002000000000000000000000000000593200083D
:10003000190D000800000000553200085D3200086C
:10004000DF010008DF010008DF010008DF01000810
:10005000DF010008DF010008DF010008DF01000800
:10006000DF010008DF010008DF0100080D0D0008B6
:10007000DF010008DF010008DF010008DF010008E0
:10008000DF010008DF010008DF010008DF010008D0
:10009000DF010008DF010008DF010008DF010008C0
:1000A000DF01000865320008DF010008DF010008F9
:1000B000DF010008DF010008E9330008DF01000864
:1000C000DF010008DF010008DF010008DF01000890
:1000D000DF01000801350008DF010008DF0100082A
:1000E000DF010008DF010008DF01000800F002F86E
:1000F00000F059F814A696E8000CB244B344DA456F
:1001000001D100F050F8BAE80F000FA696E83000D1
:10011000A5EB040504EB0607AAEB0704A7F101070A
:100120004FEA15154FEA3414A4F10104AC4201D38F
:1001300000F039F813F0010F18BFFB1A43F0010368
:1001400000F001F8DBE71847F84700001848000006
:10015000103A24BF78C878C1FAD8520724BF30C8F3
:1001600030C144BF04680C60704700007047000055
:100170000023002400250026103A28BF78C1FBD8B0
:10018000520728BF30C148BF0B6070471FB500F051
:100190009DFB04000020002104F046FA401C606032
:1001A0001FBD10B510BD00F055FB1146FFF7EEFF67
:1001B00003F0C0F900F07CFB03B4FFF7F2FF03BCCF
:1001C00000F0C8FB0948804709480047FEE7FEE702
:1001D000FEE7FEE7FEE7FEE7FEE7FEE7FEE7FEE7F7
:1001E00004480549054A064B704700006132000883
:1001F000ED00000858030020580900205805002091
:10020000580500200FB400B58DB010A909900091D9
:100210000B904FF0FF300A9000200C900648784475
:100220000690064878446A4607900F9909A800F09E
:100230001DF90DB05DF814FB6B0200008302000095
:100240002DE9FF5F1D464FF0FF3B91464FF0000840
:100250005F46D5E90146A96901987F1C8847296A4C
:10026000824688470028F6D1BAF1FF3F0CD0002E15
:1002700024F4C06419DD600614D5BAF12B0F09D03F
:10028000BAF12D0F0ED103E0584604B0BDE8F09F3F
:1002900044F48064A96901987F1C8847761E8246D1
:1002A000002E02DDBAF1300F03D0B9F1000F26D0D5
:1002B00032E0A969761E01987F1C44F400748847D7
:1002C000002E824605DDBAF1780F06D0BAF1580F3C
:1002D00003D0B9F1000F10D01EE0B9F1000F02D029
:1002E000B9F1100F18D1A969761E01987F1C24F46A
:1002F000007488478246102002E0082000E00A20AF
:10030000814609E0A96908FB0908761E01987F1C4F
:1003100044F4007488478246002E05DD4946504665
:1003200000F090F80028EDDAE96901988847A00507
:1003300002D46FF00100A8E7E00725D1600613D5CD
:10034000600502D5C8F1000000E0404629680A1D9A
:100350002A600968220501D5087015E0220701D539
:10036000088011E008600FE02868011D296000681E
:10037000210502D580F8008006E0210702D5A0F80B
:10038000008001E0C0F8008038467EE7401ECAB217
:1003900010F8011F8A4202D00029F9D100207047CD
:1003A00040EA0103024630B59B0710D14FF00134FB
:1003B00000E008C208C91D1B9D4315EAC41FF8D000
:1003C00013F0FF0102F8011B0DD01B0AF8E711F82A
:1003D000013B002B02F8013B05D011F8013B002B3B
:1003E00002F8013BF3D130BD10B5431C02E010F818
:1003F000011B71B18107FAD14FF0013202C88C1A8A
:100400008C4314EAC211F9D0C01A0A0603D0C01EE8
:1004100010BDC01A10BD0A0401D0801E10BD090213
:10042000FCD0401E10BD421E12F8013F002BFBD134
:1004300011F8013B002B02F8013BF9D170477047DE
:10044000704770473A2800D2303820F02002412A05
:1004500001D3A2F13700884201D34FF0FF3070473B
:10046000026811441378016018467047D16005494D
:1004700079445161044979441162002111611146A6
:1004800000F02EB8EDFFFFFF53000000426842B1BC
:10049000016811F8013B23B1521EC0E90012184651
:1004A00070470121C160881E704742685AB1C36815
:1004B000016843B983688B4205D0491E521CC0E9CC
:1004C0000012002070474FF0FF30704710B504460F
:1004D00000F0E6F90068005D00F0010010BD0000CA
:1004E0002DE9F34F4FF0000A0C4656468DB001201F
:1004F0000C9001F10C000B9062690B980121904760
:10050000051E2DD0252D2CD0216A8847C0B16269E7
:100510000B9801219047216A88470028F7D162692A
:10052000411E0B98904700E0761CA1690D98884702
:10053000216A88470028F7D1E1690D988847DBE7F1
:10054000A1690D988847A842074601D1761CD3E7D8
:10055000E1690D9888477F1C02D1BAF1000F6FD076
:100560006BE162690B9800273D46394690472A287F
:1005700004D162690B98012190470125DFF8D082F0
:1005800062690B9801219047A0F130010A290AD233
:100590004745E5DC07EB870100EB4107303FDFD43F
:1005A00045F01005ECE7E90601D46FF000476C2830
:1005B0000AD04C2814D0682815D06A280DD0742889
:1005C0001CD07A281AD01DE062690B98012190474F
:1005D0006C2802D045F0040514E045F002050DE05A
:1005E00045F020050AE062690B98012190476828D0
:1005F00002D045F0080505E045F4006562690B98F6
:1006000001219047C4E9015765283DD019DC5828DD
:100610007AD00CDC452837D004DC252826D04128A8
:100620009ED131E046282FD0472899D12CE05B2875
:1006300077D0612828D063287CD0642823D15AE061
:10064000F6E06F2848D008DC66281DD067281BD04C
:10065000692821D06E2816D127E0702845D073284C
:1006600068D0752847D078280DD14DE0A1690D9844
:100670008847252805463FF469AFE1690D9888470A
:100680006D1C3FF46AAFD8E00D9923466A466FF0BF
:100690000100AFF30080C5E045F0400023464FF075
:1006A00000026060A80736D43EE0E8077FF447AF59
:1006B0002068011D21600068290501D506701BE72F
:1006C000290701D5068017E7A90703D5F117C0E967
:1006D000006111E706600FE745F0400023464FF048
:1006E00008026060A80716D41EE040F60E0125EA55
:1006F0000100606016E045F0400023464FF00A021A
:100700006060A80707D40FE045F040006060A807CC
:1007100008D5234610220D996FF00100AFF3008039
:1007200080E007E0102223460D996FF00100FFF7EB
:1007300087FD77E04FF0000963284F46C8464B46D7
:10074000CB4602D05B2806D038E0E80601D4012071
:10075000A060012732E06269D4F80CB00B98012147
:1007600090475E2807D14FF0010949466269D4F8E5
:100770000CB00B989047216939B900210A4603ABA8
:1007800043F82120491C0829FADBD8B3216949B371
:1007900008F1010862690B98012190475D28F4D1A6
:1007A000B9F1000F09D0002003A951F82020D2434D
:1007B00041F82020401C0828F7DB03AB2069002803
:1007C00020794FEA40701ED05B462246CDF800806B
:1007D000CDE901970D9900286FF0010020DAAFF301
:1007E00000801FE0C11703AA00EBD1614B1121F07B
:1007F0001F0102EB8302411A136801208840034362
:100800001360C7E719E00D99224600286FF0010038
:10081000009702DAAFF3008004E0AFF3008001E05C
:10082000AFF3008000280ADA401C06D10C9820B1F2
:100830004FF0FF300FB0BDE8F08F5046FAE7E90700
:1008400001D10AF1010A064400200C9054E6000090
:10085000CCCCCC0C754600F035F8AE4605006946A8
:10086000534620F00700854618B020B5FFF7B8FCC6
:10087000BDE820404FF000064FF000074FF00008A1
:100880004FF0000BAC46ACE8C009ACE8C009ACE8DE
:10089000C009ACE8C00921F007018D46704700008F
:1008A00010B500F013F8001D10BD00BF7D3D000025
:1008B00010B50446AFF300802046BDE81040FFF7B6
:1008C0007BBC0000004870471800002000487047BB
:1008D000380000204FF0013C50F8042B51F8043B45
:1008E0009A4221D1A2EB0C03934313EACC1317D104
:1008F00050F8042B51F8043B9A4215D1A2EB0C039B
:10090000934313EACC130BD150F8042B51F8043B5A
:100910009A4209D1A2EB0C03934313EACC13DBD028
:100920004FF00000704700BFD01A01BAB1FA81F150
:1009300001F0180122FA01F0CB40DBB2C0B2C01ABC
:10094000C1F120012CFA01F3D11A914311EAC3112C
:10095000E6D1704701491820ABBEFEE72600020031
:1009600070470000B0B582B00446002001902168B5
:100970008A68D2074BD1886840F00100886040F255
:100980001000C2F2000000684DF68361C4F21B3112
:10099000A0FB0101880C01900198A0B101980138D9
:1009A0000190019878B1019801380190019850B1F7
:1009B000019801380190019828B1019801380190FF
:1009C00001980028EAD100F0A7FE21688968C907CC
:1009D0001CD1054603E000BF8068C00716D100F0B7
:1009E0009BFE411B20680329F6D38168C907F3D118
:1009F000A06A40F01000A062E06A40F00100E062EE
:100A0000002084F82400012002B0B0BD002002B014
:100A1000B0BD0000FEE70000F0B583B041F2040570
:100A20003220CEF2000501902C6801F095F84DF6C9
:100A30008366C4F21B36A0FB06010198890C48436B
:100A4000019000BF28680199001B88420ED22868D7
:100A50000199001B884209D228680199001B88422D
:100A600004D228680199001B8842EBD340F60004A9
:100A7000C4F201042046012100F042FE10B100251D
:100A80002AE000BF642002902F6801F065F8A0FB07
:100A900006010298890C4843029000BF2868029919
:100AA000C01B88420ED228680299C01B884209D216
:100AB00028680299C01B884204D228680299C01B8A
:100AC0008842EBD320460121012500F019FE0028C1
:100AD00008BF4FF0FF3500BF2046012100F010FE97
:100AE0000028F9D1E8B203B0F0BD000070B50446AB
:100AF00000F080F8FFF790FF40F28006C2F2000697
:100B0000307000F021F8707000F01EF8B07000F046
:100B10001BF8F07000F018F8307100F015F87578D7
:100B2000B2780146F07833792A4402441A448A4262
:100B3000F18018BF70BD03F02BFE2060284603F043
:100B400027FE606070BD00002DE9F04F81B041F2DA
:100B5000040540F600044DF6836ACEF20005C4F2A7
:100B6000010400264FF001084FF03209C4F21B3A8D
:100B70002046012100F0C4FD0028F9D0CDF80090F6
:100B80002F6800F0E9FFA0FB0A010098890C484398
:100B9000009000BF28680099C01B88420ED22868C8
:100BA0000099C01B884209D228680099C01B88425E
:100BB00004D228680099C01B8842EBD3204601214B
:100BC00000F09EFDC6F1070108FA01F14BEA0107AA
:100BD000002808BF2BEA01072046012100F090FD04
:100BE0000028F9D10136082EBB46C1D1F8B201B0B8
:100BF000BDE8F08FF0B585B04EF6FC50CEF20000A7
:100C0000016841F2040521F0807101600168CEF2B3
:100C1000000541F08071016055F8040C40F60004B5
:100C200020F0010045F8040C55F8040CC4F201044E
:100C300040F0010045F8040C0020286000BF00BF10
:100C400000BF296803900120CDE901000220049033
:100C500001A9204600F04CFC20460121002200F0B2
:100C600055FD44F2506001902F6800F075FF4DF67D
:100C70008366C4F21B36A0FB06010198890C484329
:100C8000019000BF28680199C01B88420ED22868D5
:100C90000199C01B884209D228680199C01B88426B
:100CA00004D228680199C01B8842EBD32046012159
:100CB000012200F02BFD1E2001902F6800F04CFF58
:100CC000A0FB06010198890C48430190286801990E
:100CD000C01B88420ED228680199C01B884209D2E5
:100CE00028680199C01B884204D228680199C01B5A
:100CF0008842EBD3002001210490CDE9011003903C
:100D000001A9204600F0F4FB05B0F0BD40F28C10C4
:100D1000C2F2000000F0D8BA70470000EFF3108074
:100D200072B600BFFEE7000010B581B0002200924D
:100D300090F82420012A03D10221084601B010BDF9
:100D40004B680122062B80F8242033D8D0F800C04D
:100D500003EB83035A1F1F23DCF834E003FA02F489
:100D60000B682EEA040403FA02F22243CCF8342082
:100D7000092B03EB430249D9DCF80CE01E3A0724A7
:100D8000896894402EEA0404914023F00102214333
:100D9000102ACCF80C1043D142F20841C4F20101F0
:100DA000A1F10802944543D0816A41F0200181629B
:100DB000012136E0D0F800C00C2B03EB830213D8DE
:100DC000233A1F23DCF830E003FA02F40B682EEA22
:100DD000040403FA02F22243CCF83020092B03EB7F
:100DE0004302C9D812E000BF413A1F23DCF82CE0CF
:100DF00003FA02F40B682EEA040403FA02F2224317
:100E0000CCF82C20092B03EB4302B5D8DCF81030CA
:100E1000072489689440A34391401943CCF81010EB
:100E20000021002280F82420084601B010BD00BF38
:100E30000A681202F4D40A68102B42F400020A6015
:100E4000EED140F21001C2F2000109684DF6836252
:100E5000C4F21B32A1FB0212910C01EB810149008B
:100E6000009100990029DBD0009901390091009987
:100E70000029D5D000990139009100990029CFD0DF
:100E800000990139009100990029C9D000990139D0
:100E90000091009900294FF00001E5D1C1E7000061
:100EA0000068C06C70470000002804BF0120704734
:100EB000B0B50446806A28B121688868C0070CD1A3
:100EC00015E000BF0020E06284F82400204600F016
:100ED0009BF821688868C00709D0886820F0010065
:100EE000886000F019FC21688A68D20726D1A06AC0
:100EF000C0063AD4A06A41F2021290430230A062C6
:100F0000E069D4E9013240EA030C531EB3FA83F3DB
:100F10005D091346B2F5807F18BF2B02207D257B2B
:100F200001284CEA450030D135B3A56A45F02005CB
:100F3000A562E56A45F00105E56226E0054602E0A6
:100F40008868C007D3D000F0E7FB401B2168032866
:100F5000F6D38868C007F3D0A06A40F01000A06202
:100F6000E06A40F00100E062A06AA06A40F0100070
:100F7000A0620120B0BD00BFD4F818C04EF6000535
:100F8000CFF6FF7505EB4C352B434D68B2F5807FEE
:100F900025F4694543EA05034B608B684FF2FD7504
:100FA000CFF6E17503EA050343EA00038B6001D045
:100FB000012A07D122690023CFF6F07303EB025216
:100FC00001E000BF0022CB6A23F470031A43CA6217
:100FD000896840F6FE62CFF61F721140814207D148
:100FE0000020E062A16A012262F30101A162B0BDAA
:100FF000A06A40F0100020F00200A062E06A40F019
:101000000100E0620120B0BDB0B586B004460068C2
:1010100042F60001C4F2010188424FF00001CDE91F
:101020000411CDE9021147D042F20041C4F201019E
:10103000884262D141F21800C4F20200016841F412
:1010400000710160016801F400710191019901686A
:1010500041F008010160006802A900F00800019059
:101060000198022002900320039040F60040C4F251
:10107000010000F03DFA40F28C150820C2F2000594
:10108000C4F202000021C5E9000105F10800802238
:101090004FF480734FF4806C4FF0200E80E80E50B8
:1010A0002846E96100F0E0F9002818BFFFF736FE96
:1010B00025626C6206B0B0BD41F21800C4F20200B5
:1010C000016841F480610160016801F4806101916F
:1010D0000199016841F008010160006802A900F06F
:1010E000080001900198012002900320039040F62F
:1010F0000040C4F2010000F0FBF906B0B0BD0000F2
:1011000010B5044690F82400012804BF022010BD49
:10111000012084F824002046FFF724FC20B10020A1
:1011200084F82400012010BD42F2044C2068A16A1A
:10113000C4F2010C40F2013291430CF57F7201F5CB
:1011400080719042A16233D0A16A21F48011A16222
:101150004168490504D5A16A012363F30D31A162F9
:10116000A16A0023C9044FF0000144BFE16A21F0E5
:101170000601E1626FF0020184F8243001608168A9
:1011800001F46021B1F5602F06D190420AD1DCF85C
:10119000001011F4702F05D0816841F48011816036
:1011A000002010BD816841F4A0018160002010BDC5
:1011B000DCF8001011F4702FC6D0A16A41F4801140
:1011C000A162DCF800104905C5D4C9E7014690F8D2
:1011D0002100022816D10868D1E90FC3026822F065
:1011E0000E020260026822F001020260012000FA91
:1011F00003F2CCF8042081F821000020002281F8BD
:1012000020207047042088630120002281F82020DC
:101210007047000090F82110022923D1026811685C
:1012200021F00E0111602F211368C4F202018A42DD
:1012300040F20401C4F2020123F00103136015DD42
:101240003023C4F202039A421CD04423C4F20203A6
:101250009A421BD05823C4F202039A421CD14FF485
:10126000803321E004218163012070470823C4F208
:1012700002039A420ED01C23C4F202039A420BD1FD
:10128000102311E04FF480730EE000BF4FF4805341
:101290000AE000BF012307E001F1680C4FF0807302
:1012A000624508BF4FF480130B60012180F82110C4
:1012B000426B002180F8201022B180B590470021B8
:1012C000BDE880400846704710B5D0E90FCE0168F0
:1012D000DCF800300A6823FA0EF35C072AD512F016
:1012E000040427D00A68920603D40A6822F0040294
:1012F0000A602F22C4F20202914240F20402C4F2B8
:1013000002025BDD3023C4F20203994272D044230F
:10131000C4F20203994273D05823C4F202039942E3
:1013200040F07A804FF480231360C16A002940F0B6
:1013300098806FE09C0727D512F0020424D00A6839
:10134000920606D40A6822F00A020A60012280F896
:1013500021202F22C4F20202914240F20402C4F280
:1013600002023BDD3023C4F20203994260D04423E1
:10137000C4F2020399425FD05823C4F20203994297
:1013800060D14FF4003365E01B0743D512F008022B
:1013900008BF10BD0A6822F00E020A60012101FA9E
:1013A0000EF2CCF80420816380F82110016B00223A
:1013B000002980F8202054D12CE000BF0823C4F27B
:1013C0000203994222D01C23C4F20203994223D182
:1013D00040231360C16A002943D11BE00823C4F2F3
:1013E000020399422CD01C23C4F20203994229D152
:1013F00020232FE04FF480631360C16A89BB09E0AA
:101400004FF480431360C16A59BB03E004231360A7
:10141000C16A31BB10BD00BF02F168044FF08063A8
:10142000A14208BF4FF480031360C16AC9B9F1E754
:101430004FF400730EE000BF4FF400530AE000BF0A
:10144000022307E002F168044FF00073A14208BFD5
:101450004FF400131360816A0022002980F82020D5
:10146000D8D0BDE810400847014600284FF00100E1
:1014700008BF70472DE9F0470A684FF6F873CBF6BE
:10148000FD7302EB030C4CF6CD43CCF6CC43ACFB26
:10149000033C6FF00307002607EA9C07C4F202062C
:1014A00001F10C0AC1E90F670227D1E9013E9AE870
:1014B0003004D1E9069881F82170176843F6F07678
:1014C000B7433B4343EA0E0323432B4343EA0A0358
:1014D00043EA090343EA0803136000228A6381F8A0
:1014E000210081F820200020BDE8F047704700006F
:1014F0002DE9F04F82B00E68002E00F0FD8041F221
:101500000042C4F20102042340F2004E904208BFA0
:1015100003234FF6FF7CC4F2010E00930024012345
:10152000C1F2100C4FF0000A4FF0000944E000BF78
:10153000012704F00C030F229A402BEA020207FA5B
:1015400003F34FEA9A051A4346F825204E6840F205
:101550000C45F202DEF8082054BF22EA080242EAF3
:101560000802C4F20105CEF808202A68B30254BF6D
:1015700022EA080242EA08022A60B303DEF80420E5
:1015800054BF22EA080242EA0802F303CEF804201C
:10159000DEF800204FF0010354BF22EA080242EABD
:1015A0000802CEF800200E680AF1010A36FA0AF2A3
:1015B00004F1040400F0A08003FA0AFB16EA0B0809
:1015C000F1D04E68664511DC122E55D8DFE806F0E2
:1015D000340A444854545454545454545454545451
:1015E000544C5000D1F80C9046E000BF4FF6FF720B
:1015F000C1F2210296420FDC0022C1F21102964292
:101600001AD00022C1F21202964215D00022C1F275
:101610002102964210D02FE00022C1F2220296420F
:101620000AD00022C1F23102964205D00022C1F256
:101630003202964220D100BF8A684AB1012A14BF03
:10164000C0F814B0C0F810B04FF0080914E000BFA3
:101650004FF0040910E000BFCA6802F108090BE06E
:101660004FF0000908E000BFCA6802F1040903E076
:10167000CA6802F10C0900BF22460646B8F5807F11
:1016800024BF203A043637680F25954027EA050520
:1016900009FA02F22A433260CA79D2067FF583AF93
:1016A00041F21803C4F202031A68AEF57E7642F0E6
:1016B00001021A601A6802F001020192019A2AF0EE
:1016C000030256F802B040F60002C4F20102904252
:1016D00010D040F60042C4F2010290423FF428AF1D
:1016E00041F20002C4F20102009F904208BF0227AB
:1016F0001FE700BF00271CE702B0BDE8F08F000025
:101700008068084018BF012070470000002A08BF09
:10171000090401617047000040F25430C2F2000039
:101720000068704740F2080040F25431C2F20000F5
:10173000C2F2000100780A68104408607047000097
:1017400080B542F20000C4F20200016841F01001CD
:101750000160032000F08CF80F2000F005F800F085
:1017600027F8002080BD000070B540F20806C2F2E4
:10177000000640F210013278C2F200014FF47A7391
:101780000968B3FBF2F20446B1FBF2F1084600F03F
:1017900011FC0F2C4FF0010508D838B94FF0FF307D
:1017A00021460022002500F037F87460284670BDFD
:1017B00082B041F21800C4F202000168022241F036
:1017C00001010160016801F0010101910199416885
:1017D00041F080514160406800F0805000900098D6
:1017E0000420C4F20100016862F31A61016002B0D2
:1017F00070470000002848BF704700F01F01012219
:1018000002FA01F11C2202EAD0004EF20012CEF2DE
:10181000000281507047000010B54EF60C5CCEF20D
:10182000000CDCF80030C3F3022E8EF00704042C09
:1018300028BF0424BEF103034FF0FF3E0EFA04F468
:1018400038BF0023A14399400EFA03F39A43114392
:1018500000F00F0200F160430901043A03F564430C
:101860006244002848BF02F10C03197010BD00004B
:101870004EF60C51CEF200010A684FF6FF031A40F3
:1018800060F30A2242F0806040F0FD70086070470B
:101890002DE9F04182B00446007841F21C06C007F1
:1018A000C4F202064AD030685FEAC00808D4306843
:1018B00040F080503060306800F080500190019816
:1018C00047F20007C4F200073868C00512D4386830
:1018D00040F480703860FFF71FFF05463868C00588
:1018E00008D4FFF719FF401B6428F7D9032002B082
:1018F000BDE8F081706810F4407012D0616801F4A6
:10190000407188420DD0706840F24042C4F24222D9
:10191000012320F4407113600023C007136071603D
:1019200026D17068616820F440700843B8F1000F58
:10193000706003D4306820F08050306020688107E8
:1019400007D556F8181CA26821F44041114346F807
:10195000181CC00607D556F8180CE16820F4800062
:10196000084346F8180C002002B0BDE8F08100BF23
:10197000FFF7D2FE054641F2883700BF7068800746
:10198000CFD4FFF7C9FE401BB8424FF00300F5D992
:10199000EAE70000002804BF012070472DE9F0436A
:1019A00081B042F20008C4F202080446D8F80000F0
:1019B0000D4600F0070088420CD2D8F8000020F055
:1019C00007002843C8F80000D8F8000000F007001E
:1019D000A8426CD1206841F204098107C4F20209CF
:1019E00017D5410705D5D9F8001041F4E061C9F8D1
:1019F0000010010705D5D9F8001041F46051C9F86D
:101A00000010D9F80010A26821F0F0011143C9F8C4
:101A10000010C00742D1D8F8000000F00700A8422B
:101A20000CD9D8F8000020F007002843C8F80000BF
:101A3000D8F8000000F00700A84238D1206841071C
:101A400007D5D9F80010E26821F4E0611143C9F824
:101A50000010000708D5D9F80000216920F4605073
:101A600040EAC100C9F80000D9F8002002F00C00DB
:101A7000082841F20020C0F27A0051D144F62E131A
:101A8000C2F38341C0F60003595CD2033CD440F654
:101A90000010C0F23D00484342E000BF60680228E9
:101AA0000AD001282AD159F8041C890308D401203E
:101AB00001B0BDE8F08300BF59F8041C8901F6D5D8
:101AC000D9F8001021F003010843C9F80000FFF71E
:101AD00023FE064641F28837D9F80000616800F01D
:101AE0000C00B0EB810F96D0FFF716FE801BB842BA
:101AF000F2D9032001B0BDE8F08300BF59F8041CFF
:101B00008907D4D5DCE700BFD9F8002044F62C13B0
:101B1000C2F34042C0F600039A5C4843B0FBF2F0C7
:101B2000D9F8001044F61412C1F30311C0F60002F4
:101B3000515C40F2100220FA01F140F20C00C2F2B6
:101B400000000068C2F200021160FFF70DFE0020E5
:101B500001B0BDE8F083000040F21000C2F20000C6
:101B60000068704740F2100041F20401C2F2000028
:101B7000C4F202010068096844F62412C1F302218C
:101B8000C0F60002515CC8407047000040F21000EF
:101B900041F20401C2F20000C4F2020100680968C7
:101BA00044F62412C1F3C221C0F60002515CC840C1
:101BB00070470000002804BF012070472DE9F04164
:101BC00082B00446007841F20006C007C4F2020663
:101BD0000CD0706800F00C00042840F08180306860
:101BE000800303D56068002800F04E8120788007CC
:101BF0001BD5706810F00C0F09D0706800F00C0055
:101C0000082840F08B807068C00300F1878030683E
:101C1000800703D52069012840F03681306861696A
:101C200020F0F80040EAC10030602078000713D4AB
:101C3000207840072CD4E569002D00F020817068E1
:101C400000F00C00082840F0AF80012D40F00C811E
:101C5000012002B0BDE8F081A069002800F08C806E
:101C60000020C4F242200121C0F88014FFF754FD87
:101C7000054600BF706A800700F1BA80FFF74CFD8F
:101C8000401B0228F6D9032002B0BDE8F08100BF56
:101C9000F0695FEAC00808D4F06940F08050F06154
:101CA000F06900F080500090009847F20007C4F2FD
:101CB00000073868C0054DD4386840F4807038603B
:101CC000FFF72AFD054600BF3868C00542D4FFF77C
:101CD00023FD401B6428F7D9032002B0BDE8F08142
:101CE000706800F00C00082803D17068C0033FF54D
:101CF00076AF6068002800F00981B0F5A02F00F0F1
:101D00001D81B0F5803F00F01D81306820F48030E7
:101D10003060306820F4802017E100BF206900287F
:101D200040F20000C4F2422000F08C8001210160EA
:101D3000FFF7F2FC054600BF306880073FF56EAF45
:101D4000FFF7EAFC401B0228F6D9032002B0BDE8E9
:101D5000F08100BFE068002800F09A80052800F0BC
:101D6000B180012800F0B280306A20F001003062BA
:101D7000306A20F00400ACE00020C4F242200021D0
:101D8000C0F88014FFF7C8FC054600BF706A8007E2
:101D90007FF54EAFFFF7C0FC401B0228F6D90320A9
:101DA00002B0BDE8F08100BF0027C4F24227002046
:101DB0003866FFF7B1FC022D05460DD13068800171
:101DC00040F1D680FFF7A8FC401B02284FF003002B
:101DD000F4D902B0BDE8F081306880014FD5FFF73B
:101DE0009BFC401B02284FF00300F5D9F1E700BF30
:101DF00040F21000C2F20000006844F6D351C1F274
:101E00006201A0FB0101480A019000BF00BF0198D8
:101E1000411E002801913FF40BAF00BF0198411E05
:101E2000002801913FF404AF00BF0198411E002833
:101E300001913FF4FDAE00BF0198411E00280191C1
:101E4000E4D1F5E600210160FFF766FC054600BF1E
:101E5000306880077FF5E9AEFFF75EFC401B022883
:101E60004FF00300F4D9B4E77068216A00F48032BF
:101E70008A4209D1616A00F47010884204D10020BE
:101E800002B0BDE8F08100BF012002B0BDE8F081E2
:101E9000306A20F001003062306A20F004003062C5
:101EA000FFF73AFC054641F2883700BF306A8007E9
:101EB00022D5FFF731FC401BB8424FF00300F5D9A3
:101EC00087E700BF306A40F004003062306A40F0BB
:101ED00001003062FFF720FC054641F2883700BF61
:101EE000306A800708D4FFF717FC401BB842F7D9C7
:101EF000032002B0BDE8F081B8F1000F3FF59BAEC2
:101F0000F06920F08050F06195E600BF306820F461
:101F100080303060306820F480203060FFF7FCFBB8
:101F2000054600BF306880037FF560AEFFF7F4FB25
:101F3000401B64284FF00300F4D94AE7306840F4AE
:101F400080203060306840F480303060FFF7E4FB80
:101F5000054600BF306880033FF548AEFFF7DCFB65
:101F6000401B6428F6D9032002B0BDE8F08100BF11
:101F7000206AB0F5803F05D17168A26821F4003174
:101F8000114371607168626A21F47411114308434E
:101F9000706001203866FFF7BFFB0446306880019F
:101FA0003FF56DAFFFF7B8FB001B02284FF00300B1
:101FB000F4D90EE7411E0020B0EB116F1CBF0120C9
:101FC00070474EF21002CEF2000251604EF62351DD
:101FD000CEF20001F0230B70072190601160704772
:101FE000704700007047000090F83C20012A4FF035
:101FF000020236D010B580F83D200268D2F804E025
:10200000D2F808C00C682EF07003234340F2FF742E
:10201000C4F20004A24253600ADCB2F1804F13D034
:1020200040F20043C4F200039A420DD011E000BF19
:1020300042F60043C4F201039A4205D040F6000381
:10204000C4F200039A4204D149682CF0800319437A
:1020500091600121002280F83D1080F83C20BDE80D
:102060001040104670470000002804BF0120704750
:1020700010B5044690F83D0028B9002084F83C00D3
:10208000204600F067F8022084F83D00206840F206
:10209000FF730268C4F2000342F6004C9842C4F297
:1020A000010C15DCB0F1804F1AD040F20041C4F2AF
:1020B0000001884214D0984218DCB0F1804F1DD046
:1020C00040F20041C4F20001884217D01AE000BF7C
:1020D000604505D040F60001C4F200018842EAD113
:1020E000A16822F070020A439842E6DD604505D0FF
:1020F00040F60001C4F20001884203D1216922F4B4
:1021000040720A43A36922F08001D4F804E0E26837
:10211000194360450160C262C0F828E002D16169DC
:10212000CCF8301001214161002084F8461084F879
:102130003E1084F83F1084F8401084F8411084F871
:10214000421084F8431084F8441084F8451084F851
:102150003D1010BD80B584B0006840F20041C4F26B
:102160000001884226D040F60001C4F200018842F6
:1021700030D042F60041C4F20101884227D141F239
:102180001C00C4F2020050F8041C002241F400615B
:1021900040F8041C50F8040C002100F40060039087
:1021A00003981920FFF738FB192004B0BDE88040E0
:1021B000FFF720BB41F21C00C4F20200016841F0AD
:1021C00002010160006800F002000290029804B071
:1021D00080BD00BF41F21C00C4F202000168002271
:1021E00041F0040101600068002100F0040001904A
:1021F00001981E20FFF710FB1E2004B0BDE88040B0
:10220000FFF7F8BA90F83D1001291CBF0120704774
:10221000022180F83D10006840F2FF71C4F2000115
:10222000884209DCB0F1804F12D040F20041C4F284
:10223000000188420CD012E042F60041C4F20101D4
:10224000884205D040F60001C4F20001884206D160
:10225000816801F00701062904BF0020704701686A
:1022600041F00101016000207047000090F83D102E
:1022700001291CBF01207047022180F83D10006831
:1022800040F2FF72C168C4F20002904241F00101C5
:10229000C16009DCB0F1804F12D040F20041C4F2BD
:1022A000000188420CD012E042F60041C4F2010164
:1022B000884205D040F60001C4F20001884206D1F0
:1022C000816801F00701062904BF002070470168FA
:1022D00041F00101016000207047000090F83C20AF
:1022E000012A4FF0020200F0C58080B580F83D2041
:1022F000D0F800C04FF67772DCF8083023EA02020B
:10230000CCF808200B684F2B28DC1F2B44DD202B3A
:1023100045D0302B43D0402B40F0AE80D1F804E0C4
:10232000C968DCF82030DCF8202022F00102CCF86B
:102330002020DCF8182022F0F00242EA011123F0FC
:102340000A0242EA0E02CCF81810CCF82020DCF881
:10235000081041F0470121F0300180E06F2B27DDAC
:10236000B3F5005F48D0B3F5805F7AD0702B40F0B2
:102370008380D1E901E3C968DCF8082043EA0E0351
:1023800022F47F4243EA01211143CCF80810DCF823
:10239000081041F0770162E00BB1102B6CD1DCF832
:1023A000081021F07001194341F0070157E000BF08
:1023B000502B35D0602B5FD1D1F804E0C968DCF830
:1023C0002030DCF8202022F01002CCF82020DCF8AD
:1023D000182022F4704242EA013123F0A00242EABE
:1023E0000E12CCF81810CCF82020DCF8081041F0C0
:1023F000670121F0100132E0D1E901E3C968DCF89E
:10240000082043EA0E0322F47F4243EA01211143EC
:10241000CCF80810DCF8081041F480411FE000BF40
:10242000D1F804E0C968DCF82030DCF8202022F084
:102430000102CCF82020DCF8182022F0F00242EA59
:10244000011123F00A0242EA0E02CCF81810CCF86F
:102450002020DCF8081041F0570121F02001CCF8D1
:1024600008100022012180F83D10002180F83C1066
:10247000BDE88040104670470122F3E77047000036
:1024800010B5016804460869800744BFC8685FEA60
:10249000807039D40869400744BFC8685FEA40705B
:1024A0003ED40869000744BFC8685FEA007045D49D
:1024B0000869C00644BFC8685FEAC0604AD40869BA
:1024C000C0071CBFC8685FEAC07051D10869000628
:1024D00044BFC8685FEA006052D40869400644BF40
:1024E000C8685FEA406053D40869800646BFC86880
:1024F0005FEA806010BD6FF0200220460A61BDE8EF
:102500001040FFF76FBD00BF6FF0020008610120AF
:1025100020778869800743D02046FFF7AFFF45E06A
:102520006FF00400086102202077886910F4407F72
:1025300040D02046FFF7A2FF42E000BF6FF0080046
:10254000086104202077C86980073DD02046FFF746
:1025500095FF3FE06FF01000086108202077C86900
:1025600010F4407F3AD02046FFF788FF3CE000BFE0
:102570006FF001000861204600F0A4FA2168A5E789
:102580006FF0800008612046FFF72AFD2168A4E76C
:102590006FF040000861204600F096FA2168A3E73A
:1025A000204600F091F8204600F01CFA2168002037
:1025B00020776FE7204600F087F8204600F012FAF7
:1025C0002168002020776CE7204600F07DF8204647
:1025D00000F008FA21680020207769E7204600F023
:1025E00073F8204600F0FEF921680020207766E7A6
:1025F00070B586B0006840F20041C4F20001884224
:102600004FF00001CDE90411CDE9021140D0B0F145
:10261000804F56D141F21800C4F20200016840F622
:10262000000441F0040101600168C4F2010401F0FA
:10263000040101910199016802AD41F008010160B6
:102640000068022600F008000190019848F20C0092
:1026500002902046294603960596FEF749FF08207A
:10266000CDE9020604F5806029460596FEF740FF95
:102670000420C4F2010001684FF6FF42CFF6FF02CA
:10268000114041F0E06141F48071016006B070BD1D
:1026900041F21800C4F20200016841F00401016037
:1026A000006802A900F0040001900198C020029087
:1026B00002200390059040F60000C4F20100FEF7EE
:1026C00017FF06B070BD00007047000090F83C3066
:1026D000012B04BF022070474FEAB202032A3DD803
:1026E0002DE9F043DFE802F002407CB6036842F6D1
:1026F00000461D6A1A6AC4F2010622F001021A623B
:102700001A465C6852F818CFB3428E68D1F800E0E0
:1027100025F0020545EA06050CD1CE68D1E9057819
:1027200024F4407425F00C0526F004063C433543A0
:1027300044EA08042CF0730747EA0E075C609F61C7
:102740004F6809695F631D629F6947F008079F61D1
:102750009F6927F004079F61ACE000BF01210022C0
:1027600080F83C2008467047036842F600461D6A20
:102770001A6AC4F2010622F010021A621A46D3F84D
:1027800004C052F8184FB3428E68D1F800E025F02B
:10279000200545EA06150FD1CE68D1E905986FF0FE
:1027A000400725F0C00507EA061635432CF44067BC
:1027B00048EA090647EA860C24F4E64444EA0E2770
:1027C000C3F804C09F614F6809699F631D629F69D8
:1027D00047F400679F619F6927F480679F6168E005
:1027E000036842F600461D6A1A6AC4F2010622F422
:1027F00080721A621A46D3F804C052F81CEFB34232
:102800008E680C6825F4007545EA06250FD1CE6860
:10281000D1E90598360240F2FF4725F44065BE43F2
:1028200035432CF4405748EA090647EA061C2EF0C7
:1028300073072743C3F804C0DF614F680969DF638A
:102840001D62DF6947F00807DF61DF6927F00407D1
:10285000DF612FE0036842F60047D3F820C01A6A10
:10286000C4F2010722F480521A621A465C6852F8D8
:102870001C5FD1F800E08E68BB4204D14F6924F49C
:10288000804444EA87142CF4005747EA063725F4BD
:10289000E64646EA0E265C60DE614E6809691E6403
:1028A0001F62DF6947F40067DF61DF6927F4806733
:1028B000DF6109021368194311600021BDE8F0438C
:1028C000002280F83C20084670470000002804BF22
:1028D0000120704710B5044690F83D0028B900204B
:1028E00084F83C00204600F067F8022084F83D00A0
:1028F000206840F2FF730268C4F2000342F6004C05
:102900009842C4F2010C15DCB0F1804F1AD040F2AD
:102910000041C4F20001884214D0984218DCB0F1A2
:10292000804F1DD040F20041C4F20001884217D010
:102930001AE000BF604505D040F60001C4F2000176
:102940008842EAD1A16822F070020A439842E6DD8B
:10295000604505D040F60001C4F20001884203D171
:10296000216922F440720A43A36922F08001D4F85D
:1029700004E0E268194360450160C262C0F828E0E3
:1029800002D16169CCF8301001214161002084F846
:10299000461084F83E1084F83F1084F8401084F804
:1029A000411084F8421084F8431084F8441084F8ED
:1029B000451084F83D1010BD0068B0F1804F18BF7D
:1029C000704781B041F21C00C4F20200016841F07E
:1029D00001010160006800F001000090009801B062
:1029E000704700007047000041B1082910D0042949
:1029F00014BF00F1410200F13F020BE090F83E20CD
:102A0000012A1CBF01207047022280F83E2013E0FB
:102A100000F140021278012A1CBF012070470222F7
:102A2000082907D0042914BF80F8412080F83F20EE
:102A300002E000BF80F84020006801F01F01012281
:102A4000036A8A4023EA02010162036A42F64441B2
:102A5000C4F201011A43A1F14403984202620FD06B
:102A600040F2FF71C4F20001884213DCB0F1804FE4
:102A70001CD040F20041C4F20001884216D01AE096
:102A80000A6842F400420A6040F2FF71C4F2000199
:102A90008842EBDD42F60041C4F20101884205D0D4
:102AA00040F60001C4F20001884204D1816801F0BF
:102AB0000701062903D0016841F0010101600020EF
:102AC000704700007047000070470000704700002A
:102AD00070470000B0B582B0044600680168C36862
:102AE000426901F02F05202D03F0200506D12DB1FC
:102AF000204602B0BDE8B04000F082BC5FEA017C35
:102B00001EBF02F0010E03F4907212EB0E0243D1CD
:102B1000226BCD0618D5012A16D113F0100213D05E
:102B20000021019101680191416801910199406979
:102B300040063BD4A08DE18DE28D002A18BF88426B
:102B400040F0F28102B0B0BD0A0640F1E78013F018
:102B5000800200F0E38094F841102129F2D1A168AD
:102B6000B1F5805F03D12169002900F06382216AF9
:102B70004A1C226209784160E18C01390A04E1842F
:102B8000E0D1C16821F08001C160C16841F040011D
:102B9000C16002B0B0BD00BFCA0718BF13F4807295
:102BA00040F0D0804A0700F1D380D8E0E06B0168A4
:102BB00049688AB2002AC5D0A38D9A42C2D2E18563
:102BC0008069202800F09E80206850E8030F21686B
:102BD00020F4807041E80302DAB1206850E8030F66
:102BE000216820F4807041E8030292B1206850E827
:102BF000030F216820F4807041E803024AB1206885
:102C000050E8030F216820F4807041E80302002A95
:102C1000DAD1206850E8050F216820F0010041E872
:102C20000502C2B3206850E8050F216820F00100BA
:102C300041E805027AB3206850E8050F216820F0CA
:102C4000010041E8050232B3206850E8050F216811
:102C500020F0010041E80502002ADAD11BE000BFA4
:102C6000206850E8050F216820F0400041E8050287
:102C7000DAB1206850E8050F216820F0400041E8F3
:102C8000050292B1206850E8050F216820F040004D
:102C900041E805024AB1206850E8050F216820F09C
:102CA000400041E80502002ADAD1202084F84200E1
:102CB00000202063206850E8030F216820F01000F6
:102CC00041E80302DAB1206850E8030F216820F0E0
:102CD000100041E8030292B1206850E8030F216818
:102CE00020F0100041E803024AB1206850E8030FC9
:102CF000216820F0100041E80302002ADAD1E06BDD
:102D0000FEF764FA02206063A08DE18D401A81B263
:102D1000204602B0BDE8B040FFF7D8BE49067FF5B7
:102D200011AF13F040013FF40DAFC16821F0400135
:102D3000C1602021204684F8411002B0BDE8B040B7
:102D400000F080BA626C42F0010262644A0706D564
:102D5000BEF1000F03D0626C42F0020262648A0787
:102D600006D5BEF1000F03D0626C42F0040262642B
:102D7000BCF1000F06D55EEA050203D0626C42F09A
:102D800008026264626C002A3FF4DCAE890604D556
:102D90001DB1204600F034FB20684069616C00F0F2
:102DA000400001F00801401800F0B680206850E8AB
:102DB000030F216820F4907041E80302BAB3206841
:102DC00050E8030F216820F4907041E8030272B3C9
:102DD000206850E8030F216820F4907041E8030256
:102DE0002AB3206850E8030F216820F4907041E86E
:102DF0000302002ADAD11AE0206850E8050F2168A2
:102E000020F0010041E80502DAB1206850E8050F22
:102E1000216820F0010041E8050292B1206850E8E5
:102E2000050F216820F0010041E805024AB1206841
:102E300050E8050F216820F0010041E80502002A52
:102E4000DAD1206B012824D1206850E8030F2168D3
:102E500020F0100041E80302DAB1206850E8030FC7
:102E6000216820F0100041E8030292B1206850E888
:102E7000030F216820F0100041E803024AB12068E6
:102E800050E8030F216820F0100041E80302002AF7
:102E9000DAD1202084F842000020206320684069B5
:102EA000400640F1C180206850E8050F216820F0FD
:102EB000400041E80502DAB1206850E8050F2168BA
:102EC00020F0400041E8050292B1206850E8050F6B
:102ED000216820F0400041E805024AB1206850E82E
:102EE000050F216820F0400041E80502002ADAD1F0
:102EF000E06B002800F0988043F2F531C0F6000145
:102F00004163FEF787F900283FF41CAEE06B416B8C
:102F100002B0BDE8B04008472046FFF7D9FD0020C9
:102F2000606402B0B0BD00BF401A00BF216851E824
:102F3000031F226821F4907142E80313BBB3216898
:102F400051E8031F226821F4907142E8031373B320
:102F5000216851E8031F226821F4907142E80313AD
:102F60002BB3216851E8031F226821F4907142E8D5
:102F70000313002BDAD11AE0216851E8051F2268FB
:102F800021F0010142E80513DBB1216851E8051F7A
:102F9000226821F0010142E8051393B1216851E84C
:102FA000051F226821F0010142E805134BB1216899
:102FB00051E8051F226821F0010142E80513002BAA
:102FC000DAD1202184F8421000212163216851E8E0
:102FD000031F226821F0100142E80313DBB12168CE
:102FE00051E8031F226821F0100142E8031393B156
:102FF000216851E8031F226821F0100142E8031301
:103000004BB1216851E8031F226821F0100142E80A
:103010000313002BDAD1022281B22046626302B090
:10302000BDE8B040FFF752BD204602B0BDE8B04059
:10303000FFF74EBD216A31F8022B6FF35F22426029
:10304000216299E5002804BF0120704710B50446AD
:1030500090F8410028B9002084F84000204600F094
:1030600063F8242084F841002068D4E90212C36880
:1030700023F40053C360036923F440531A430261ED
:10308000D4E904231143C268194341F20C639A4303
:103090001143C1604169A26921F44071114343F6B3
:1030A0000002C4F201029042416103D0FEF75AFDD2
:1030B00002E000BFFEF76AFDD4E90023192148436E
:1030C0009900B0FBF1F048F21F5CC5F2EB1CA0FBCD
:1030D0000C314FF69C734909C0F6FF7301FB0300E6
:1030E000322303EB0010A0FB0C03F02000EA531086
:1030F00000EB0110C3F343110844906010692021D4
:1031000020F490401061506920F02A005061D0688E
:1031100040F40050D0600020606484F8411084F8CE
:103120004210606310BD000070B586B040F6000428
:10313000C4F20104006804F5405100268842049658
:1031400002D006B070BD00BF41F21800C4F2020008
:10315000016802AD41F480410160016801F48041E1
:1031600001910199016841F004010160006829465C
:1031700000F00400019001984FF4007002900220CA
:103180000390032005902046FEF7B2F94FF48060CB
:10319000CDE90206204629460496FEF7A9F9252026
:1031A00000210022FEF738FB2520FEF723FB06B0A6
:1031B00070BD000090F84230202B07D100294FF05D
:1031C000010318BF002A05D118467047022318468C
:1031D000704700BF00230363816222218285C2857C
:1031E000436480F842100169006819B1C16841F474
:1031F0008071C160416941F001014161C16841F0E4
:103200002001C1601846704770470000034690F8DF
:103210004100202806D100294FF0010018BF002AE4
:1032200002D17047022070471962002021219A8440
:10323000DA84586483F841101968CA6842F0800241
:10324000CA60704770470000FEE70000FEE700001C
:10325000FEE700007047000070470000FEF762BA0A
:10326000704700002DE9F04740F28D00C2F20000E7
:10327000007840F6000940F27808C4F201090128FC
:10328000C2F200080AD1B8F80200132810D8484644
:1032900002210122FEF73AFA19E000BF0020A8F847
:1032A0000200484602210022FEF730FA14E000BF77
:1032B000142807D0272805D8484602210022FEF707
:1032C00025FA04E0292824BF0020A8F80200B8F855
:1032D00002000130A8F8020040F29400C2F200009F
:1032E00000780021012818D13420C4F20000416088
:1032F00081600160B8F80010332903D801EB810226
:1033000009E000BF652965D843F23433CAB2C3F27D
:103310003333A2FB033201310260D8F80400A8F86D
:103320000010B0F5967F49D140F2BC00C2F2000017
:10333000FDF7DCFB40F29101C2F2000191F800A020
:1033400040F214010020C2F20001C8F8040040F26B
:10335000B4000C68C2F200000668AAEB040001F099
:10336000FFF905463046294601F089F907463046FF
:10337000294601F092F90546002804EB0A0018BF1F
:103380000125002F18BF012701F0EAF90146304658
:1033900001F06EF9002818BF012009F5806407EAE2
:1033A000000220464FF48041FEF7B0F920464FF46A
:1033B00000512A46FEF7AAF9D8F80400411C40F251
:1033C000D010C2F20000C8F80410BDE8F047FFF7C3
:1033D00057B800BF0121D8F80400A8F80010B0F5D4
:1033E000967FA1D0EAE7000040F2A820C2F20000D8
:1033F000FFF746B8406A0021C185C184FFF768BB6A
:1034000081B090F84210222921D183680246B3F599
:10341000805F09D152F8281F52F8183C002B63D066
:1034200003685B680AE000BF52F8281F13B90369FC
:10343000002BF5D003685B6803F07F030B70116805
:1034400001311160C18D01390A04C18502D001B07A
:10345000704700BF0168CA6822F02002CA60CA68CB
:1034600022F48072CA604A6922F001024A61202176
:1034700080F8421000214163026B012A3CD10163B4
:10348000016851E8031F026821F0100142E80313AC
:10349000DBB1016851E8031F026821F0100142E826
:1034A000031393B1016851E8031F026821F0100172
:1034B00042E803134BB1016851E8031F026821F091
:1034C000100142E80313002BDAD101680A68D20622
:1034D00006D5002200920A6800924968009100997E
:1034E000818D01B0FFF7F2BA026852686FF35F2274
:1034F00021F8022B8162A5E701B0FFF785BE00002D
:1035000010B540F22414C2F2000440F26C11C2F271
:10351000000120462022FFF74DFE2046FFF7DAFA91
:103520002046FFF7D7FABDE8104000F0C1BB00000D
:10353000FEE7000094B0FEF703F900240120CDE976
:103540000F44CDE90D440A900E904FF4E0104FF473
:103550008031022513900AA80394CDE90144CDE9F6
:103560000B14CDE91151FEF725FB28B1EFF31080C4
:1035700072B600BFFEE700BF0F20CDE904054FF48F
:103580008060CDE9070404A802210694FEF702FA40
:1035900020B1EFF3108072B6FEE700BF4FF4004099
:1035A0000224029068460094FEF772F920B1EFF30E
:1035B000108072B6FEE700BF41F21805C4F20205A2
:1035C000286841F2000B40F0100028602868C4F21F
:1035D000010B00F010000A900A9828684FF460412F
:1035E00040F0200028602868002200F020000A90A7
:1035F0000A9828684FF0000840F004002860286806
:1036000000F004000A900A98286840F0080028603A
:10361000286800F008000A900A985846FEF776F8E5
:10362000ABF50066304613210022FEF76FF8ABF5CC
:10363000806948464FF4C0410022FEF767F84FF416
:1036400000500AAF0A904FF0010A58463946CDE9BA
:103650000BA40D94FDF74CFF4FF44040CDE90A0A4E
:1036600058463946CDE90C84FDF742FF1120CDE9DB
:103670000A0A30463946CDE90C84FDF739FF304659
:103680003946CDE90A4ACDE90C44FDF731FF4FF444
:10369000C040CDE90A0A48463946CDE90C84FDF719
:1036A00027FF55F8040C002140F0010045F8040CF8
:1036B00055F8040C002200F001000A900A980B2033
:1036C000FEF7AAF80B20FEF795F840F28807C2F241
:1036D00000070BF5A051384640F83C1F4FF460211D
:1036E00080F80C8080F81480C161C0E90188C0F8BE
:1036F00010A0FDF7D9FB28B1EFF3108072B600BF20
:10370000FEE700BF092007F13C05CDE90A0A0AA936
:103710002846CDF83080FDF707FB28B1EFF3108085
:1037200072B600BFFEE700BF40F218200021C2F2CF
:1037300000004FF080424723FE26CDE90411CDE979
:103740000F11CDE90D11C0E90023C0E90216016196
:103750008161FFF7BBF828B1EFF3108072B600BFAC
:10376000FEE700BF40F21820C2F2000004A9FEF7F5
:103770003BFC28B1EFF3108072B600BFFEE700BF3C
:1037800060200A900020CDE90B000E9040F2182036
:10379000C2F200000AA90022FEF798FF20B1EFF361
:1037A000108072B6FEE700BF40F21820C2F200009F
:1037B0000AA90422FEF78AFF20B1EFF3108072B647
:1037C000FEE700BF40F21820C2F200000AA908225A
:1037D000FEF77CFF20B1EFF3108072B6FEE700BF6A
:1037E00040F21820C2F200000AA90C225E46FEF741
:1037F0006DFF18B1EFF3108072B6FEE740F21820AB
:1038000040F2344BC2F20000C4F2000BFEF7F0FEAF
:1038100040F260200021ABF13402C2F200004723E5
:1038200044F61F640791CDE90511CDE90011CDE9FA
:103830000F11CDE90D11C0E90023C0E902140161A7
:103840008161FEF711FC18B1EFF3108072B6FEE74C
:103850004FF48050049040F26020C2F2000004A9AE
:10386000FEF73CFD20B1EFF3108072B6FEE700BF1B
:1038700040F26020C2F20000FFF728F820B1EFF319
:10388000108072B6FEE700BF40F26020C2F2000076
:103890006946FEF7A9FB18B1EFF3108072B6FEE798
:1038A00060200A900020CDE90B000E9040F26020CD
:1038B000C2F200000AA90022FEF708FF20B1EFF3D0
:1038C000108072B6FEE700BF40F26020C2F2000036
:1038D0000AA90422FEF7FAFE20B1EFF3108072B6B7
:1038E000FEE700BF40F26020C2F20000FEF780FE5B
:1038F00040F2F408C2F2000806F52051404640F8B4
:10390000301F4FF4165100240C22C0E90114C0E905
:103910000344C0E90524C461FFF794FB20B1EFF331
:10392000108072B6FEE700BF06F5C05088F80C4064
:1039300088F814404FF46021C8E90004C8F8084032
:1039400001244046C8F81C10C8F81040FDF7ACFA36
:1039500020B1EFF3108072B6FEE700BF40F2F40A28
:103960000820C2F2000ACDE90A0400240AA9504640
:103970000C94FDF7D9F918B1EFF3108072B6FEE799
:1039800040F2D01006F5E051C2F200004FF6E853C5
:103990000D94CDE90B44CDE904440A2280E81600D9
:1039A000C0E90334C0E90544FEF75EFB20B1EFF344
:1039B000108072B6FEE700BF4FF480500A9040F2CC
:1039C000D010C2F200000AA9FEF788FC20B1EFF384
:1039D000108072B6FEE700BF40F2D010C2F20000C5
:1039E00004A9FEF701FB18B1EFF3108072B6FEE7F1
:1039F00040F23840C4F2000000F5727240F2A82094
:103A00000021C2F2000040F2CF2341F287340D9131
:103A1000CDE90B11CDE90411C0E90023C0E902147E
:103A200001618161FEF720FB20B1EFF3108072B6D7
:103A3000FEE700BF4FF480500A9040F2A820C2F287
:103A400000000AA9FEF74AFC20B1EFF3108072B61D
:103A5000FEE700BF40F2A820C2F2000004A9FEF772
:103A6000C3FA18B1EFF3108072B6FEE7DAF830004F
:103A700040F26028C168C2F2000841F02001C16034
:103A80004046FEF7BFFB40F21829C2F20009484643
:103A90000821FEF7A9FF48460421FEF7A5FF484686
:103AA0000021FEF7A1FF40460021FEF79DFF4046A2
:103AB0000421FEF799FF40F2D010C2F20000FEF799
:103AC000D5FB40F2A820C2F20000FEF7CFFB07F1C1
:103AD0003400FDF70BF84EF22540CEF20000102125
:103AE000017040F2384140F200094FF4AF70C4F267
:103AF000000140F6B9344FF00108C2F20009086035
:103B0000CBF80000B86968B100F0AEF97A7B40F2FA
:103B1000F0210AF13000C2F20001FFF777FB00202C
:103B20007873B861F869A04207D340F2011087F8B2
:103B30000580A7F80B00C7F81880D7E90D01C7E981
:103B40000B012846FDF7DCFA5046FDF7D9FAFDF7E0
:103B5000E3FD796AD9F80020411A9142386227D3EF
:103B6000F978786291B1012922D140F23840C4F24B
:103B70000000006840F24651884217D840F23841B0
:103B8000C4F2000108680530086011E040F23840D6
:103B9000C4F200000068B0F5967F07D340F23841C8
:103BA000C4F2000108680538086001E0002078824E
:103BB000386AB96AD9F80420411A91421ED339797A
:103BC000B86269B1012919D1DBF8000040F62E1165
:103BD000884211D8DBF800000530CBF800000DE07A
:103BE000DBF80000B0F5AF7F06D3DBF80000053846
:103BF000CBF8000002E000BF0020B8822846FDF7A5
:103C00004FF938825046FDF74BF9DAF83010F86179
:103C1000C86840F02000C860B8794FF400510138FE
:103C2000B0FA80F042093046FDF770FD387B01287C
:103C300004D1388AA042FFF465AF2DE0F889B97845
:103C400045F629424843C0F28F22A0FB0202D0B2BF
:103C50004FF60042CFF6FF724BF80200387841F27F
:103C60007B424843800850434FF60443C0F347402B
:103C7000CFF6FF734BF80300787848438008504331
:103C80004FF60841C0F34740CFF6FF714BF80100F3
:103C9000388AA042FFF436AF87F8038087F80A809D
:103CA00087F80C8087F80580C7F818802AE700009D
:103CB0002DE9F0418AB040F26C14C2F200042046B3
:103CC0003C21FCF763FB054620463E21FCF75EFBEA
:103CD000002D18BF002803D10AB0BDE8F08100BF55
:103CE00005F10108002101704046FCF77DFB68B337
:103CF0004242431E00216C1866783C2E19D08B423C
:103D000024D0A6783C2E0FD05618B71C1ED0E778CA
:103D10003C2F0BD0F71C19D027793C2F08D0043149
:103D20008842E8D112E000BF013102E0023100E038
:103D3000033159B102AD41442846FCF731FB4146FD
:103D4000FCF771FB40462946FCF72AFB98F8000077
:103D500042381428C0D8DFE800F00D0B190B0B25F2
:103D60000B0B0B0B0B0B0B0B310B3D0B0B0B57000A
:103D7000B2E700BF40F28D022DA1C2F20002404620
:103D8000FCF740FA0AB0BDE8F08100BF40F28B02B8
:103D90002BA1C2F200024046FCF734FA0AB0BDE89B
:103DA000F08100BF40F28E021FA1C2F20002404625
:103DB000FCF728FA0AB0BDE8F08100BF40F28C029F
:103DC0001DA1C2F200024046FCF71CFA0AB0BDE891
:103DD000F08100BF40F28A0740F2890640F2960265
:103DE00040F28803C2F20007C2F2000616A1C2F236
:103DF0000002C2F200034046CDE90067FCF702FA78
:103E00000AB0BDE8F08100BF40F2A00204A1C2F2F6
:103E100000024046FCF7F6F90AB0BDE8F08100BFA9
:103E2000562C256868750000472C256868750000C9
:103E3000422C256868750000502C256868750000C4
:103E4000442C256868750000522C723D2568687501
:103E50002C673D256868752C623D256868752C4285
:103E60003D256868750000002DE9F04381B040F2FF
:103E70008809C2F2000999F80D7040F2F024C2F2EC
:103E800000044320E055D9F82C007E1C89F80D6011
:103E900000F04AFC48F21F586428C5F2EB181DDBFD
:103EA000A0FB081251096425302301FB150003EB28
:103EB0005212F1B26254C1B2CD225143CA0ABD1CA2
:103EC00002EB820243EAD123EEB2A0EB4200F91CDE
:103ED000A35540F03000042217E000BF0A2811DB90
:103EE000C1B2CD225143CA0A302302EB820203EB56
:103EF000D123F6B2A0EB4200B91CA35540F030002C
:103F0000032202E03030022231461744C9B2605425
:103F1000781CF9B22C226254C0B24E212154D9F837
:103F20003000BE1C00F000FC64281DDBA0FB081262
:103F300051096425302301FB150003EB5212F1B245
:103F40006254C1B2CD225143CA0AFD1C02EB820267
:103F500043EAD123EEB2A0EB4200391DA35540F055
:103F60003002052018E000BF0A2811DBC1B2CD22C3
:103F70005143CA0A302302EB820203EBD123F6B28B
:103F8000A0EB4200F91CA35540F03002042003E0EE
:103F900000F13002032031463844C9B26254C2B243
:103FA0002C23411CA354B9F80E30C9B272226254BA
:103FB000811C642B89F80D101ED39A0841F27B47AF
:103FC0007A43570C6425302607FB153306EB524223
:103FD000C9B26254D9B2CD22C71C5143CD0A46EAB8
:103FE000D121FFB2E15505EB8501A3EB4101021D93
:103FF00041F03003052716E00A2B11D3DAB2CD27A2
:104000007A433026D70A06EBD226C9B2665407EBAC
:104010008701A3EB4101C21C41F03003042702E0F9
:10402000303303270A463844D1B26354C2B22C233A
:10403000411CA35499F80130C9B262226254642B26
:1040400000F102021CD329215943090B642601FB0C
:10405000163301F13007D1B26754D9B2CD225143A2
:10406000CA0AC61C302702EB820247EAD127F6B201
:10407000A3EB4202011DA75542F03003052716E0CD
:104080000A2B11D3CD2159433026CF0A06EBD12676
:10409000D2B2A65407EB8702A3EB4202C11C42F046
:1040A0003003042703E000BF3033032711463844B0
:1040B000C9B26354C2B22C23411CA35499F80230F4
:1040C000C9B242226254821C642B89F80D201DD390
:1040D00029215943090B642601FB163301F13007EE
:1040E000D1B26754D9B2CD225143CA0AC61C302777
:1040F00002EB820247EAD127F6B2A3EB4202011D8E
:10410000A75542F03003052717E000BF0A2B11D353
:10411000CD2159433026CF0A06EBD126D2B2A65480
:1041200007EB8702A3EB4202C11C42F030030427D5
:1041300003E000BF3033032711463844C9B263544B
:10414000C2B22C23411CA35499F80330C9B24422B3
:104150006254642B00F102021CD329215943090B3C
:10416000642601FB163301F13007D1B26754D9B28E
:10417000CD225143CA0AC61C302702EB820247EA0D
:10418000D127F6B2A3EB4202011DA75542F030033E
:10419000052716E00A2B11D3CD2159433026CF0A2B
:1041A00006EBD126D2B2A65407EB8702A3EB42025C
:1041B000C11C42F03003042703E000BF3033032763
:1041C00011463844C9B26354C2B22C23411CA354D3
:1041D00099F80430C9B250226254821C642B89F8C9
:1041E0000D201DD329215943090B642601FB1633E9
:1041F00001F13007D1B26754D9B2CD225143CA0A76
:10420000C61C302702EB820247EAD127F6B2A3EBA5
:104210004202011DA75542F03003052717E000BFF9
:104220000A2B11D3CD2159433026CF0A06EBD126D4
:10423000D2B2A65407EB8702A3EB4202C11C42F0A4
:104240003003042703E000BF30330327114638440E
:10425000C9B26354C2B22C23411CA35499F805304F
:10426000C9B241226254642B00F102021CD32921FD
:104270005943090B642601FB163301F13007D1B213
:104280006754D9B2CD225143CA0AC61C302702EB6B
:10429000820247EAD127F6B2A3EB4202011DA755DD
:1042A00042F03003052716E00A2B11D3CD215943E4
:1042B0003026CF0A06EBD126D2B2A65407EB8702EE
:1042C000A3EB4202C11C42F03003042703E000BF0D
:1042D0003033032711463844C9B26354C2B22C2389
:1042E000411CA35499F80630C9B247226254821C7B
:1042F000642B89F80D201DD329215943090B64260D
:1043000001FB163301F13007D1B26754D9B2CD2287
:104310005143CA0AC61C302702EB820247EAD12762
:10432000F6B2A3EB4202011DA75542F03003052768
:1043300017E000BF0A2B11D3CD2159433026CF0AF5
:1043400006EBD126D2B2A65407EB8702A3EB4202BA
:10435000C11C42F03003042703E000BF30330327C1
:1043600011463844C9B26354C2B22C23411CA35431
:1043700099F80730C9B248226254642B00F1020256
:104380001CD329215943090B642601FB163301F183
:104390003007D1B26754D9B2CD225143CA0AC61CE4
:1043A000302702EB820247EAD127F6B2A3EB4202A2
:1043B000011DA75542F03003052716E00A2B11D343
:1043C000CD2159433026CF0A06EBD126D2B2A654CE
:1043D00007EB8702A3EB4202C11C42F03003042723
:1043E00003E000BF3033032711463844C9B2635499
:1043F000C2B22C23411CA35499F80830C9B24922F7
:104400006254821C642B89F80D201DD32921594345
:10441000090B642601FB163301F13007D1B2675452
:10442000D9B2CD225143CA0AC61C302702EB820200
:1044300047EAD127F6B2A3EB4202011DA75542F08D
:104440003003052717E000BF0A2B11D3CD215943B4
:104450003026CF0A06EBD126D2B2A65407EB87024C
:10446000A3EB4202C11C42F03003042703E000BF6B
:104470003033032711463844C9B26354C2B22C23E7
:10448000411CA35499F80930C9B254226254642BD8
:1044900000F102021CD329215943090B642601FBB8
:1044A000163301F13007D1B26754D9B2CD2251434E
:1044B000CA0AC61C302702EB820247EAD127F6B2AD
:1044C000A3EB4202011DA75542F03003052716E079
:1044D0000A2B11D3CD2159433026CF0A06EBD12622
:1044E000D2B2A65407EB8702A3EB4202C11C42F0F2
:1044F0003003042703E000BF30330327114638445C
:10450000C9B26354C2B22C23411CA35499F80A3097
:10451000C9B25A226254821C642B89F80D201DD323
:1045200029215943090B642601FB163301F1300799
:10453000D1B26754D9B2CD225143CA0AC61C302722
:1045400002EB820247EAD127F6B2A3EB4202011D39
:10455000A75542F03003052717E000BF0A2B11D3FF
:10456000CD2159433026CF0A06EBD126D2B2A6542C
:1045700007EB8702A3EB4202C11C42F03003042781
:1045800003E000BF3033032711463844C9B26354F7
:10459000C2B22C23411CA35499F80B30C9B2572244
:1045A0006254642B00F102021CD329215943090BE8
:1045B000642601FB163301F13007D1B26754D9B23A
:1045C000CD225143CA0AC61C302702EB820247EAB9
:1045D000D127F6B2A3EB4202011DA75542F03003EA
:1045E000052716E00A2B11D3CD2159433026CF0AD7
:1045F00006EBD126D2B2A65407EB8702A3EB420208
:10460000C11C42F03003042703E000BF303303270E
:1046100011463844C9B289F80D006354C0B2002174
:10462000215401B0BDE8F08310B500290AD0087804
:10463000002807D005487844FCF74CF9002801D041
:10464000002010BD0248784410BD00002A0300007D
:104650002203000010B500F033F80CBF0120002049
:1046600010BD10B500F02CF814BF0120002010BDC3
:1046700010B500F0A1F88CBF0120002010BD10B5CE
:1046800000F09AF82CBF0120002010BD10B500F0FA
:10469000C7F894BF0120002010BD10B500F0C0F88D
:1046A00034BF0120002010BD401058BFC0F1404071
:1046B000491058BFC1F140418142EFF3008070477B
:1046C00050EA010C00F113801CF5000F58BFBCF537
:1046D000000F01D48842704707D710F5000F58BF6C
:1046E00011F5000F15D488427047894270471CF5B8
:1046F000000F04D5BCF5000FF7D5814270474FF08D
:10470000807C1CEB400F38BF1CEB410F01D2814273
:10471000704710B500F0B8F8922449004FF00050EF
:104720004FF08051FFF7C0BF41000B0ED3F19E0246
:1047300008D950F400034FEA032323FA02F048BFDC
:104740004042704710B500F09FF800BF49922480A6
:10475000002070476FF0004282EA2000704700009E
:1047600010F0004148BF4042B0FA80F310FA03F263
:10477000C3F19D030BD051EAC35101EB1220530644
:1047800038BF704700F1010008BF20F001007047FA
:10479000B0FA80F310FA03F2C3F19D030AD0D905F1
:1047A00001EB1220530638BF704700F1010008BF2B
:1047B00020F001007047000050EA010C00F1138066
:1047C0001CF5000F58BFBCF5000F01D4884270479C
:1047D00007D710F5000F58BF11F5000F15D4884208
:1047E0007047894270471CF5000F04D5BCF5000FD7
:1047F000F7D5814270474FF0807C1CEB400F38BFEB
:104800001CEB410F01D28142704710B500F03CF81B
:10481000922449004FF080504FF00051FFF744BF01
:1048200050EA010C00F113801CF5000F58BFBCF5D5
:10483000000F01D48842704707D710F5000F58BF0A
:1048400011F5000F15D488427047894270471CF556
:10485000000F04D5BCF5000FF7D5814270474FF02B
:10486000807C1CEB400F38BF1CEB410F01D2814212
:10487000704710B500F008F8922449004FF000503E
:104880004FF08051FFF710BF0EF1020E2EF0030E15
:104890005EF8044B244204D44FEA4102B2F17F4F48
:1048A00011D84FEA4003B3F17F4F0CD80ED14FEA35
:1048B000D07C0CEB4C0C0CF1020CB2F17F4F08BF1A
:1048C0004CEBD17C04E04FF0080C01E04FEAD17CC6
:1048D0000CEB4C0324FA03F404F00704B4F1040CC9
:1048E00006D20EEB840CBDE810404CF0010C604782
:1048F000DFE80CF0070802024FF00040A0F580004E
:1049000010BD0846420018BFD2F1807288BF00F087
:10491000004010BD00000000000000000102030480
:104920000607080900000000010203040102020357
:104930000405060708090A0B0C0D0E0F10100000E5
:10494000704A000800000020180000005001000814
:10495000884A000818000020400900007001000883
:104960001001000043000000F8FFFFFF004040403E
:104970004040404040404141414141404040404032
:1049800040404040404040404040404040050202DE
:10499000020202020202020202020202022020209D
:1049A00020202020202020020202020202029090F9
:1049B00090909090101010101010101010101010F7
:1049C000101010101010101002020202020288884B
:1049D0008888888808080808080808080808080857
:1049E000080808080808080802020202400000003F
:1049F00000000000000000000000000000000000B7
:104A000000000000000000000000000000000000A6
:104A10000000000000000000000000000000000096
:104A20000000000000000000000000000000000086
:104A30000000000000000000000000000000000076
:104A40000000000000000000000000000000000066
:104A50000000000000000000000000000000000056
:104A60000000000000000000000000000000000046
:104A7000050000001400000001000000100000000C
:084A80000024F4000100000015
:04000005080000ED02
:00000001FF
