:020000040800F2
:1000000000080020B5010008A12400089924000878
:100010009D24000871020008ED2500080000000082
:10002000000000000000000000000000A9240008FB
:100030006905000800000000A5240008AD240008A0
:10004000CF010008CF010008CF010008CF01000850
:10005000CF010008CF010008CF010008CF01000840
:10006000CF010008CF010008CF010008CF01000830
:10007000CF010008CF010008CF010008CF01000820
:10008000CF010008CF010008CF010008CF01000810
:10009000CF010008CF010008CF010008CF01000800
:1000A000CF010008CF010008CF010008CF010008F0
:1000B000CF010008CF010008CF010008CF010008E0
:1000C000CF010008CF010008CF010008CF010008D0
:1000D000CF010008C1250008CF010008CF010008AA
:1000E000CF010008CF010008CF01000800F002F89E
:1000F00000F050F814A696E8000CB244B344DA4578
:1001000001D100F047F8BAE80F000FA696E83000DA
:10011000A5EB040504EB0607AAEB0704A7F101070A
:100120004FEA15154FEA3414A4F10104AC4201D38F
:1001300000F030F813F0010F18BFFB1A43F0010371
:1001400000F001F8DBE718473C2900005C290000BB
:10015000103A24BF78C878C1FAD8520724BF30C8F3
:1001600030C144BF04680C60704700007047000055
:100170000023002400250026103A28BF78C1FBD8B0
:10018000520728BF30C148BF0B6070471FB51FBD65
:1001900010B510BD00F031F81146FFF7F7FF02F07F
:1001A00027FA00F04FF803B4FFF7F2FF03BC00F0AA
:1001B00057F800000948804709480047FEE7FEE776
:1001C000FEE7FEE7FEE7FEE7FEE7FEE7FEE7FEE707
:1001D00004480549054A064B70470000B124000851
:1001E000ED000008000200200008002000040020AC
:1001F00000040020704770477047754600F02CF8E7
:10020000AE4605006946534620F00700854618B003
:1002100020B5FFF7DDFFBDE820404FF000064FF0AE
:1002200000074FF000084FF0000BAC46ACE8C009E7
:10023000ACE8C009ACE8C009ACE8C00921F007018E
:100240008D46704710B50446AFF300802046BDE8E8
:100250001040FFF7A8BF00000048704710000020C2
:1002600001491820ABBEFEE72600020070470000DF
:10027000FEE70000F0B583B041F204053220CEF273
:10028000000501902C6800F0D5FE4DF68366C4F29F
:100290001B36A0FB06010198890C4843019000BF62
:1002A00028680199001B88420ED228680199001B1A
:1002B000884209D228680199001B884204D2286824
:1002C0000199001B8842EBD340F60004C4F20104FC
:1002D0002046012100F082FC10B100252AE000BF79
:1002E000642002902F6800F0A5FEA0FB0601029892
:1002F000890C4843029000BF28680299C01B8842BD
:100300000ED228680299C01B884209D22868029937
:10031000C01B884204D228680299C01B8842EBD3D4
:1003200020460121012500F059FC002808BF4FF0AC
:10033000FF3500BF2046012100F050FC0028F9D114
:10034000E8B203B0F0BD000070B5044600F080F8DC
:10035000FFF790FF40F2D406C2F20006307000F0C2
:1003600021F8707000F01EF8B07000F01BF8F0700B
:1003700000F018F8307100F015F87578B278014681
:10038000F07833792A4402441A448A42F18018BF33
:1003900070BD02F04FFB2060284602F04BFB60600E
:1003A00070BD00002DE9F04F81B041F2040540F628
:1003B00000044DF6836ACEF20005C4F20104002663
:1003C0004FF001084FF03209C4F21B3A20460121D8
:1003D00000F004FC0028F9D0CDF800902F6800F060
:1003E00029FEA0FB0A010098890C4843009000BF39
:1003F00028680099C01B88420ED228680099C01B4B
:10040000884209D228680099C01B884204D2286813
:100410000099C01B8842EBD32046012100F0DEFB8F
:10042000C6F1070108FA01F14BEA0107002808BFED
:100430002BEA01072046012100F0D0FB0028F9D16A
:100440000136082EBB46C1D1F8B201B0BDE8F08F2D
:10045000F0B585B04EF6FC50CEF20000016841F2D6
:10046000040521F0807101600168CEF2000541F0C1
:100470008071016055F8040C40F6000420F0010082
:1004800045F8040C55F8040CC4F2010440F00100D6
:1004900045F8040C0020286000BF00BF00BF296899
:1004A00003900120CDE901000220049001A920461B
:1004B00000F08CFA20460121002200F095FB44F266
:1004C000506001902F6800F0B5FD4DF68366C4F2D0
:1004D0001B36A0FB06010198890C4843019000BF20
:1004E00028680199C01B88420ED228680199C01B58
:1004F000884209D228680199C01B884204D2286822
:100500000199C01B8842EBD320460121012200F053
:100510006BFB1E2001902F6800F08CFDA0FB0601F4
:100520000198890C4843019028680199C01B8842B2
:100530000ED228680199C01B884209D22868019907
:10054000C01B884204D228680199C01B8842EBD3A3
:10055000002001210490CDE90110039001A920465B
:1005600000F034FA05B0F0BD7047000010B581B05E
:100570000022009290F82420012A03D1022108468B
:1005800001B010BD4B680122062B80F8242033D81F
:10059000D0F800C003EB83035A1F1F23DCF834E0BC
:1005A00003FA02F40B682EEA040403FA02F222436F
:1005B000CCF83420092B03EB430249D9DCF80CE0DA
:1005C0001E3A0724896894402EEA0404914023F0DF
:1005D00001022143102ACCF80C1043D142F2084109
:1005E000C4F20101A1F10802944543D0816A41F0AF
:1005F00020018162012136E0D0F800C00C2B03EB12
:10060000830213D8233A1F23DCF830E003FA02F404
:100610000B682EEA040403FA02F22243CCF83020DD
:10062000092B03EB4302C9D812E000BF413A1F2354
:10063000DCF82CE003FA02F40B682EEA040403FA57
:1006400002F22243CCF82C20092B03EB4302B5D84D
:10065000DCF81030072489689440A3439140194383
:10066000CCF810100021002280F82420084601B0A8
:1006700010BD00BF0A681202F4D40A68102B42F4BD
:1006800000020A60EED140F20801C2F200010968DE
:100690004DF68362C4F21B32A1FB0212910C01EBF6
:1006A00081014900009100990029DBD000990139AE
:1006B000009100990029D5D0009901390091009945
:1006C0000029CFD000990139009100990029C9D0A3
:1006D000009901390091009900294FF00001E5D1FE
:1006E000C1E70000002804BF01207047B0B50446F0
:1006F000806A28B121688868C0070CD115E000BF66
:100700000020E06284F82400204600F09BF8216875
:100710008868C00709D0886820F00100886000F070
:1007200069FA21688A68D20726D1A06AC0063AD43D
:10073000A06A41F2021290430230A062E069D4E95B
:10074000013240EA030C531EB3FA83F35D091346EA
:10075000B2F5807F18BF2B02207D257B01284CEA53
:10076000450030D135B3A56A45F02005A562E56A9C
:1007700045F00105E56226E0054602E08868C0070D
:10078000D3D000F037FA401B21680328F6D38868DD
:10079000C007F3D0A06A40F01000A062E06A40F009
:1007A0000100E062A06AA06A40F01000A06201208F
:1007B000B0BD00BFD4F818C04EF60005CFF6FF75E7
:1007C00005EB4C352B434D68B2F5807F25F4694528
:1007D00043EA05034B608B684FF2FD75CFF6E17578
:1007E00003EA050343EA00038B6001D0012A07D125
:1007F00022690023CFF6F07303EB025201E000BF41
:100800000022CB6A23F470031A43CA62896840F657
:10081000FE62CFF61F721140814207D10020E062D4
:10082000A16A012262F30101A162B0BDA06A40F099
:10083000100020F00200A062E06A40F00100E062D7
:100840000120B0BD80B586B0014640F60040C4F23C
:100850000100096800F5C05291424FF00001CDE956
:10086000041101D006B080BD41F21801C4F20201AA
:100870000A6842F400720A600A6802F40072019287
:10088000019A0A6842F008020A60096801F008014A
:1008900001910199022102910321039102A900F023
:1008A00095F806B080BD0000014690F821000228AE
:1008B00016D10868D1E90FC3026822F00E02026067
:1008C000026822F001020260012000FA03F2CCF873
:1008D000042081F821000020002281F820207047A8
:1008E000042088630120002281F820207047000046
:1008F00090F82110022923D10268116821F00E011D
:1009000011602F211368C4F202018A4240F20401EF
:10091000C4F2020123F00103136015DD3023C4F299
:1009200002039A421CD04423C4F202039A421BD011
:100930005823C4F202039A421CD14FF4803321E0C1
:1009400004218163012070470823C4F202039A4204
:100950000ED01C23C4F202039A420BD1102311E0E3
:100960004FF480730EE000BF4FF480530AE000BFE5
:10097000012307E001F1680C4FF08073624508BF66
:100980004FF480130B60012180F82110426B00218D
:1009900080F8201022B180B590470021BDE880404A
:1009A00008467047B0B5044600F024F9054640F209
:1009B0000000C2F200000078611C18BF044400BFB0
:1009C00000F018F9401BA042FAD3B0BD2DE9F04F5A
:1009D00082B00E68002E00F0FD8041F20042C4F2A9
:1009E0000102042340F2004E904208BF03234FF659
:1009F000FF7CC4F2010E009300240123C1F2100C0D
:100A00004FF0000A4FF0000944E000BF012704F056
:100A10000C030F229A402BEA020207FA03F34FEA73
:100A20009A051A4346F825204E6840F20C45F2021A
:100A3000DEF8082054BF22EA080242EA0802C4F2A3
:100A40000105CEF808202A68B30254BF22EA080242
:100A500042EA08022A60B303DEF8042054BF22EA07
:100A6000080242EA0802F303CEF80420DEF8002070
:100A70004FF0010354BF22EA080242EA0802CEF80E
:100A800000200E680AF1010A36FA0AF204F10404A1
:100A900000F0A08003FA0AFB16EA0B08F1D04E68BA
:100AA000664511DC122E55D8DFE806F0340A4448BA
:100AB000545454545454545454545454544C500056
:100AC000D1F80C9046E000BF4FF6FF72C1F2210250
:100AD00096420FDC0022C1F2110296421AD0002287
:100AE000C1F21202964215D00022C1F221029642B2
:100AF00010D02FE00022C1F2220296420AD000223A
:100B0000C1F23102964205D00022C1F23202964271
:100B100020D100BF8A684AB1012A14BFC0F814B0BE
:100B2000C0F810B04FF0080914E000BF4FF00409FE
:100B300010E000BFCA6802F108090BE04FF000099D
:100B400008E000BFCA6802F1040903E0CA6802F1C4
:100B50000C0900BF22460646B8F5807F24BF203A24
:100B6000043637680F25954027EA050509FA02F291
:100B70002A433260CA79D2067FF583AF41F2180367
:100B8000C4F202031A68AEF57E7642F001021A60E2
:100B90001A6802F001020192019A2AF0030256F843
:100BA00002B040F60002C4F20102904210D040F6BA
:100BB0000042C4F2010290423FF428AF41F2000229
:100BC000C4F20102009F904208BF02271FE700BF46
:100BD00000271CE702B0BDE8F08F000080680840E5
:100BE00018BF012070470000002A08BF09040161F6
:100BF0007047000040F2FC10C2F20000006870472D
:100C000040F2000040F2FC11C2F20000C2F200010A
:100C100000780A68104408607047000080B542F20E
:100C20000000C4F20200016841F0100101600320DD
:100C300000F08CF80F2000F005F800F027F80020F5
:100C400080BD000070B540F20006C2F2000640F21E
:100C500008013278C2F200014FF47A730968B3FBDD
:100C6000F2F20446B1FBF2F1084600F011FC0F2C41
:100C70004FF0010508D838B94FF0FF302146002267
:100C8000002500F037F87460284670BD82B041F24C
:100C90001800C4F202000168022241F00101016063
:100CA000016801F0010101910199416841F0805111
:100CB0004160406800F08050009000980420C4F229
:100CC0000100016862F31A61016002B07047000020
:100CD000002848BF704700F01F01012202FA01F10D
:100CE0001C2202EAD0004EF20012CEF20002815025
:100CF0007047000010B54EF60C5CCEF2000CDCF82C
:100D00000030C3F3022E8EF00704042C28BF042405
:100D1000BEF103034FF0FF3E0EFA04F438BF002388
:100D2000A14399400EFA03F39A43114300F00F02D6
:100D300000F160430901043A03F56443624400286A
:100D400048BF02F10C03197010BD00004EF60C51A3
:100D5000CEF200010A684FF6FF031A4060F30A2240
:100D600042F0806040F0FD70086070472DE9F0416E
:100D700082B00446007841F21C06C007C4F20206A5
:100D80004AD030685FEAC00808D4306840F080502C
:100D90003060306800F080500190019847F2000701
:100DA000C4F200073868C00512D4386840F4807077
:100DB0003860FFF71FFF05463868C00508D4FFF705
:100DC00019FF401B6428F7D9032002B0BDE8F08169
:100DD000706810F4407012D0616801F4407188426C
:100DE0000DD0706840F24042C4F24222012320F448
:100DF000407113600023C0071360716026D17068D2
:100E0000616820F440700843B8F1000F706003D4AB
:100E1000306820F0805030602068810707D556F890
:100E2000181CA26821F44041114346F8181CC00662
:100E300007D556F8180CE16820F48000084346F8FE
:100E4000180C002002B0BDE8F08100BFFFF7D2FE11
:100E5000054641F2883700BF70688007CFD4FFF79E
:100E6000C9FE401BB8424FF00300F5D9EAE7000085
:100E7000002804BF012070472DE9F04381B042F201
:100E80000008C4F202080446D8F800000D4600F03D
:100E9000070088420CD2D8F8000020F00700284351
:100EA000C8F80000D8F8000000F00700A8426CD194
:100EB000206841F204098107C4F2020917D54107ED
:100EC00005D5D9F8001041F4E061C9F80010010718
:100ED00005D5D9F8001041F46051C9F80010D9F8CF
:100EE0000010A26821F0F0011143C9F80010C007FA
:100EF00042D1D8F8000000F00700A8420CD9D8F879
:100F0000000020F007002843C8F80000D8F80000CF
:100F100000F00700A84238D12068410707D5D9F86A
:100F20000010E26821F4E0611143C9F800100007E5
:100F300008D5D9F80000216920F4605040EAC100CA
:100F4000C9F80000D9F8002002F00C00082841F28E
:100F50000020C0F27A0051D142F67423C2F38341DB
:100F6000C0F60003595CD2033CD440F60010C0F236
:100F70003D00484342E000BF606802280AD00128D3
:100F80002AD159F8041C890308D4012001B0BDE816
:100F9000F08300BF59F8041C8901F6D5D9F8001078
:100FA00021F003010843C9F80000FFF723FE0646BD
:100FB00041F28837D9F80000616800F00C00B0EB0E
:100FC000810F96D0FFF716FE801BB842F2D903209E
:100FD00001B0BDE8F08300BF59F8041C8907D4D5DF
:100FE000DCE700BFD9F8002042F67223C2F340428A
:100FF000C0F600039A5C4843B0FBF2F0D9F8001049
:1010000042F65A22C1F30311C0F60002515C40F2CD
:10101000080220FA01F140F20400C2F20000006868
:10102000C2F200021160FFF70DFE002001B0BDE822
:10103000F083000040F20800C2F200000068704730
:1010400040F2080041F20401C2F20000C4F20201C1
:101050000068096842F66A22C1F30221C0F6000264
:10106000515CC8407047000040F2080041F20401A2
:10107000C2F20000C4F202010068096842F66A2266
:10108000C1F3C221C0F60002515CC84070470000A5
:10109000002804BF012070472DE9F04182B00446CA
:1010A000007841F20006C007C4F202060CD0706856
:1010B00000F00C00042840F081803068800303D5E4
:1010C0006068002800F04E81207880071BD570688A
:1010D00010F00C0F09D0706800F00C00082840F0E8
:1010E0008B807068C00300F187803068800703D56B
:1010F0002069012840F036813068616920F0F800ED
:1011000040EAC10030602078000713D420784007FF
:101110002CD4E569002D00F02081706800F00C00EF
:10112000082840F0AF80012D40F00C81012002B072
:10113000BDE8F081A069002800F08C800020C4F296
:1011400042200121C0F88014FFF754FD054600BF7E
:10115000706A800700F1BA80FFF74CFD401B02283F
:10116000F6D9032002B0BDE8F08100BFF0695FEA64
:10117000C00808D4F06940F08050F061F06900F0D8
:1011800080500090009847F20007C4F200073868CA
:10119000C0054DD4386840F480703860FFF72AFDF0
:1011A000054600BF3868C00542D4FFF723FD401B49
:1011B0006428F7D9032002B0BDE8F081706800F020
:1011C0000C00082803D17068C0033FF576AF606853
:1011D000002800F00981B0F5A02F00F01D81B0F5C6
:1011E000803F00F01D81306820F48030306030682E
:1011F00020F4802017E100BF2069002840F20000A1
:10120000C4F2422000F08C8001210160FFF7F2FC63
:10121000054600BF306880073FF56EAFFFF7EAFC78
:10122000401B0228F6D9032002B0BDE8F08100BFC0
:10123000E068002800F09A80052800F0B1800128BD
:1012400000F0B280306A20F001003062306A20F095
:101250000400ACE00020C4F242200021C0F8801459
:10126000FFF7C8FC054600BF706A80077FF54EAFE8
:10127000FFF7C0FC401B0228F6D9032002B0BDE8EE
:10128000F08100BF0027C4F2422700203866FFF734
:10129000B1FC022D05460DD13068800140F1D680A9
:1012A000FFF7A8FC401B02284FF00300F4D902B05E
:1012B000BDE8F081306880014FD5FFF79BFC401BF3
:1012C00002284FF00300F5D9F1E700BF40F2080013
:1012D000C2F20000006844F6D351C1F26201A0FBE3
:1012E0000101480A019000BF00BF0198411E00287B
:1012F00001913FF40BAF00BF0198411E00280191FE
:101300003FF404AF00BF0198411E002801913FF453
:10131000FDAE00BF0198411E00280191E4D1F5E621
:1013200000210160FFF766FC054600BF30688007BA
:101330007FF5E9AEFFF75EFC401B02284FF003008B
:10134000F4D9B4E77068216A00F480328A4209D186
:10135000616A00F47010884204D1002002B0BDE838
:10136000F08100BF012002B0BDE8F081306A20F0BA
:1013700001003062306A20F004003062FFF73AFC6E
:10138000054641F2883700BF306A800722D5FFF753
:1013900031FC401BB8424FF00300F5D987E700BF8E
:1013A000306A40F004003062306A40F00100306280
:1013B000FFF720FC054641F2883700BF306A8007FE
:1013C00008D4FFF717FC401BB842F7D9032002B03E
:1013D000BDE8F081B8F1000F3FF59BAEF06920F059
:1013E0008050F06195E600BF306820F480303060B6
:1013F000306820F480203060FFF7FCFB054600BF1A
:10140000306880037FF560AEFFF7F4FB401B642873
:101410004FF00300F4D94AE7306840F48020306090
:10142000306840F480303060FFF7E4FB054600BFD1
:10143000306880033FF548AEFFF7DCFB401B6428B3
:10144000F6D9032002B0BDE8F08100BF206AB0F5F4
:10145000803F05D17168A26821F4003111437160A9
:101460007168626A21F474111143084370600120AD
:101470003866FFF7BFFB0446306880013FF56DAF6B
:10148000FFF7B8FB001B02284FF00300F4D90EE76A
:10149000411E0020B0EB116F1CBF012070474EF2BF
:1014A0001002CEF2000251604EF62351CEF200013E
:1014B000F0230B70072190601160704790F83C207A
:1014C000012A4FF0020236D010B580F83D200268A4
:1014D000D2F804E0D2F808C00C682EF07003234361
:1014E00040F2FF74C4F20004A24253600ADCB2F17D
:1014F000804F13D040F20043C4F200039A420DD053
:1015000011E000BF42F60043C4F201039A4205D045
:1015100040F60003C4F200039A4204D149682CF05B
:101520008003194391600121002280F83D1080F86A
:101530003C20BDE81040104670470000002804BF62
:101540000120704710B5044690F83D0028B90020EE
:1015500084F83C00204600F067F8022084F83D0043
:10156000206840F2FF730268C4F2000342F6004CA8
:101570009842C4F2010C15DCB0F1804F1AD040F251
:101580000041C4F20001884214D0984218DCB0F146
:10159000804F1DD040F20041C4F20001884217D0B4
:1015A0001AE000BF604505D040F60001C4F200011A
:1015B0008842EAD1A16822F070020A439842E6DD2F
:1015C000604505D040F60001C4F20001884203D115
:1015D000216922F440720A43A36922F08001D4F801
:1015E00004E0E268194360450160C262C0F828E087
:1015F00002D16169CCF8301001214161002084F8EA
:10160000461084F83E1084F83F1084F8401084F8A7
:10161000411084F8421084F8431084F8441084F890
:10162000451084F83D1010BD006842F60041C4F238
:101630000101884218BF704781B041F21800C4F21E
:101640000200016841F400610160006800F400607C
:101650000090009801B0704790F83D1001291CBF20
:1016600001207047022180F83D10006840F2FF71B0
:10167000C4F20001884209DCB0F1804F12D040F280
:101680000041C4F2000188420CD012E042F6004151
:10169000C4F20101884205D040F60001C4F2000105
:1016A000884206D1816801F00701062904BF0020A5
:1016B0007047016841F0010101600020704700009F
:1016C00090F83C20012A4FF0020200F0C58080B55E
:1016D00080F83D20D0F800C04FF67772DCF8083073
:1016E00023EA0202CCF808200B684F2B28DC1F2BC2
:1016F00044DD202B45D0302B43D0402B40F0AE8032
:10170000D1F804E0C968DCF82030DCF8202022F0B1
:101710000102CCF82020DCF8182022F0F00242EA86
:10172000011123F00A0242EA0E02CCF81810CCF89C
:101730002020DCF8081041F0470121F0300180E062
:101740006F2B27DDB3F5005F48D0B3F5805F7AD00B
:10175000702B40F08380D1E901E3C968DCF80820F0
:1017600043EA0E0322F47F4243EA01211143CCF8FD
:101770000810DCF8081041F0770162E00BB1102B83
:101780006CD1DCF8081021F07001194341F0070119
:1017900057E000BF502B35D0602B5FD1D1F804E06B
:1017A000C968DCF82030DCF8202022F01002CCF8E8
:1017B0002020DCF8182022F4704242EA013123F0A4
:1017C000A00242EA0E12CCF81810CCF82020DCF867
:1017D000081041F0670121F0100132E0D1E901E386
:1017E000C968DCF8082043EA0E0322F47F4243EA8A
:1017F00001211143CCF80810DCF8081041F48041B5
:101800001FE000BFD1F804E0C968DCF82030DCF844
:10181000202022F00102CCF82020DCF8182022F051
:10182000F00242EA011123F00A0242EA0E02CCF869
:101830001810CCF82020DCF8081041F0570121F0F6
:101840002001CCF808100022012180F83D10002171
:1018500080F83C10BDE88040104670470122F3E755
:1018600070B586B0006840F20041C4F200018842C1
:101870004FF00001CDE90411CDE9021140D0B0F1E3
:10188000804F56D141F21800C4F20200016840F6C0
:10189000000441F0040101600168C4F2010401F098
:1018A000040101910199016802AD41F00801016054
:1018B0000068022600F008000190019848F20C0030
:1018C00002902046294603960596FFF77FF80820E8
:1018D000CDE9020604F5806029460596FFF776F803
:1018E0000420C4F2010001684FF6FF42CFF6FF0268
:1018F000114041F0E06141F48071016006B070BDBB
:1019000041F21800C4F20200016841F004010160D4
:10191000006802A900F0040001900198C020029024
:1019200002200390059040F60000C4F20100FFF78A
:101930004DF806B070BD000090F83C30012B04BF9C
:10194000022070474FEAB202032A3DD82DE9F04346
:10195000DFE802F002407CB6036842F600461D6AEA
:101960001A6AC4F2010622F001021A621A465C6881
:1019700052F818CFB3428E68D1F800E025F0020586
:1019800045EA06050CD1CE68D1E9057824F4407407
:1019900025F00C0526F004063C43354344EA0804D0
:1019A0002CF0730747EA0E075C609F614F68096976
:1019B0005F631D629F6947F008079F619F6927F079
:1019C00004079F61ACE000BF0121002280F83C20A9
:1019D00008467047036842F600461D6A1A6AC4F258
:1019E000010622F010021A621A46D3F804C052F817
:1019F000184FB3428E68D1F800E025F0200545EA83
:101A000006150FD1CE68D1E905986FF0400725F093
:101A1000C00507EA061635432CF4406748EA090674
:101A200047EA860C24F4E64444EA0E27C3F804C0CF
:101A30009F614F6809699F631D629F6947F4006752
:101A40009F619F6927F480679F6168E0036842F6A1
:101A500000461D6A1A6AC4F2010622F480721A62F4
:101A60001A46D3F804C052F81CEFB3428E680C68D3
:101A700025F4007545EA06250FD1CE68D1E9059811
:101A8000360240F2FF4725F44065BE4335432CF44F
:101A9000405748EA090647EA061C2EF07307274319
:101AA000C3F804C0DF614F680969DF631D62DF6945
:101AB00047F00807DF61DF6927F00407DF612FE0E7
:101AC000036842F60047D3F820C01A6AC4F201073F
:101AD00022F480521A621A465C6852F81C5FD1F8F0
:101AE00000E08E68BB4204D14F6924F4804444EA8C
:101AF00087142CF4005747EA063725F4E64646EAF1
:101B00000E265C60DE614E6809691E641F62DF6933
:101B100047F40067DF61DF6927F48067DF6109024E
:101B20001368194311600021BDE8F043002280F8DA
:101B30003C20084670470000002804BF0120704781
:101B400010B5044690F83D0028B9002084F83C0008
:101B5000204600F067F8022084F83D00206840F23B
:101B6000FF730268C4F2000342F6004C9842C4F2CC
:101B7000010C15DCB0F1804F1AD040F20041C4F2E4
:101B80000001884214D0984218DCB0F1804F1DD07B
:101B900040F20041C4F20001884217D01AE000BFB1
:101BA000604505D040F60001C4F200018842EAD148
:101BB000A16822F070020A439842E6DD604505D034
:101BC00040F60001C4F20001884203D1216922F4E9
:101BD00040720A43A36922F08001D4F804E0E2686D
:101BE000194360450160C262C0F828E002D1616912
:101BF000CCF8301001214161002084F8461084F8AF
:101C00003E1084F83F1084F8401084F8411084F8A6
:101C1000421084F8431084F8441084F8451084F886
:101C20003D1010BD82B0006840F20041C4F20001D6
:101C3000884211D0B0F1804F1BD141F21C00C4F298
:101C40000200016841F001010160006800F001003C
:101C50000190019802B0704741F21C00C4F20200EA
:101C6000016841F002010160006800F0020000908C
:101C7000009802B07047000041B1082910D0042933
:101C800014BF00F1410200F13F020BE090F83E204A
:101C9000012A1CBF01207047022280F83E2013E079
:101CA00000F140021278012A1CBF01207047022275
:101CB000082907D0042914BF80F8412080F83F206C
:101CC00002E000BF80F84020006801F01F010122FF
:101CD000036A8A4023EA02010162036A42F6444130
:101CE000C4F201011A43A1F14403984202620FD0E9
:101CF00040F2FF71C4F20001884213DCB0F1804F62
:101D00001CD040F20041C4F20001884216D01AE013
:101D10000A6842F400420A6040F2FF71C4F2000116
:101D20008842EBDD42F60041C4F20101884205D051
:101D300040F60001C4F20001884204D1816801F03C
:101D40000701062903D0016841F00101016000206C
:101D5000704700007047000070470000B0B582B0C7
:101D6000044600680168C368426901F02F05202D10
:101D700003F0200506D12DB1204602B0BDE8B040E9
:101D800000F09EBB5FEA017C1EBF02F0010E03F46F
:101D9000907212EB0E0243D1226BCD0618D5012AA8
:101DA00016D113F0100213D00021019101680191A6
:101DB000416801910199406940063BD4A08DE18DB5
:101DC000E28D002A18BF884240F0F28102B0B0BD17
:101DD0000A0640F1E78013F0800200F0E38094F8F7
:101DE00041102129F2D1A168B1F5805F03D12169A9
:101DF000002900F06382216A4A1C2262097841604E
:101E0000E18C01390A04E184E0D1C16821F080014C
:101E1000C160C16841F04001C16002B0B0BD00BF07
:101E2000CA0718BF13F4807240F0D0804A0700F14F
:101E3000D380D8E0E06B016849688AB2002AC5D037
:101E4000A38D9A42C2D2E1858069202800F09E804D
:101E5000206850E8030F216820F4807041E80302F5
:101E6000DAB1206850E8030F216820F4807041E85F
:101E7000030292B1206850E8030F216820F48070BB
:101E800041E803024AB1206850E8030F216820F4BA
:101E9000807041E80302002ADAD1206850E8050F7B
:101EA000216820F0010041E80502C2B3206850E833
:101EB000050F216820F0010041E805027AB320688F
:101EC00050E8050F216820F0010041E8050232B317
:101ED000206850E8050F216820F0010041E8050264
:101EE000002ADAD11BE000BF206850E8050F216806
:101EF00020F0400041E80502DAB1206850E8050F03
:101F0000216820F0400041E8050292B1206850E8C5
:101F1000050F216820F0400041E805024AB1206821
:101F200050E8050F216820F0400041E80502002A32
:101F3000DAD1202084F8420000202063206850E895
:101F4000030F216820F0100041E80302DAB1206895
:101F500050E8030F216820F0100041E8030292B11D
:101F6000206850E8030F216820F0100041E80302C8
:101F70004AB1206850E8030F216820F0100041E8C2
:101F80000302002ADAD1E06BFEF78EFC02206063C8
:101F9000A08DE18D401A81B2204602B0BDE8B0406C
:101FA000FFF7D8BE49067FF511AF13F040013FF4AB
:101FB0000DAFC16821F04001C1602021204684F8A6
:101FC000411002B0BDE8B04000F064BA626C42F06B
:101FD000010262644A0706D5BEF1000F03D0626CAD
:101FE00042F0020262648A0706D5BEF1000F03D0F8
:101FF000626C42F004026264BCF1000F06D55EEA36
:10200000050203D0626C42F008026264626C002A2E
:102010003FF4DCAE890604D51DB1204600F050FA2D
:1020200020684069616C00F0400001F00801401830
:1020300000F0B680206850E8030F216820F490700B
:1020400041E80302BAB3206850E8030F216820F486
:10205000907041E8030272B3206850E8030F2168D2
:1020600020F4907041E803022AB3206850E8030F7F
:10207000216820F4907041E80302002ADAD11AE0C6
:10208000206850E8050F216820F0010041E80502B2
:10209000DAB1206850E8050F216820F0010041E81E
:1020A000050292B1206850E8050F216820F0010078
:1020B00041E805024AB1206850E8050F216820F088
:1020C000010041E80502002ADAD1206B012824D161
:1020D000206850E8030F216820F0100041E8030257
:1020E000DAB1206850E8030F216820F0100041E8C1
:1020F000030292B1206850E8030F216820F010001D
:1021000041E803024AB1206850E8030F216820F03B
:10211000100041E80302002ADAD1202084F84200AE
:102120000020206320684069400640F1C18020689B
:1021300050E8050F216820F0400041E80502DAB1BF
:10214000206850E8050F216820F0400041E80502B2
:1021500092B1206850E8050F216820F0400041E866
:1021600005024AB1206850E8050F216820F04000C0
:1021700041E80502002ADAD1E06B002800F09880DF
:1021800042F2B541C0F600014163FEF7B1FB002801
:102190003FF41CAEE06B416B02B0BDE8B0400847B5
:1021A0002046FFF7D9FD0020606402B0B0BD00BF3B
:1021B000401A00BF216851E8031F226821F4907182
:1021C00042E80313BBB3216851E8031F226821F4DE
:1021D000907142E8031373B3216851E8031F22682A
:1021E00021F4907142E803132BB3216851E8031FD7
:1021F000226821F4907142E80313002BDAD11AE02F
:10220000216851E8051F226821F0010142E8051309
:10221000DBB1216851E8051F226821F0010142E885
:10222000051393B1216851E8051F226821F00101CF
:1022300042E805134BB1216851E8051F226821F0DF
:10224000010142E80513002BDAD1202184F8421065
:1022500000212163216851E8031F226821F0100149
:1022600042E80313DBB1216851E8031F226821F023
:10227000100142E8031393B1216851E8031F22685B
:1022800021F0100142E803134BB1216851E8031F0C
:10229000226821F0100142E80313002BDAD1022258
:1022A00081B22046626302B0BDE8B040FFF752BD84
:1022B000204602B0BDE8B040FFF74EBD216A31F8BC
:1022C000022B6FF35F224260216299E5002804BF70
:1022D0000120704710B5044690F8410028B900204D
:1022E00084F84000204600F063F8242084F8410080
:1022F0002068D4E90212C36823F40053C360036961
:1023000023F440531A430261D4E904231143C26801
:10231000194341F20C639A431143C1604169A269B8
:1023200021F44071114343F60002C4F201029042CD
:10233000416103D0FEF784FE02E000BFFEF794FE89
:10234000D4E90023192148439900B0FBF1F048F289
:102350001F5CC5F2EB1CA0FB0C314FF69C734909C6
:10236000C0F6FF7301FB0300322303EB0010A0FB58
:102370000C03F02000EA531000EB0110C3F34311EB
:10238000084490601069202120F490401061506949
:1023900020F02A005061D06840F40050D060002046
:1023A000606484F8411084F84210606310BD00003E
:1023B00070B586B040F60004C4F20104006804F56C
:1023C000405100268842049602D006B070BD00BF7E
:1023D00041F21800C4F20200016802AD41F48041EC
:1023E0000160016801F4804101910199016841F0A7
:1023F000040101600068294600F004000190019882
:102400004FF40070029002200390032005902046B4
:10241000FEF7DCFA4FF48060CDE90206204629463B
:102420000496FEF7D3FA252000210022FEF762FC75
:102430002520FEF74DFC06B070BD000090F842303C
:10244000202B07D100294FF0010318BF002A05D126
:102450001846704702231846704700BF00230363E5
:10246000816222218285C285436480F8421001691D
:10247000006819B1C16841F48071C160416941F0DF
:1024800001014161C16841F02001C16018467047F7
:102490007047000070470000FEE70000FEE7000004
:1024A000FEE700007047000070470000FEF7A8BB81
:1024B00070470000406A0021C185C184FFF74CBC11
:1024C00081B090F84210222921D183680246B3F5E9
:1024D000805F09D152F8281F52F8183C002B63D0B6
:1024E00003685B680AE000BF52F8281F13B903694C
:1024F000002BF5D003685B6803F07F030B70116855
:1025000001311160C18D01390A04C18502D001B0C9
:10251000704700BF0168CA6822F02002CA60CA681A
:1025200022F48072CA604A6922F001024A612021C5
:1025300080F8421000214163026B012A3CD1016303
:10254000016851E8031F026821F0100142E80313FB
:10255000DBB1016851E8031F026821F0100142E875
:10256000031393B1016851E8031F026821F01001C1
:1025700042E803134BB1016851E8031F026821F0E0
:10258000100142E80313002BDAD101680A68D20671
:1025900006D5002200920A680092496800910099CD
:1025A000818D01B0FFF7D6BB026852686FF35F22DE
:1025B00021F8022B8162A5E701B0FFF769BF000097
:1025C00010B540F2B414C2F2000440F28401C2F229
:1025D000000120461E22FFF731FF2046FFF7BEFB19
:1025E0002046BDE81040FFF7B9BB0000FEE7000041
:1025F00094B0FEF713FB00240120CDE90F44CDE990
:102600000D440A900E904FF4E0104FF480310225F3
:1026100013900AA80394CDE90144CDE90B14CDE948
:102620001151FEF735FD28B1EFF3108072B600BFEF
:10263000FEE700BF0F20CDE904054FF48060CDE92F
:10264000070404A802210694FEF712FC20B1EFF360
:10265000108072B6FEE700BF4FF4004002270290E0
:1026600068460097FEF782FB20B1EFF3108072B648
:10267000FEE700BF41F21800C4F20200016840F614
:10268000000841F0100101600168C4F2010801F086
:1026900010010A910A99016808F5006541F02001CE
:1026A00001600168002201F020010A910A99016885
:1026B0004FF4604641F0040101600168002401F01C
:1026C00004010A910A99016841F00801016000685B
:1026D0004FF4604100F008000A900A982846FEF77F
:1026E00083FA4046132100224FF0130AFEF77CFACA
:1026F0000A960AAE4FF0010928463146CDE90B94FF
:102700000D97FEF763F940463146CDE90AA9CDE9B8
:102710000C47FEF75BF940F27006C2F2000608F5BE
:10272000E051304640F8341F4FF4602104730475C3
:10273000C161C0E90144C0F81090FDF7D3FF28B192
:10274000EFF3108072B600BFFEE700BF0920CDE9AD
:102750000A0906F134000AA90C94FDF707FF28B115
:10276000EFF3108072B600BFFEE700BF40F2241006
:102770000021C2F200004FF080424723FE27CDE93E
:102780000411CDE90F11CDE90D11C0E90023C0E915
:10279000021701618161FFF7CFF928B1EFF31080D3
:1027A00072B600BFFEE700BF40F22410C2F2000084
:1027B00004A9FEF783FE28B1EFF3108072B600BFC4
:1027C000FEE700BF60200A900020CDE90B000E90CC
:1027D00040F22410C2F200000AA90022FFF7ACF870
:1027E00020B1EFF3108072B6FEE700BF40F2241074
:1027F000C2F200000AA90422FFF79EF820B1EFF30D
:10280000108072B6FEE700BF40F22410C2F2000052
:102810000AA90822FFF790F820B1EFF3108072B6F2
:10282000FEE700BF40F22410C2F200000AA90C2209
:10283000FFF782F820B1EFF3108072B6FEE700BF19
:1028400040F224103427C2F20000C4F20007FFF760
:1028500007F840F26C10002107F57372C2F2000015
:102860004FF6FF73CDE90411CDE90F11CDE90D113C
:10287000C0E90021C0E9021301618161FFF75CF941
:1028800020B1EFF3108072B6FEE700BF40F26C108B
:10289000C2F2000004A9FEF711FE18B1EFF3108098
:1028A00072B6FEE760200A900020CDE90B000E9082
:1028B00040F26C10C2F200000AA90022FFF73CF8B7
:1028C00020B1EFF3108072B6FEE700BF40F26C104B
:1028D000C2F200000AA90422FFF72EF820B1EFF39C
:1028E000108072B6FEE700BF40F26C10C2F200002A
:1028F000FEF7B6FF40F2B41508F54050C2F20005ED
:102900004FF4165100240C2285E813002846C5E92F
:102910000344C5E90524EC61FFF7D8FC20B1EFF3CF
:10292000108072B6FEE700BF40F2DC0008F51051DF
:10293000C2F200004FF6FF730D94CDE90B44CDE9D0
:102940000444472280E81600C0E90334C0E9054486
:10295000FEF7F4FD20B1EFF3108072B6FEE700BF82
:102960004FF480500A9040F2DC00C2F200000AA945
:10297000FEF7A6FE20B1EFF3108072B6FEE700BFAF
:1029800040F2DC00C2F2000004A9FEF797FD18B186
:10299000EFF3108072B6FEE72868C16841F02001AD
:1029A000C16040F2DC00C2F20000FEF755FE40F2CA
:1029B0002414C2F2000420460421FFF75DF92046EA
:1029C0000021FFF759F913A1D1E904400D1DDFF8EB
:1029D00044C02CCDD1F818E0C6E90940887F898B26
:1029E00006F10C04C6E905C2C6E90735C6F82CE0B5
:1029F00086F8320031862046FDF7A6FCD6E90301B1
:102A00003278C6E901013A60707878603220FDF7CB
:102A1000C9FFF0E7522C723D3133382C673D31311C
:102A2000322C623D32332C423D353521212121218A
:102A300021210000B0FA80F310FA03F2C3F19D03E4
:102A40000AD0D90501EB1220530638BF704700F1B8
:102A5000010008BF20F001007047000000000000E6
:102A6000000001020304060708090000000001023B
:102A70000304010202030405060708090A0B0C0DF2
:102A80000E0F1010A82A00080000002010000000FF
:102A900050010008B82A000810000020F0070000CC
:102AA000700100080000000001000000100000009C
:082AB0000024F4000000000006
:04000005080000ED02
:00000001FF
