:020000040800F2
:1000000078070020B5010008291A0008211A000805
:10001000251A000871020008191B000800000000E2
:10002000000000000000000000000000311A00087D
:1000300075020008000000002D1A0008351A00089B
:10004000CF010008CF010008CF010008CF01000850
:10005000CF010008CF010008CF010008CF01000840
:10006000CF010008CF010008CF010008CF01000830
:10007000CF010008CF010008CF010008CF01000820
:10008000CF010008CF010008CF010008CF01000810
:10009000CF010008CF010008CF010008CF01000800
:1000A000CF010008CF010008CF010008CF010008F0
:1000B000CF010008CF010008CF010008CF010008E0
:1000C000CF010008CF010008CF010008CF010008D0
:1000D000CF0100083D1A0008CF010008CF01000839
:1000E000CF010008CF010008CF01000800F002F89E
:1000F00000F050F814A696E8000CB244B344DA4578
:1001000001D100F047F8BAE80F000FA696E83000DA
:10011000A5EB040504EB0607AAEB0704A7F101070A
:100120004FEA15154FEA3414A4F10104AC4201D38F
:1001300000F030F813F0010F18BFFB1A43F0010371
:1001400000F001F8DBE718472C1D00004C1D0000F3
:10015000103A24BF78C878C1FAD8520724BF30C8F3
:1001600030C144BF04680C60704700007047000055
:100170000023002400250026103A28BF78C1FBD8B0
:10018000520728BF30C148BF0B6070471FB51FBD65
:1001900010B510BD00F031F81146FFF7F7FF01F080
:1001A000BDFC00F04FF803B4FFF7F2FF03BC00F012
:1001B00057F800000948804709480047FEE7FEE776
:1001C000FEE7FEE7FEE7FEE7FEE7FEE7FEE7FEE707
:1001D00004480549054A064B70470000391A0008D3
:1001E000ED00000878010020780700207803002047
:1001F00078030020704770477047754600F02CF870
:10020000AE4605006946534620F00700854618B003
:1002100020B5FFF7DDFFBDE820404FF000064FF0AE
:1002200000074FF000084FF0000BAC46ACE8C009E7
:10023000ACE8C009ACE8C009ACE8C00921F007018E
:100240008D46704710B50446AFF300802046BDE8E8
:100250001040FFF7A8BF00000048704710000020C2
:1002600001491820ABBEFEE72600020070470000DF
:10027000FEE700007047000010B581B00022009238
:1002800090F82420012A03D10221084601B010BDB4
:100290004B680122062B80F8242033D8D0F800C008
:1002A00003EB83035A1F1F23DCF834E003FA02F444
:1002B0000B682EEA040403FA02F22243CCF834203D
:1002C000092B03EB430249D9DCF80CE01E3A072462
:1002D000896894402EEA0404914023F001022143EE
:1002E000102ACCF80C1043D142F20841C4F20101AB
:1002F000A1F10802944543D0816A41F02001816256
:10030000012136E0D0F800C00C2B03EB830213D898
:10031000233A1F23DCF830E003FA02F40B682EEADC
:10032000040403FA02F22243CCF83020092B03EB39
:100330004302C9D812E000BF413A1F23DCF82CE089
:1003400003FA02F40B682EEA040403FA02F22243D1
:10035000CCF82C20092B03EB4302B5D8DCF8103085
:10036000072489689440A34391401943CCF81010A6
:100370000021002280F82420084601B010BD00BFF3
:100380000A681202F4D40A68102B42F400020A60D0
:10039000EED140F20801C2F2000109684DF6836215
:1003A000C4F21B32A1FB0212910C01EB8101490046
:1003B000009100990029DBD0009901390091009942
:1003C0000029D5D000990139009100990029CFD09A
:1003D00000990139009100990029C9D0009901398B
:1003E0000091009900294FF00001E5D1C1E700001C
:1003F000002804BF01207047B0B50446806A28B1C8
:1004000021688868C0070CD115E000BF0020E062B9
:1004100084F82400204600F09BF821688868C00713
:1004200009D0886820F00100886000F02BFA21686C
:100430008A68D20726D1A06AC0063AD4A06A41F2DF
:10044000021290430230A062E069D4E9013240EA2E
:10045000030C531EB3FA83F35D091346B2F5807F94
:1004600018BF2B02207D257B01284CEA450030D1A6
:1004700035B3A56A45F02005A562E56A45F001059A
:10048000E56226E0054602E08868C007D3D000F0A8
:10049000F9F9401B21680328F6D38868C007F3D018
:1004A000A06A40F01000A062E06A40F00100E06243
:1004B000A06AA06A40F01000A0620120B0BD00BF99
:1004C000D4F818C04EF60005CFF6FF7505EB4C3595
:1004D0002B434D68B2F5807F25F4694543EA050357
:1004E0004B608B684FF2FD75CFF6E17503EA0503AB
:1004F00043EA00038B6001D0012A07D1226900235F
:10050000CFF6F07303EB025201E000BF0022CB6A8A
:1005100023F470031A43CA62896840F6FE62CFF67C
:100520001F721140814207D10020E062A16A0122BE
:1005300062F30101A162B0BDA06A40F0100020F09A
:100540000200A062E06A40F00100E0620120B0BD5C
:1005500080B586B0014640F60040C4F2010009684B
:1005600000F5C05291424FF00001CDE9041101D0D5
:1005700006B080BD41F21801C4F202010A6842F4DB
:1005800000720A600A6802F400720192019A0A6815
:1005900042F008020A60096801F00801019101991E
:1005A000022102910321039102A900F05DF806B037
:1005B00080BD000090F82110022923D10268116843
:1005C00021F00E0111602F211368C4F202018A424A
:1005D00040F20401C4F2020123F00103136015DDAF
:1005E0003023C4F202039A421CD04423C4F2020313
:1005F0009A421BD05823C4F202039A421CD14FF4F2
:10060000803321E004218163012070470823C4F274
:1006100002039A420ED01C23C4F202039A420BD169
:10062000102311E04FF480730EE000BF4FF48053AD
:100630000AE000BF012307E001F1680C4FF080736E
:10064000624508BF4FF480130B60012180F8211030
:10065000426B002180F8201022B180B59047002124
:10066000BDE88040084670472DE9F04F82B00E6823
:10067000002E00F0FD8041F20042C4F2010204238A
:1006800040F2004E904208BF03234FF6FF7CC4F2B5
:10069000010E009300240123C1F2100C4FF0000A58
:1006A0004FF0000944E000BF012704F00C030F22C3
:1006B0009A402BEA020207FA03F34FEA9A051A431B
:1006C00046F825204E6840F20C45F202DEF808207C
:1006D00054BF22EA080242EA0802C4F20105CEF839
:1006E00008202A68B30254BF22EA080242EA08023C
:1006F0002A60B303DEF8042054BF22EA080242EA6B
:100700000802F303CEF80420DEF800204FF00103C6
:1007100054BF22EA080242EA0802CEF800200E681E
:100720000AF1010A36FA0AF204F1040400F0A0808A
:1007300003FA0AFB16EA0B08F1D04E68664511DC95
:10074000122E55D8DFE806F0340A44485454545465
:100750005454545454545454544C5000D1F80C90A4
:1007600046E000BF4FF6FF72C1F2210296420FDC55
:100770000022C1F2110296421AD00022C1F21202E6
:10078000964215D00022C1F22102964210D02FE0ED
:100790000022C1F2220296420AD00022C1F23102A6
:1007A000964205D00022C1F23202964220D100BF0B
:1007B0008A684AB1012A14BFC0F814B0C0F810B05A
:1007C0004FF0080914E000BF4FF0040910E000BF2B
:1007D000CA6802F108090BE04FF0000908E000BF09
:1007E000CA6802F1040903E0CA6802F10C0900BFFB
:1007F00022460646B8F5807F24BF203A0436376883
:100800000F25954027EA050509FA02F22A433260CE
:10081000CA79D2067FF583AF41F21803C4F202030E
:100820001A68AEF57E7642F001021A601A6802F08C
:1008300001020192019A2AF0030256F802B040F632
:100840000002C4F20102904210D040F60042C4F20D
:10085000010290423FF428AF41F20002C4F20102CB
:10086000009F904208BF02271FE700BF00271CE738
:1008700002B0BDE8F08F0000002A08BF0904016142
:100880007047000040F27410C2F200000068704728
:1008900040F2000040F27411C2F20000C2F2000106
:1008A00000780A68104408607047000080B542F282
:1008B0000000C4F20200016841F010010160032051
:1008C00000F08CF80F2000F005F800F027F8002069
:1008D00080BD000070B540F20006C2F2000640F292
:1008E00008013278C2F200014FF47A730968B3FB51
:1008F000F2F20446B1FBF2F1084600F00BFC0F2CBB
:100900004FF0010508D838B94FF0FF3021460022DA
:10091000002500F037F87460284670BD82B041F2BF
:100920001800C4F202000168022241F001010160D6
:10093000016801F0010101910199416841F0805184
:100940004160406800F08050009000980420C4F29C
:100950000100016862F31A61016002B07047000093
:10096000002848BF704700F01F01012202FA01F180
:100970001C2202EAD0004EF20012CEF20002815098
:100980007047000010B54EF60C5CCEF2000CDCF89F
:100990000030C3F3022E8EF00704042C28BF042479
:1009A000BEF103034FF0FF3E0EFA04F438BF0023FC
:1009B000A14399400EFA03F39A43114300F00F024A
:1009C00000F160430901043A03F5644362440028DE
:1009D00048BF02F10C03197010BD00004EF60C5117
:1009E000CEF200010A684FF6FF031A4060F30A22B4
:1009F00042F0806040F0FD70086070472DE9F041E2
:100A000082B00446007841F21C06C007C4F2020618
:100A10004AD030685FEAC00808D4306840F080509F
:100A20003060306800F080500190019847F2000774
:100A3000C4F200073868C00512D4386840F48070EA
:100A40003860FFF71FFF05463868C00508D4FFF778
:100A500019FF401B6428F7D9032002B0BDE8F081DC
:100A6000706810F4407012D0616801F440718842DF
:100A70000DD0706840F24042C4F24222012320F4BB
:100A8000407113600023C0071360716026D1706845
:100A9000616820F440700843B8F1000F706003D41F
:100AA000306820F0805030602068810707D556F804
:100AB000181CA26821F44041114346F8181CC006D6
:100AC00007D556F8180CE16820F48000084346F872
:100AD000180C002002B0BDE8F08100BFFFF7D2FE85
:100AE000054641F2883700BF70688007CFD4FFF712
:100AF000C9FE401BB8424FF00300F5D9EAE70000F9
:100B0000002804BF012070472DE9F04381B042F274
:100B10000008C4F202080446D8F800000D4600F0B0
:100B2000070088420CD2D8F8000020F007002843C4
:100B3000C8F80000D8F8000000F00700A8426CD107
:100B4000206841F204098107C4F2020917D5410760
:100B500005D5D9F8001041F4E061C9F8001001078B
:100B600005D5D9F8001041F46051C9F80010D9F842
:100B70000010A26821F0F0011143C9F80010C0076D
:100B800042D1D8F8000000F00700A8420CD9D8F8EC
:100B9000000020F007002843C8F80000D8F8000043
:100BA00000F00700A84238D12068410707D5D9F8DE
:100BB0000010E26821F4E0611143C9F80010000759
:100BC00008D5D9F80000216920F4605040EAC1003E
:100BD000C9F80000D9F8002002F00C00082841F202
:100BE0000020C0F27A0051D141F66463C2F3834120
:100BF000C0F60003595CD2033CD440F60010C0F2AA
:100C00003D00484342E000BF606802280AD0012846
:100C10002AD159F8041C890308D4012001B0BDE889
:100C2000F08300BF59F8041C8901F6D5D9F80010EB
:100C300021F003010843C9F80000FFF723FE064630
:100C400041F28837D9F80000616800F00C00B0EB81
:100C5000810F96D0FFF716FE801BB842F2D9032011
:100C600001B0BDE8F08300BF59F8041C8907D4D552
:100C7000DCE700BFD9F8002041F66263C2F34042CE
:100C8000C0F600039A5C4843B0FBF2F0D9F80010BC
:100C900041F64A62C1F30311C0F60002515C40F212
:100CA000080220FA01F140F20400C2F200000068DC
:100CB000C2F200021160FFF70DFE002001B0BDE896
:100CC000F083000040F2080041F20401C2F200008B
:100CD000C4F202010068096841F65A62C1F30221B8
:100CE000C0F60002515CC8407047000040F20800A6
:100CF00041F20401C2F20000C4F202010068096876
:100D000041F65A62C1F3C221C0F60002515CC840EC
:100D100070470000002804BF012070472DE9F04112
:100D200082B00446007841F20006C007C4F2020611
:100D30000CD0706800F00C00042840F0818030680E
:100D4000800303D56068002800F04E81207880077A
:100D50001BD5706810F00C0F09D0706800F00C0003
:100D6000082840F08B807068C00300F187803068ED
:100D7000800703D52069012840F036813068616919
:100D800020F0F80040EAC10030602078000713D45A
:100D9000207840072CD4E569002D00F02081706890
:100DA00000F00C00082840F0AF80012D40F00C81CD
:100DB000012002B0BDE8F081A069002800F08C801D
:100DC0000020C4F242200121C0F88014FFF75AFD30
:100DD000054600BF706A800700F1BA80FFF752FD38
:100DE000401B0228F6D9032002B0BDE8F08100BF05
:100DF000F0695FEAC00808D4F06940F08050F06103
:100E0000F06900F080500090009847F20007C4F2AB
:100E100000073868C0054DD4386840F480703860E9
:100E2000FFF730FD054600BF3868C00542D4FFF724
:100E300029FD401B6428F7D9032002B0BDE8F081EA
:100E4000706800F00C00082803D17068C0033FF5FB
:100E500076AF6068002800F00981B0F5A02F00F09F
:100E60001D81B0F5803F00F01D81306820F4803096
:100E70003060306820F4802017E100BF206900282E
:100E800040F20000C4F2422000F08C800121016099
:100E9000FFF7F8FC054600BF306880073FF56EAFEE
:100EA000FFF7F0FC401B0228F6D9032002B0BDE892
:100EB000F08100BFE068002800F09A80052800F06B
:100EC000B180012800F0B280306A20F00100306269
:100ED000306A20F00400ACE00020C4F2422000217F
:100EE000C0F88014FFF7CEFC054600BF706A80078B
:100EF0007FF54EAFFFF7C6FC401B0228F6D9032052
:100F000002B0BDE8F08100BF0027C4F242270020F4
:100F10003866FFF7B7FC022D05460DD13068800119
:100F200040F1D680FFF7AEFC401B02284FF00300D3
:100F3000F4D902B0BDE8F081306880014FD5FFF7E9
:100F4000A1FC401B02284FF00300F5D9F1E700BFD8
:100F500040F20800C2F20000006844F6D351C1F22A
:100F60006201A0FB0101480A019000BF00BF019887
:100F7000411E002801913FF40BAF00BF0198411EB4
:100F8000002801913FF404AF00BF0198411E0028E2
:100F900001913FF4FDAE00BF0198411E0028019170
:100FA000E4D1F5E600210160FFF76CFC054600BFC7
:100FB000306880077FF5E9AEFFF764FC401B02282C
:100FC0004FF00300F4D9B4E77068216A00F480326E
:100FD0008A4209D1616A00F47010884204D100206D
:100FE00002B0BDE8F08100BF012002B0BDE8F08191
:100FF000306A20F001003062306A20F00400306274
:10100000FFF740FC054641F2883700BF306A800791
:1010100022D5FFF737FC401BB8424FF00300F5D94B
:1010200087E700BF306A40F004003062306A40F069
:1010300001003062FFF726FC054641F2883700BF09
:10104000306A800708D4FFF71DFC401BB842F7D96F
:10105000032002B0BDE8F081B8F1000F3FF59BAE70
:10106000F06920F08050F06195E600BF306820F410
:1010700080303060306820F480203060FFF702FC60
:10108000054600BF306880037FF560AEFFF7FAFBCE
:10109000401B64284FF00300F4D94AE7306840F45D
:1010A00080203060306840F480303060FFF7EAFB29
:1010B000054600BF306880033FF548AEFFF7E2FB0E
:1010C000401B6428F6D9032002B0BDE8F08100BFC0
:1010D000206AB0F5803F05D17168A26821F4003123
:1010E000114371607168626A21F4741111430843FD
:1010F000706001203866FFF7C5FB04463068800148
:101100003FF56DAFFFF7BEFB001B02284FF0030059
:10111000F4D90EE7411E0020B0EB116F1CBF012077
:1011200070474EF21002CEF2000251604EF623518B
:10113000CEF20001F0230B70072190601160704720
:1011400090F83C20012A4FF0020236D010B580F80A
:101150003D200268D2F804E0D2F808C00C682EF0F6
:101160007003234340F2FF74C4F20004A2425360B0
:101170000ADCB2F1804F13D040F20043C4F2000306
:101180009A420DD011E000BF42F60043C4F20103C1
:101190009A4205D040F60003C4F200039A4204D1FB
:1011A00049682CF08003194391600121002280F8E6
:1011B0003D1080F83C20BDE810401046704700000C
:1011C00070B586B0006840F20041C4F20001884268
:1011D0004FF00001CDE90411CDE9021140D0B0F18A
:1011E000804F56D141F21800C4F20200016840F667
:1011F000000441F0040101600168C4F2010401F03F
:10120000040101910199016802AD41F008010160FA
:101210000068022600F008000190019848F20C00D6
:1012200002902046294603960596FFF71DFA0820EE
:10123000CDE9020604F5806029460596FFF714FA09
:101240000420C4F2010001684FF6FF42CFF6FF020E
:10125000114041F0E06141F48071016006B070BD61
:1012600041F21800C4F20200016841F0040101607B
:10127000006802A900F0040001900198C0200290CB
:1012800002200390059040F60000C4F20100FFF731
:10129000EBF906B070BD000090F83C30012B04BFA4
:1012A000022070474FEAB202032A3DD82DE9F043ED
:1012B000DFE802F002407CB6036842F600461D6A91
:1012C0001A6AC4F2010622F001021A621A465C6828
:1012D00052F818CFB3428E68D1F800E025F002052D
:1012E00045EA06050CD1CE68D1E9057824F44074AE
:1012F00025F00C0526F004063C43354344EA080477
:101300002CF0730747EA0E075C609F614F6809691C
:101310005F631D629F6947F008079F619F6927F01F
:1013200004079F61ACE000BF0121002280F83C204F
:1013300008467047036842F600461D6A1A6AC4F2FE
:10134000010622F010021A621A46D3F804C052F8BD
:10135000184FB3428E68D1F800E025F0200545EA29
:1013600006150FD1CE68D1E905986FF0400725F03A
:10137000C00507EA061635432CF4406748EA09061B
:1013800047EA860C24F4E64444EA0E27C3F804C076
:101390009F614F6809699F631D629F6947F40067F9
:1013A0009F619F6927F480679F6168E0036842F648
:1013B00000461D6A1A6AC4F2010622F480721A629B
:1013C0001A46D3F804C052F81CEFB3428E680C687A
:1013D00025F4007545EA06250FD1CE68D1E90598B8
:1013E000360240F2FF4725F44065BE4335432CF4F6
:1013F000405748EA090647EA061C2EF073072743C0
:10140000C3F804C0DF614F680969DF631D62DF69EB
:1014100047F00807DF61DF6927F00407DF612FE08D
:10142000036842F60047D3F820C01A6AC4F20107E5
:1014300022F480521A621A465C6852F81C5FD1F896
:1014400000E08E68BB4204D14F6924F4804444EA32
:1014500087142CF4005747EA063725F4E64646EA97
:101460000E265C60DE614E6809691E641F62DF69DA
:1014700047F40067DF61DF6927F48067DF610902F5
:101480001368194311600021BDE8F043002280F881
:101490003C20084670470000002804BF0120704728
:1014A00010B5044690F83D0028B9002084F83C00AF
:1014B000204600F067F8022084F83D00206840F2E2
:1014C000FF730268C4F2000342F6004C9842C4F273
:1014D000010C15DCB0F1804F1AD040F20041C4F28B
:1014E0000001884214D0984218DCB0F1804F1DD022
:1014F00040F20041C4F20001884217D01AE000BF58
:10150000604505D040F60001C4F200018842EAD1EE
:10151000A16822F070020A439842E6DD604505D0DA
:1015200040F60001C4F20001884203D1216922F48F
:1015300040720A43A36922F08001D4F804E0E26813
:10154000194360450160C262C0F828E002D16169B8
:10155000CCF8301001214161002084F8461084F855
:101560003E1084F83F1084F8401084F8411084F84D
:10157000421084F8431084F8441084F8451084F82D
:101580003D1010BD82B0006840F20041C4F200017D
:10159000884211D0B0F1804F1BD141F21C00C4F23F
:1015A0000200016841F001010160006800F00100E3
:1015B0000190019802B0704741F21C00C4F2020091
:1015C000016841F002010160006800F00200009033
:1015D000009802B07047000070470000B0B50546A3
:1015E00000680168C368446901F02F02202A03F0F3
:1015F000200217D1B2B195F83D10222946D195F8B5
:101600003D10222940F04181AB682946B3F5805F47
:1016100062D151F82C2F51F81C3C002B00F0C880EF
:10162000406862E05FEA017C1EBF04F0010E03F433
:10163000907414EB0E0447D10A062DD513F08002E6
:101640002AD095F83D10122920D195F83D10122985
:1016500040F01B81A968B1F5805F03D12969002999
:1016600000F0B280696A4A1C6A6209784160698D3B
:1016700001390A04698540F00881C16821F08001C0
:10168000C160C16841F04001C160B0BD2846BDE8FD
:10169000B04000F0DFB900BF490640F1F68013F01A
:1016A000400108BFB0BDC16821F04001C16041697F
:1016B00021F0010141610121284685F83D10BDE876
:1016C000B04000F0A9B900BFCC0718BF13F4807375
:1016D0002CD14B0730D436E051F82C2F13B92B699D
:1016E000002B9DD0406800F07F001070086801302A
:1016F0000860688E01386886698E286811B1FF21FC
:101700004160B0BDC16821F02001C160C16821F411
:101710008071C160416921F00101416101212846C8
:1017200085F83D10BDE8B04000F074B92B6C43F073
:1017300001032B644B0706D5BEF1000F03D02B6CC1
:1017400043F002032B648B0706D5BEF1000F03D0D4
:101750002B6C43F004032B64BCF1000F06D55EEA4A
:10176000020303D02B6C43F008032B642B6C002B7B
:1017700000F08B80890659D5002A57D095F83D1086
:1017800022291DD195F83D1022294FD1AB68294659
:10179000B3F5805F20D151F82C2F51F81C3C2BBBA6
:1017A00040686FF35F2022F8020B0A6023E000BF5D
:1017B00040686FF35F2022F8020B0A6099E700BFD0
:1017C000284600F047F931E0696A31F8022B6FF3DF
:1017D0005F22426069624AE751F82C2F0BB92B69EE
:1017E00023B1406800F07F0001E000BF4068107046
:1017F000086801300860688E01386886698E28683C
:1018000011B1FF21416011E0C16821F02001C160E8
:10181000C16821F48071C160416921F00101416119
:10182000012085F83D00284600F0F4F82868416959
:101830002A6C01F0400102F00802891820D0C1682A
:1018400021F49071C160416921F0010141610121E0
:1018500085F83D104169490618D5416921F04001DC
:101860004161A86B90B141F64921C0F60001416386
:10187000FEF7A0FE48B1A86B416BBDE8B040084739
:101880002846FFF7A9FE00202864B0BD2846BDE821
:10189000B040FFF7A1BE0000002804BF0120704740
:1018A00070B5044690F83D0028B9002084F83C004B
:1018B000204600F069F8022084F83D002068D4E951
:1018C00002C2D4F810E0C16804F1180621F00C013E
:1018D000C160016968CE21F47C5119432943314329
:1018E000114341F400610161C16841F20C6291430E
:1018F000626941EA0C0141EA0E011143C16041698C
:1019000043F60002C4F2010221F4407190424161A9
:1019100002D0FFF7D7F901E0FFF7E8F9D4E9002397
:10192000192148439900B0FBF1F048F21F51C5F26C
:10193000EB11A0FB013673094FF69C76C0F6FF76DB
:1019400003FB0600322606EB0010A0FB01014FF45A
:10195000F07000EA111000EB0310C1F343110844CA
:1019600090601069012120F480401061506920F0DE
:101970002A005061D06840F40050D06000202064FC
:1019800084F83D1070BD000070B586B040F60004CC
:10199000C4F20104006804F5405100268842049610
:1019A00002D006B070BD00BF41F21800C4F20200C0
:1019B000016802AD41F480410160016801F4804199
:1019C00001910199016841F0040101600068294614
:1019D00000F00400019001984FF440700290022042
:1019E0000390032005902046FEF73EFE4FF48060F2
:1019F000CDE90206204629460496FEF735FE25204D
:101A000000210022FEF7BEFF2520FEF7A9FF06B049
:101A100070BD000070470000704700007047000074
:101A2000FEE70000FEE70000FEE700007047000050
:101A300070470000FEF72CBF7047000040F2A00086
:101A4000C2F20000FFF7CABD406A0021418641850D
:101A5000FFF7C2BD90F83D10322918BF7047418D85
:101A6000C1B101680A68120614D58268B2F5805FB8
:101A700002D10269002A47D0426A531C436212789D
:101A80004A60428D013A4285428D1AB9CA6822F0F5
:101A90008002CA60418E11B301680A6892061ED5A1
:101AA00082686AB1B2F5805F0CD1026972B9C26A0C
:101AB00049686FF35F2122F8021BC2620CE000BF8D
:101AC00002691AB1496801F07F0100E04968C26A01
:101AD0001170C16A0131C162418E01394186418E66
:101AE00001B170470168CA6822F02002CA60CA6862
:101AF00022F48072CA604A6922F001024A6101211F
:101B000080F83D10FFF78ABF426A32F8023B6FF35C
:101B10005F234B604262B4E7FEE7000094B0FEF73B
:101B2000C5FE00240120CDE90F44CDE90D440A9003
:101B30000E904FF4E0104FF48031022513900AA864
:101B40000394CDE90144CDE90B14CDE91151FFF720
:101B5000E1F828B1EFF3108072B600BFFEE700BFD6
:101B60000F20CDE904054FF48060CDE9070404A8F7
:101B700002210694FEF7C4FF20B1EFF3108072B685
:101B8000FEE700BF4FF4004002270290684600972E
:101B9000FEF734FF20B1EFF3108072B6FEE700BF0E
:101BA00041F21800C4F20200016840F6000841F05A
:101BB000100101600168C4F2010801F010010A91EE
:101BC0000A99016808F5006541F02001016001688B
:101BD000002201F020010A910A9901684FF4604641
:101BE00041F0040101600168002401F004010A9140
:101BF0000A99016841F00801016000684FF46041F2
:101C000000F008000A900A982846FEF735FE404684
:101C1000132100224FF0130AFEF72EFE0A960AAE99
:101C20004FF0010928463146CDE90B940D97FEF798
:101C30001BFD40463146CDE90AA9CDE90C47FEF728
:101C400013FD40F2700008F5E051C2F200004FF4BD
:101C5000602204730475C261C0E900148460C0F896
:101C60001090FEF7C5FB28B1EFF3108072B600BFED
:101C7000FEE700BF40F270050920C2F20005CDE981
:101C80000A090AA928460C94FEF7F6FA20B1EFF3E8
:101C9000108072B6FEE700BF40F2E4000021C2F2FD
:101CA00000004FF080424FF6FF73CDE90411CDE9FB
:101CB0000F11CDE90D11C0E90021C0E90213016146
:101CC0008161FFF7E9FB28B1EFF3108072B600BF26
:101CD000FEE700BF40F2E400C2F2000004A9FFF7F3
:101CE0002FFA28B1EFF3108072B600BFFEE700BFF5
:101CF00060200A900020CDE90B000E9040F2E40035
:101D0000C2F200000AA90022FFF7C6FA20B1EFF3E1
:101D1000108072B6FEE700BF40F2E400C2F200009D
:101D20000AA90422FFF7B8FA20B1EFF3108072B6C7
:101D3000FEE700BF40F2E400C2F200000AA9082258
:101D4000FFF7AAFA20B1EFF3108072B6FEE700BFEA
:101D500040F2E400C2F200000AA90C22FFF79CFA4C
:101D600020B1EFF3108072B6FEE700BF40F2E4004E
:101D7000C2F20000FFF724FA40F22C100021A8F56F
:101D80008232C2F200004FF6FF73CDE90411CDE9B3
:101D90000F11CDE90D11C0E90021C0E90213016165
:101DA0008161FFF779FB18B1EFF3108072B6FEE79F
:101DB00040F22C10C2F2000004A9FFF7C1F918B1DB
:101DC000EFF3108072B6FEE760200A900020CDE9A4
:101DD0000B000E9040F22C10C2F200000AA9002263
:101DE000FFF75AFA20B1EFF3108072B6FEE700BF9A
:101DF00040F22C10C2F200000AA90422FFF74CFAAC
:101E000020B1EFF3108072B6FEE700BF40F22C1055
:101E1000C2F20000FFF7D4F908F5405045F8300F42
:101E20004FF4165000210C22C5E901012846C5E9EE
:101E30000311C5E90521C5E90711FFF72DFD18B10B
:101E4000EFF3108072B6FEE7FEE70000000000002E
:101E50000000010203040607080900000000010257
:101E60000304010202030405060708090A0B0C0D0E
:101E70000E0F1010981E0008000000201000000037
:101E800050010008A81E000810000020680700008C
:101E900070010008000000000100000010000000B8
:081EA0000024F4000000000022
:04000005080000ED02
:00000001FF
